{
  "_format": "hh-sol-artifact-1",
  "contractName": "CryptoLendsToken",
  "sourceName": "contracts/CryptoLendsToken.sol",
  "abi": [
    {
      "inputs": [
        {
          "internalType": "address",
          "name": "initialOwner",
          "type": "address"
        }
      ],
      "stateMutability": "nonpayable",
      "type": "constructor"
    },
    {
      "inputs": [
        {
          "internalType": "address",
          "name": "spender",
          "type": "address"
        },
        {
          "internalType": "uint256",
          "name": "allowance",
          "type": "uint256"
        },
        {
          "internalType": "uint256",
          "name": "needed",
          "type": "uint256"
        }
      ],
      "name": "ERC20InsufficientAllowance",
      "type": "error"
    },
    {
      "inputs": [
        {
          "internalType": "address",
          "name": "sender",
          "type": "address"
        },
        {
          "internalType": "uint256",
          "name": "balance",
          "type": "uint256"
        },
        {
          "internalType": "uint256",
          "name": "needed",
          "type": "uint256"
        }
      ],
      "name": "ERC20InsufficientBalance",
      "type": "error"
    },
    {
      "inputs": [
        {
          "internalType": "address",
          "name": "approver",
          "type": "address"
        }
      ],
      "name": "ERC20InvalidApprover",
      "type": "error"
    },
    {
      "inputs": [
        {
          "internalType": "address",
          "name": "receiver",
          "type": "address"
        }
      ],
      "name": "ERC20InvalidReceiver",
      "type": "error"
    },
    {
      "inputs": [
        {
          "internalType": "address",
          "name": "sender",
          "type": "address"
        }
      ],
      "name": "ERC20InvalidSender",
      "type": "error"
    },
    {
      "inputs": [
        {
          "internalType": "address",
          "name": "spender",
          "type": "address"
        }
      ],
      "name": "ERC20InvalidSpender",
      "type": "error"
    },
    {
      "inputs": [],
      "name": "EnforcedPause",
      "type": "error"
    },
    {
      "inputs": [],
      "name": "ExpectedPause",
      "type": "error"
    },
    {
      "inputs": [
        {
          "internalType": "address",
          "name": "owner",
          "type": "address"
        }
      ],
      "name": "OwnableInvalidOwner",
      "type": "error"
    },
    {
      "inputs": [
        {
          "internalType": "address",
          "name": "account",
          "type": "address"
        }
      ],
      "name": "OwnableUnauthorizedAccount",
      "type": "error"
    },
    {
      "anonymous": false,
      "inputs": [
        {
          "indexed": true,
          "internalType": "address",
          "name": "owner",
          "type": "address"
        },
        {
          "indexed": true,
          "internalType": "address",
          "name": "spender",
          "type": "address"
        },
        {
          "indexed": false,
          "internalType": "uint256",
          "name": "value",
          "type": "uint256"
        }
      ],
      "name": "Approval",
      "type": "event"
    },
    {
      "anonymous": false,
      "inputs": [
        {
          "indexed": true,
          "internalType": "address",
          "name": "previousOwner",
          "type": "address"
        },
        {
          "indexed": true,
          "internalType": "address",
          "name": "newOwner",
          "type": "address"
        }
      ],
      "name": "OwnershipTransferred",
      "type": "event"
    },
    {
      "anonymous": false,
      "inputs": [
        {
          "indexed": false,
          "internalType": "address",
          "name": "account",
          "type": "address"
        }
      ],
      "name": "Paused",
      "type": "event"
    },
    {
      "anonymous": false,
      "inputs": [
        {
          "indexed": true,
          "internalType": "address",
          "name": "from",
          "type": "address"
        },
        {
          "indexed": true,
          "internalType": "address",
          "name": "to",
          "type": "address"
        },
        {
          "indexed": false,
          "internalType": "uint256",
          "name": "value",
          "type": "uint256"
        }
      ],
      "name": "Transfer",
      "type": "event"
    },
    {
      "anonymous": false,
      "inputs": [
        {
          "indexed": false,
          "internalType": "address",
          "name": "account",
          "type": "address"
        }
      ],
      "name": "Unpaused",
      "type": "event"
    },
    {
      "inputs": [
        {
          "internalType": "address",
          "name": "owner",
          "type": "address"
        },
        {
          "internalType": "address",
          "name": "spender",
          "type": "address"
        }
      ],
      "name": "allowance",
      "outputs": [
        {
          "internalType": "uint256",
          "name": "",
          "type": "uint256"
        }
      ],
      "stateMutability": "view",
      "type": "function"
    },
    {
      "inputs": [
        {
          "internalType": "address",
          "name": "spender",
          "type": "address"
        },
        {
          "internalType": "uint256",
          "name": "value",
          "type": "uint256"
        }
      ],
      "name": "approve",
      "outputs": [
        {
          "internalType": "bool",
          "name": "",
          "type": "bool"
        }
      ],
      "stateMutability": "nonpayable",
      "type": "function"
    },
    {
      "inputs": [
        {
          "internalType": "address",
          "name": "account",
          "type": "address"
        }
      ],
      "name": "balanceOf",
      "outputs": [
        {
          "internalType": "uint256",
          "name": "",
          "type": "uint256"
        }
      ],
      "stateMutability": "view",
      "type": "function"
    },
    {
      "inputs": [
        {
          "internalType": "uint256",
          "name": "_amount",
          "type": "uint256"
        },
        {
          "internalType": "uint256",
          "name": "_interest",
          "type": "uint256"
        },
        {
          "internalType": "uint256",
          "name": "_duration",
          "type": "uint256"
        }
      ],
      "name": "borrowToken",
      "outputs": [],
      "stateMutability": "payable",
      "type": "function"
    },
    {
      "inputs": [],
      "name": "buyToken",
      "outputs": [],
      "stateMutability": "payable",
      "type": "function"
    },
    {
      "inputs": [],
      "name": "decimals",
      "outputs": [
        {
          "internalType": "uint8",
          "name": "",
          "type": "uint8"
        }
      ],
      "stateMutability": "view",
      "type": "function"
    },
    {
      "inputs": [
        {
          "internalType": "uint256",
          "name": "_loanId",
          "type": "uint256"
        }
      ],
      "name": "fundLoan",
      "outputs": [],
      "stateMutability": "payable",
      "type": "function"
    },
    {
      "inputs": [
        {
          "internalType": "uint256",
          "name": "",
          "type": "uint256"
        }
      ],
      "name": "loans",
      "outputs": [
        {
          "internalType": "uint256",
          "name": "id",
          "type": "uint256"
        },
        {
          "internalType": "address payable",
          "name": "borrower",
          "type": "address"
        },
        {
          "internalType": "address payable",
          "name": "lender",
          "type": "address"
        },
        {
          "internalType": "uint256",
          "name": "amount",
          "type": "uint256"
        },
        {
          "internalType": "uint256",
          "name": "interest",
          "type": "uint256"
        },
        {
          "internalType": "uint256",
          "name": "duration",
          "type": "uint256"
        },
        {
          "internalType": "bool",
          "name": "repaid",
          "type": "bool"
        }
      ],
      "stateMutability": "view",
      "type": "function"
    },
    {
      "inputs": [
        {
          "internalType": "address",
          "name": "to",
          "type": "address"
        },
        {
          "internalType": "uint256",
          "name": "amount",
          "type": "uint256"
        }
      ],
      "name": "mint",
      "outputs": [],
      "stateMutability": "nonpayable",
      "type": "function"
    },
    {
      "inputs": [],
      "name": "name",
      "outputs": [
        {
          "internalType": "string",
          "name": "",
          "type": "string"
        }
      ],
      "stateMutability": "view",
      "type": "function"
    },
    {
      "inputs": [],
      "name": "nextLoanId",
      "outputs": [
        {
          "internalType": "uint256",
          "name": "",
          "type": "uint256"
        }
      ],
      "stateMutability": "view",
      "type": "function"
    },
    {
      "inputs": [],
      "name": "owner",
      "outputs": [
        {
          "internalType": "address",
          "name": "",
          "type": "address"
        }
      ],
      "stateMutability": "view",
      "type": "function"
    },
    {
      "inputs": [],
      "name": "pause",
      "outputs": [],
      "stateMutability": "nonpayable",
      "type": "function"
    },
    {
      "inputs": [],
      "name": "paused",
      "outputs": [
        {
          "internalType": "bool",
          "name": "",
          "type": "bool"
        }
      ],
      "stateMutability": "view",
      "type": "function"
    },
    {
      "inputs": [],
      "name": "renounceOwnership",
      "outputs": [],
      "stateMutability": "nonpayable",
      "type": "function"
    },
    {
      "inputs": [
        {
          "internalType": "uint256",
          "name": "_loanId",
          "type": "uint256"
        }
      ],
      "name": "repayLoan",
      "outputs": [],
      "stateMutability": "payable",
      "type": "function"
    },
    {
      "inputs": [
        {
          "internalType": "uint256",
          "name": "amount",
          "type": "uint256"
        }
      ],
      "name": "sellToken",
      "outputs": [],
      "stateMutability": "payable",
      "type": "function"
    },
    {
      "inputs": [],
      "name": "symbol",
      "outputs": [
        {
          "internalType": "string",
          "name": "",
          "type": "string"
        }
      ],
      "stateMutability": "view",
      "type": "function"
    },
    {
      "inputs": [],
      "name": "totalSupply",
      "outputs": [
        {
          "internalType": "uint256",
          "name": "",
          "type": "uint256"
        }
      ],
      "stateMutability": "view",
      "type": "function"
    },
    {
      "inputs": [
        {
          "internalType": "address",
          "name": "to",
          "type": "address"
        },
        {
          "internalType": "uint256",
          "name": "value",
          "type": "uint256"
        }
      ],
      "name": "transfer",
      "outputs": [
        {
          "internalType": "bool",
          "name": "",
          "type": "bool"
        }
      ],
      "stateMutability": "nonpayable",
      "type": "function"
    },
    {
      "inputs": [
        {
          "internalType": "address",
          "name": "from",
          "type": "address"
        },
        {
          "internalType": "address",
          "name": "to",
          "type": "address"
        },
        {
          "internalType": "uint256",
          "name": "value",
          "type": "uint256"
        }
      ],
      "name": "transferFrom",
      "outputs": [
        {
          "internalType": "bool",
          "name": "",
          "type": "bool"
        }
      ],
      "stateMutability": "nonpayable",
      "type": "function"
    },
    {
      "inputs": [
        {
          "internalType": "address",
          "name": "newOwner",
          "type": "address"
        }
      ],
      "name": "transferOwnership",
      "outputs": [],
      "stateMutability": "nonpayable",
      "type": "function"
    },
    {
      "inputs": [],
      "name": "unpause",
      "outputs": [],
      "stateMutability": "nonpayable",
      "type": "function"
    },
    {
      "inputs": [],
      "name": "withdraw",
      "outputs": [],
      "stateMutability": "nonpayable",
      "type": "function"
    }
  ],
  "bytecode": "0x60806040523480156200001157600080fd5b506040516200315c3803806200315c8339818101604052810190620000379190620005a8565b806040518060400160405280601081526020017f43727970746f4c656e6473546f6b656e000000000000000000000000000000008152506040518060400160405280600381526020017f434c5400000000000000000000000000000000000000000000000000000000008152508160039081620000b5919062000854565b508060049081620000c7919062000854565b505050600073ffffffffffffffffffffffffffffffffffffffff168173ffffffffffffffffffffffffffffffffffffffff16036200013f5760006040517f1e4fbdf70000000000000000000000000000000000000000000000000000000081526004016200013691906200094c565b60405180910390fd5b6200015081620001b260201b60201c565b506000600560146101000a81548160ff021916908315150217905550620001ab81620001816200027860201b60201c565b600a6200018f919062000af9565b620f42406200019f919062000b4a565b6200028160201b60201c565b5062000c3b565b6000600560009054906101000a900473ffffffffffffffffffffffffffffffffffffffff16905081600560006101000a81548173ffffffffffffffffffffffffffffffffffffffff021916908373ffffffffffffffffffffffffffffffffffffffff1602179055508173ffffffffffffffffffffffffffffffffffffffff168173ffffffffffffffffffffffffffffffffffffffff167f8be0079c531659141344cd1fd0a4f28419497f9722a3daafe3b4186f6b6457e060405160405180910390a35050565b60006012905090565b600073ffffffffffffffffffffffffffffffffffffffff168273ffffffffffffffffffffffffffffffffffffffff1603620002f65760006040517fec442f05000000000000000000000000000000000000000000000000000000008152600401620002ed91906200094c565b60405180910390fd5b6200030a600083836200030e60201b60201c565b5050565b600073ffffffffffffffffffffffffffffffffffffffff168373ffffffffffffffffffffffffffffffffffffffff16036200036457806002600082825462000357919062000b95565b925050819055506200043a565b60008060008573ffffffffffffffffffffffffffffffffffffffff1673ffffffffffffffffffffffffffffffffffffffff16815260200190815260200160002054905081811015620003f3578381836040517fe450d38c000000000000000000000000000000000000000000000000000000008152600401620003ea9392919062000be1565b60405180910390fd5b8181036000808673ffffffffffffffffffffffffffffffffffffffff1673ffffffffffffffffffffffffffffffffffffffff16815260200190815260200160002081905550505b600073ffffffffffffffffffffffffffffffffffffffff168273ffffffffffffffffffffffffffffffffffffffff1603620004855780600260008282540392505081905550620004d2565b806000808473ffffffffffffffffffffffffffffffffffffffff1673ffffffffffffffffffffffffffffffffffffffff168152602001908152602001600020600082825401925050819055505b8173ffffffffffffffffffffffffffffffffffffffff168373ffffffffffffffffffffffffffffffffffffffff167fddf252ad1be2c89b69c2b068fc378daa952ba7f163c4a11628f55a4df523b3ef8360405162000531919062000c1e565b60405180910390a3505050565b600080fd5b600073ffffffffffffffffffffffffffffffffffffffff82169050919050565b6000620005708262000543565b9050919050565b620005828162000563565b81146200058e57600080fd5b50565b600081519050620005a28162000577565b92915050565b600060208284031215620005c157620005c06200053e565b5b6000620005d18482850162000591565b91505092915050565b600081519050919050565b7f4e487b7100000000000000000000000000000000000000000000000000000000600052604160045260246000fd5b7f4e487b7100000000000000000000000000000000000000000000000000000000600052602260045260246000fd5b600060028204905060018216806200065c57607f821691505b60208210810362000672576200067162000614565b5b50919050565b60008190508160005260206000209050919050565b60006020601f8301049050919050565b600082821b905092915050565b600060088302620006dc7fffffffffffffffffffffffffffffffffffffffffffffffffffffffffffffffff826200069d565b620006e886836200069d565b95508019841693508086168417925050509392505050565b6000819050919050565b6000819050919050565b6000620007356200072f620007298462000700565b6200070a565b62000700565b9050919050565b6000819050919050565b620007518362000714565b6200076962000760826200073c565b848454620006aa565b825550505050565b600090565b6200078062000771565b6200078d81848462000746565b505050565b5b81811015620007b557620007a960008262000776565b60018101905062000793565b5050565b601f8211156200080457620007ce8162000678565b620007d9846200068d565b81016020851015620007e9578190505b62000801620007f8856200068d565b83018262000792565b50505b505050565b600082821c905092915050565b6000620008296000198460080262000809565b1980831691505092915050565b600062000844838362000816565b9150826002028217905092915050565b6200085f82620005da565b67ffffffffffffffff8111156200087b576200087a620005e5565b5b62000887825462000643565b62000894828285620007b9565b600060209050601f831160018114620008cc5760008415620008b7578287015190505b620008c3858262000836565b86555062000933565b601f198416620008dc8662000678565b60005b828110156200090657848901518255600182019150602085019450602081019050620008df565b8683101562000926578489015162000922601f89168262000816565b8355505b6001600288020188555050505b505050505050565b620009468162000563565b82525050565b60006020820190506200096360008301846200093b565b92915050565b7f4e487b7100000000000000000000000000000000000000000000000000000000600052601160045260246000fd5b60008160011c9050919050565b6000808291508390505b6001851115620009f757808604811115620009cf57620009ce62000969565b5b6001851615620009df5780820291505b8081029050620009ef8562000998565b9450620009af565b94509492505050565b60008262000a12576001905062000ae5565b8162000a22576000905062000ae5565b816001811462000a3b576002811462000a465762000a7c565b600191505062000ae5565b60ff84111562000a5b5762000a5a62000969565b5b8360020a91508482111562000a755762000a7462000969565b5b5062000ae5565b5060208310610133831016604e8410600b841016171562000ab65782820a90508381111562000ab05762000aaf62000969565b5b62000ae5565b62000ac58484846001620009a5565b9250905081840481111562000adf5762000ade62000969565b5b81810290505b9392505050565b600060ff82169050919050565b600062000b068262000700565b915062000b138362000aec565b925062000b427fffffffffffffffffffffffffffffffffffffffffffffffffffffffffffffffff848462000a00565b905092915050565b600062000b578262000700565b915062000b648362000700565b925082820262000b748162000700565b9150828204841483151762000b8e5762000b8d62000969565b5b5092915050565b600062000ba28262000700565b915062000baf8362000700565b925082820190508082111562000bca5762000bc962000969565b5b92915050565b62000bdb8162000700565b82525050565b600060608201905062000bf860008301866200093b565b62000c07602083018562000bd0565b62000c16604083018462000bd0565b949350505050565b600060208201905062000c35600083018462000bd0565b92915050565b6125118062000c4b6000396000f3fe60806040526004361061014b5760003560e01c80638456cb59116100b6578063a48217191161006f578063a482171914610427578063a9059cbb14610431578063ab7b1c891461046e578063dd62ed3e1461048a578063e1ec3c68146104c7578063f2fde38b1461050a5761014b565b80638456cb591461034a578063846b909a1461036157806387c514591461037d5780638da5cb5b146103a857806395d89b41146103d357806397a41b8e146103fe5761014b565b80633ccfd60b116101085780633ccfd60b146102745780633f4ba83a1461028b57806340c10f19146102a25780635c975abb146102cb57806370a08231146102f6578063715018a6146103335761014b565b806306fdde0314610150578063095ea7b31461017b57806318160ddd146101b85780632397e4d7146101e357806323b872dd1461020c578063313ce56714610249575b600080fd5b34801561015c57600080fd5b50610165610533565b6040516101729190611ac1565b60405180910390f35b34801561018757600080fd5b506101a2600480360381019061019d9190611b7c565b6105c5565b6040516101af9190611bd7565b60405180910390f35b3480156101c457600080fd5b506101cd6105e8565b6040516101da9190611c01565b60405180910390f35b3480156101ef57600080fd5b5061020a60048036038101906102059190611c1c565b6105f2565b005b34801561021857600080fd5b50610233600480360381019061022e9190611c49565b610731565b6040516102409190611bd7565b60405180910390f35b34801561025557600080fd5b5061025e610760565b60405161026b9190611cb8565b60405180910390f35b34801561028057600080fd5b50610289610769565b005b34801561029757600080fd5b506102a06107c1565b005b3480156102ae57600080fd5b506102c960048036038101906102c49190611b7c565b6107d3565b005b3480156102d757600080fd5b506102e06107e9565b6040516102ed9190611bd7565b60405180910390f35b34801561030257600080fd5b5061031d60048036038101906103189190611cd3565b610800565b60405161032a9190611c01565b60405180910390f35b34801561033f57600080fd5b50610348610848565b005b34801561035657600080fd5b5061035f61085c565b005b61037b60048036038101906103769190611c1c565b61086e565b005b34801561038957600080fd5b50610392610a6a565b60405161039f9190611c01565b60405180910390f35b3480156103b457600080fd5b506103bd610a70565b6040516103ca9190611d0f565b60405180910390f35b3480156103df57600080fd5b506103e8610a9a565b6040516103f59190611ac1565b60405180910390f35b34801561040a57600080fd5b5061042560048036038101906104209190611d2a565b610b2c565b005b61042f610cef565b005b34801561043d57600080fd5b5061045860048036038101906104539190611b7c565b610d58565b6040516104659190611bd7565b60405180910390f35b61048860048036038101906104839190611c1c565b610d7b565b005b34801561049657600080fd5b506104b160048036038101906104ac9190611d7d565b610f5f565b6040516104be9190611c01565b60405180910390f35b3480156104d357600080fd5b506104ee60048036038101906104e99190611c1c565b610fe6565b6040516105019796959493929190611dde565b60405180910390f35b34801561051657600080fd5b50610531600480360381019061052c9190611cd3565b611075565b005b60606003805461054290611e7c565b80601f016020809104026020016040519081016040528092919081815260200182805461056e90611e7c565b80156105bb5780601f10610590576101008083540402835291602001916105bb565b820191906000526020600020905b81548152906001019060200180831161059e57829003601f168201915b5050505050905090565b6000806105d06110fb565b90506105dd818585611103565b600191505092915050565b6000600254905090565b6105fa611115565b6000811161063d576040517f08c379a000000000000000000000000000000000000000000000000000000000815260040161063490611ef9565b60405180910390fd5b8061064733610800565b1015610688576040517f08c379a000000000000000000000000000000000000000000000000000000000815260040161067f90611f8b565b60405180910390fd5b60006064826106979190612009565b9050804710156106dc576040517f08c379a00000000000000000000000000000000000000000000000000000000081526004016106d3906120ac565b60405180910390fd5b6106e63383611156565b3373ffffffffffffffffffffffffffffffffffffffff166108fc829081150290604051600060405180830381858888f1935050505015801561072c573d6000803e3d6000fd5b505050565b60008061073c6110fb565b90506107498582856111d8565b61075485858561126c565b60019150509392505050565b60006012905090565b610771611360565b610779610a70565b73ffffffffffffffffffffffffffffffffffffffff166108fc479081150290604051600060405180830381858888f193505050501580156107be573d6000803e3d6000fd5b50565b6107c9611360565b6107d16113e7565b565b6107db611360565b6107e5828261144a565b5050565b6000600560149054906101000a900460ff16905090565b60008060008373ffffffffffffffffffffffffffffffffffffffff1673ffffffffffffffffffffffffffffffffffffffff168152602001908152602001600020549050919050565b610850611360565b61085a60006114cc565b565b610864611360565b61086c611592565b565b610876611115565b6000600760008381526020019081526020016000209050806003015434146108d3576040517f08c379a00000000000000000000000000000000000000000000000000000000081526004016108ca90612118565b60405180910390fd5b600073ffffffffffffffffffffffffffffffffffffffff168160020160009054906101000a900473ffffffffffffffffffffffffffffffffffffffff1673ffffffffffffffffffffffffffffffffffffffff1614610966576040517f08c379a000000000000000000000000000000000000000000000000000000000815260040161095d90612184565b60405180910390fd5b8060060160009054906101000a900460ff16156109b8576040517f08c379a00000000000000000000000000000000000000000000000000000000081526004016109af906121f0565b60405180910390fd5b338160020160006101000a81548173ffffffffffffffffffffffffffffffffffffffff021916908373ffffffffffffffffffffffffffffffffffffffff1602179055508060010160009054906101000a900473ffffffffffffffffffffffffffffffffffffffff1673ffffffffffffffffffffffffffffffffffffffff166108fc349081150290604051600060405180830381858888f19350505050158015610a65573d6000803e3d6000fd5b505050565b60065481565b6000600560009054906101000a900473ffffffffffffffffffffffffffffffffffffffff16905090565b606060048054610aa990611e7c565b80601f0160208091040260200160405190810160405280929190818152602001828054610ad590611e7c565b8015610b225780601f10610af757610100808354040283529160200191610b22565b820191906000526020600020905b815481529060010190602001808311610b0557829003601f168201915b5050505050905090565b610b34611115565b82610b3e33610800565b1015610b7f576040517f08c379a0000000000000000000000000000000000000000000000000000000008152600401610b7690612282565b60405180910390fd5b6040518060e0016040528060065481526020013373ffffffffffffffffffffffffffffffffffffffff168152602001600073ffffffffffffffffffffffffffffffffffffffff168152602001848152602001838152602001828152602001600015158152506007600060065481526020019081526020016000206000820151816000015560208201518160010160006101000a81548173ffffffffffffffffffffffffffffffffffffffff021916908373ffffffffffffffffffffffffffffffffffffffff16021790555060408201518160020160006101000a81548173ffffffffffffffffffffffffffffffffffffffff021916908373ffffffffffffffffffffffffffffffffffffffff160217905550606082015181600301556080820151816004015560a0820151816005015560c08201518160060160006101000a81548160ff02191690831515021790555090505060066000815480929190610ce5906122a2565b9190505550505050565b610cf7611115565b60003411610d3a576040517f08c379a0000000000000000000000000000000000000000000000000000000008152600401610d3190612336565b60405180910390fd5b6000606434610d499190612356565b9050610d55338261144a565b50565b600080610d636110fb565b9050610d7081858561126c565b600191505092915050565b610d83611115565b60006007600083815260200190815260200160002090508060010160009054906101000a900473ffffffffffffffffffffffffffffffffffffffff1673ffffffffffffffffffffffffffffffffffffffff163373ffffffffffffffffffffffffffffffffffffffff1614610e2c576040517f08c379a0000000000000000000000000000000000000000000000000000000008152600401610e23906123e4565b60405180910390fd5b8060060160009054906101000a900460ff1615610e7e576040517f08c379a0000000000000000000000000000000000000000000000000000000008152600401610e75906121f0565b60405180910390fd5b80600401548160030154610e929190612404565b3414610ed3576040517f08c379a0000000000000000000000000000000000000000000000000000000008152600401610eca90612484565b60405180910390fd5b8060020160009054906101000a900473ffffffffffffffffffffffffffffffffffffffff1673ffffffffffffffffffffffffffffffffffffffff166108fc349081150290604051600060405180830381858888f19350505050158015610f3d573d6000803e3d6000fd5b5060018160060160006101000a81548160ff0219169083151502179055505050565b6000600160008473ffffffffffffffffffffffffffffffffffffffff1673ffffffffffffffffffffffffffffffffffffffff16815260200190815260200160002060008373ffffffffffffffffffffffffffffffffffffffff1673ffffffffffffffffffffffffffffffffffffffff16815260200190815260200160002054905092915050565b60076020528060005260406000206000915090508060000154908060010160009054906101000a900473ffffffffffffffffffffffffffffffffffffffff16908060020160009054906101000a900473ffffffffffffffffffffffffffffffffffffffff16908060030154908060040154908060050154908060060160009054906101000a900460ff16905087565b61107d611360565b600073ffffffffffffffffffffffffffffffffffffffff168173ffffffffffffffffffffffffffffffffffffffff16036110ef5760006040517f1e4fbdf70000000000000000000000000000000000000000000000000000000081526004016110e69190611d0f565b60405180910390fd5b6110f8816114cc565b50565b600033905090565b61111083838360016115f5565b505050565b61111d6107e9565b15611154576040517fd93c066500000000000000000000000000000000000000000000000000000000815260040160405180910390fd5b565b600073ffffffffffffffffffffffffffffffffffffffff168273ffffffffffffffffffffffffffffffffffffffff16036111c85760006040517f96c6fd1e0000000000000000000000000000000000000000000000000000000081526004016111bf9190611d0f565b60405180910390fd5b6111d4826000836117cc565b5050565b60006111e48484610f5f565b90507fffffffffffffffffffffffffffffffffffffffffffffffffffffffffffffffff81146112665781811015611256578281836040517ffb8f41b200000000000000000000000000000000000000000000000000000000815260040161124d939291906124a4565b60405180910390fd5b611265848484840360006115f5565b5b50505050565b600073ffffffffffffffffffffffffffffffffffffffff168373ffffffffffffffffffffffffffffffffffffffff16036112de5760006040517f96c6fd1e0000000000000000000000000000000000000000000000000000000081526004016112d59190611d0f565b60405180910390fd5b600073ffffffffffffffffffffffffffffffffffffffff168273ffffffffffffffffffffffffffffffffffffffff16036113505760006040517fec442f050000000000000000000000000000000000000000000000000000000081526004016113479190611d0f565b60405180910390fd5b61135b8383836117cc565b505050565b6113686110fb565b73ffffffffffffffffffffffffffffffffffffffff16611386610a70565b73ffffffffffffffffffffffffffffffffffffffff16146113e5576113a96110fb565b6040517f118cdaa70000000000000000000000000000000000000000000000000000000081526004016113dc9190611d0f565b60405180910390fd5b565b6113ef6119f1565b6000600560146101000a81548160ff0219169083151502179055507f5db9ee0a495bf2e6ff9c91a7834c1ba4fdd244a5e8aa4e537bd38aeae4b073aa6114336110fb565b6040516114409190611d0f565b60405180910390a1565b600073ffffffffffffffffffffffffffffffffffffffff168273ffffffffffffffffffffffffffffffffffffffff16036114bc5760006040517fec442f050000000000000000000000000000000000000000000000000000000081526004016114b39190611d0f565b60405180910390fd5b6114c8600083836117cc565b5050565b6000600560009054906101000a900473ffffffffffffffffffffffffffffffffffffffff16905081600560006101000a81548173ffffffffffffffffffffffffffffffffffffffff021916908373ffffffffffffffffffffffffffffffffffffffff1602179055508173ffffffffffffffffffffffffffffffffffffffff168173ffffffffffffffffffffffffffffffffffffffff167f8be0079c531659141344cd1fd0a4f28419497f9722a3daafe3b4186f6b6457e060405160405180910390a35050565b61159a611115565b6001600560146101000a81548160ff0219169083151502179055507f62e78cea01bee320cd4e420270b5ea74000d11b0c9f74754ebdbfc544b05a2586115de6110fb565b6040516115eb9190611d0f565b60405180910390a1565b600073ffffffffffffffffffffffffffffffffffffffff168473ffffffffffffffffffffffffffffffffffffffff16036116675760006040517fe602df0500000000000000000000000000000000000000000000000000000000815260040161165e9190611d0f565b60405180910390fd5b600073ffffffffffffffffffffffffffffffffffffffff168373ffffffffffffffffffffffffffffffffffffffff16036116d95760006040517f94280d620000000000000000000000000000000000000000000000000000000081526004016116d09190611d0f565b60405180910390fd5b81600160008673ffffffffffffffffffffffffffffffffffffffff1673ffffffffffffffffffffffffffffffffffffffff16815260200190815260200160002060008573ffffffffffffffffffffffffffffffffffffffff1673ffffffffffffffffffffffffffffffffffffffff1681526020019081526020016000208190555080156117c6578273ffffffffffffffffffffffffffffffffffffffff168473ffffffffffffffffffffffffffffffffffffffff167f8c5be1e5ebec7d5bd14f71427d1e84f3dd0314c0f7b2291e5b200ac8c7c3b925846040516117bd9190611c01565b60405180910390a35b50505050565b600073ffffffffffffffffffffffffffffffffffffffff168373ffffffffffffffffffffffffffffffffffffffff160361181e5780600260008282546118129190612404565b925050819055506118f1565b60008060008573ffffffffffffffffffffffffffffffffffffffff1673ffffffffffffffffffffffffffffffffffffffff168152602001908152602001600020549050818110156118aa578381836040517fe450d38c0000000000000000000000000000000000000000000000000000000081526004016118a1939291906124a4565b60405180910390fd5b8181036000808673ffffffffffffffffffffffffffffffffffffffff1673ffffffffffffffffffffffffffffffffffffffff16815260200190815260200160002081905550505b600073ffffffffffffffffffffffffffffffffffffffff168273ffffffffffffffffffffffffffffffffffffffff160361193a5780600260008282540392505081905550611987565b806000808473ffffffffffffffffffffffffffffffffffffffff1673ffffffffffffffffffffffffffffffffffffffff168152602001908152602001600020600082825401925050819055505b8173ffffffffffffffffffffffffffffffffffffffff168373ffffffffffffffffffffffffffffffffffffffff167fddf252ad1be2c89b69c2b068fc378daa952ba7f163c4a11628f55a4df523b3ef836040516119e49190611c01565b60405180910390a3505050565b6119f96107e9565b611a2f576040517f8dfc202b00000000000000000000000000000000000000000000000000000000815260040160405180910390fd5b565b600081519050919050565b600082825260208201905092915050565b60005b83811015611a6b578082015181840152602081019050611a50565b60008484015250505050565b6000601f19601f8301169050919050565b6000611a9382611a31565b611a9d8185611a3c565b9350611aad818560208601611a4d565b611ab681611a77565b840191505092915050565b60006020820190508181036000830152611adb8184611a88565b905092915050565b600080fd5b600073ffffffffffffffffffffffffffffffffffffffff82169050919050565b6000611b1382611ae8565b9050919050565b611b2381611b08565b8114611b2e57600080fd5b50565b600081359050611b4081611b1a565b92915050565b6000819050919050565b611b5981611b46565b8114611b6457600080fd5b50565b600081359050611b7681611b50565b92915050565b60008060408385031215611b9357611b92611ae3565b5b6000611ba185828601611b31565b9250506020611bb285828601611b67565b9150509250929050565b60008115159050919050565b611bd181611bbc565b82525050565b6000602082019050611bec6000830184611bc8565b92915050565b611bfb81611b46565b82525050565b6000602082019050611c166000830184611bf2565b92915050565b600060208284031215611c3257611c31611ae3565b5b6000611c4084828501611b67565b91505092915050565b600080600060608486031215611c6257611c61611ae3565b5b6000611c7086828701611b31565b9350506020611c8186828701611b31565b9250506040611c9286828701611b67565b9150509250925092565b600060ff82169050919050565b611cb281611c9c565b82525050565b6000602082019050611ccd6000830184611ca9565b92915050565b600060208284031215611ce957611ce8611ae3565b5b6000611cf784828501611b31565b91505092915050565b611d0981611b08565b82525050565b6000602082019050611d246000830184611d00565b92915050565b600080600060608486031215611d4357611d42611ae3565b5b6000611d5186828701611b67565b9350506020611d6286828701611b67565b9250506040611d7386828701611b67565b9150509250925092565b60008060408385031215611d9457611d93611ae3565b5b6000611da285828601611b31565b9250506020611db385828601611b31565b9150509250929050565b6000611dc882611ae8565b9050919050565b611dd881611dbd565b82525050565b600060e082019050611df3600083018a611bf2565b611e006020830189611dcf565b611e0d6040830188611dcf565b611e1a6060830187611bf2565b611e276080830186611bf2565b611e3460a0830185611bf2565b611e4160c0830184611bc8565b98975050505050505050565b7f4e487b7100000000000000000000000000000000000000000000000000000000600052602260045260246000fd5b60006002820490506001821680611e9457607f821691505b602082108103611ea757611ea6611e4d565b5b50919050565b7f416d6f756e74206d7573742062652067726561746572207468616e207a65726f600082015250565b6000611ee3602083611a3c565b9150611eee82611ead565b602082019050919050565b60006020820190508181036000830152611f1281611ed6565b9050919050565b7f496e73756666696369656e7420746f6b656e2062616c616e636520746f20736560008201527f6c6c000000000000000000000000000000000000000000000000000000000000602082015250565b6000611f75602283611a3c565b9150611f8082611f19565b604082019050919050565b60006020820190508181036000830152611fa481611f68565b9050919050565b7f4e487b7100000000000000000000000000000000000000000000000000000000600052601260045260246000fd5b7f4e487b7100000000000000000000000000000000000000000000000000000000600052601160045260246000fd5b600061201482611b46565b915061201f83611b46565b92508261202f5761202e611fab565b5b828204905092915050565b7f496e73756666696369656e74204554482062616c616e636520696e207468652060008201527f636f6e7472616374000000000000000000000000000000000000000000000000602082015250565b6000612096602883611a3c565b91506120a18261203a565b604082019050919050565b600060208201905081810360008301526120c581612089565b9050919050565b7f496e636f7272656374206c6f616e20616d6f756e740000000000000000000000600082015250565b6000612102601583611a3c565b915061210d826120cc565b602082019050919050565b60006020820190508181036000830152612131816120f5565b9050919050565b7f4c6f616e20616c72656164792066756e64656400000000000000000000000000600082015250565b600061216e601383611a3c565b915061217982612138565b602082019050919050565b6000602082019050818103600083015261219d81612161565b9050919050565b7f4c6f616e20616c72656164792072657061696400000000000000000000000000600082015250565b60006121da601383611a3c565b91506121e5826121a4565b602082019050919050565b60006020820190508181036000830152612209816121cd565b9050919050565b7f496e73756666696369656e7420746f6b656e2062616c616e636520666f72206260008201527f6f72726f77696e67000000000000000000000000000000000000000000000000602082015250565b600061226c602883611a3c565b915061227782612210565b604082019050919050565b6000602082019050818103600083015261229b8161225f565b9050919050565b60006122ad82611b46565b91507fffffffffffffffffffffffffffffffffffffffffffffffffffffffffffffffff82036122df576122de611fda565b5b600182019050919050565b7f4e65656420746f2073656e642045544820746f2062757920746f6b656e730000600082015250565b6000612320601e83611a3c565b915061232b826122ea565b602082019050919050565b6000602082019050818103600083015261234f81612313565b9050919050565b600061236182611b46565b915061236c83611b46565b925082820261237a81611b46565b9150828204841483151761239157612390611fda565b5b5092915050565b7f4f6e6c7920626f72726f7765722063616e207265706179000000000000000000600082015250565b60006123ce601783611a3c565b91506123d982612398565b602082019050919050565b600060208201905081810360008301526123fd816123c1565b9050919050565b600061240f82611b46565b915061241a83611b46565b925082820190508082111561243257612431611fda565b5b92915050565b7f496e636f72726563742072657061796d656e7420616d6f756e74000000000000600082015250565b600061246e601a83611a3c565b915061247982612438565b602082019050919050565b6000602082019050818103600083015261249d81612461565b9050919050565b60006060820190506124b96000830186611d00565b6124c66020830185611bf2565b6124d36040830184611bf2565b94935050505056fea26469706673582212204b1fb415e3b89023d1cd2d0533db51482814594916a7b5a7244a64c81c0848ce64736f6c63430008180033",
  "linkReferences": {},
  "deployedLinkReferences": {}
}