{
  "_format": "hh-sol-artifact-1",
  "contractName": "CryptoLendsToken",
  "sourceName": "contracts/CryptoLendsToken.sol",
  "abi": [
    {
      "inputs": [
        {
          "internalType": "address",
          "name": "initialOwner",
          "type": "address"
        }
      ],
      "stateMutability": "nonpayable",
      "type": "constructor"
    },
    {
      "inputs": [
        {
          "internalType": "address",
          "name": "spender",
          "type": "address"
        },
        {
          "internalType": "uint256",
          "name": "allowance",
          "type": "uint256"
        },
        {
          "internalType": "uint256",
          "name": "needed",
          "type": "uint256"
        }
      ],
      "name": "ERC20InsufficientAllowance",
      "type": "error"
    },
    {
      "inputs": [
        {
          "internalType": "address",
          "name": "sender",
          "type": "address"
        },
        {
          "internalType": "uint256",
          "name": "balance",
          "type": "uint256"
        },
        {
          "internalType": "uint256",
          "name": "needed",
          "type": "uint256"
        }
      ],
      "name": "ERC20InsufficientBalance",
      "type": "error"
    },
    {
      "inputs": [
        {
          "internalType": "address",
          "name": "approver",
          "type": "address"
        }
      ],
      "name": "ERC20InvalidApprover",
      "type": "error"
    },
    {
      "inputs": [
        {
          "internalType": "address",
          "name": "receiver",
          "type": "address"
        }
      ],
      "name": "ERC20InvalidReceiver",
      "type": "error"
    },
    {
      "inputs": [
        {
          "internalType": "address",
          "name": "sender",
          "type": "address"
        }
      ],
      "name": "ERC20InvalidSender",
      "type": "error"
    },
    {
      "inputs": [
        {
          "internalType": "address",
          "name": "spender",
          "type": "address"
        }
      ],
      "name": "ERC20InvalidSpender",
      "type": "error"
    },
    {
      "inputs": [],
      "name": "EnforcedPause",
      "type": "error"
    },
    {
      "inputs": [],
      "name": "ExpectedPause",
      "type": "error"
    },
    {
      "inputs": [
        {
          "internalType": "address",
          "name": "owner",
          "type": "address"
        }
      ],
      "name": "OwnableInvalidOwner",
      "type": "error"
    },
    {
      "inputs": [
        {
          "internalType": "address",
          "name": "account",
          "type": "address"
        }
      ],
      "name": "OwnableUnauthorizedAccount",
      "type": "error"
    },
    {
      "anonymous": false,
      "inputs": [
        {
          "indexed": true,
          "internalType": "address",
          "name": "owner",
          "type": "address"
        },
        {
          "indexed": true,
          "internalType": "address",
          "name": "spender",
          "type": "address"
        },
        {
          "indexed": false,
          "internalType": "uint256",
          "name": "value",
          "type": "uint256"
        }
      ],
      "name": "Approval",
      "type": "event"
    },
    {
      "anonymous": false,
      "inputs": [
        {
          "indexed": true,
          "internalType": "address",
          "name": "previousOwner",
          "type": "address"
        },
        {
          "indexed": true,
          "internalType": "address",
          "name": "newOwner",
          "type": "address"
        }
      ],
      "name": "OwnershipTransferred",
      "type": "event"
    },
    {
      "anonymous": false,
      "inputs": [
        {
          "indexed": false,
          "internalType": "address",
          "name": "account",
          "type": "address"
        }
      ],
      "name": "Paused",
      "type": "event"
    },
    {
      "anonymous": false,
      "inputs": [
        {
          "indexed": true,
          "internalType": "address",
          "name": "from",
          "type": "address"
        },
        {
          "indexed": true,
          "internalType": "address",
          "name": "to",
          "type": "address"
        },
        {
          "indexed": false,
          "internalType": "uint256",
          "name": "value",
          "type": "uint256"
        }
      ],
      "name": "Transfer",
      "type": "event"
    },
    {
      "anonymous": false,
      "inputs": [
        {
          "indexed": false,
          "internalType": "address",
          "name": "account",
          "type": "address"
        }
      ],
      "name": "Unpaused",
      "type": "event"
    },
    {
      "inputs": [
        {
          "internalType": "address",
          "name": "owner",
          "type": "address"
        },
        {
          "internalType": "address",
          "name": "spender",
          "type": "address"
        }
      ],
      "name": "allowance",
      "outputs": [
        {
          "internalType": "uint256",
          "name": "",
          "type": "uint256"
        }
      ],
      "stateMutability": "view",
      "type": "function"
    },
    {
      "inputs": [
        {
          "internalType": "address",
          "name": "spender",
          "type": "address"
        },
        {
          "internalType": "uint256",
          "name": "value",
          "type": "uint256"
        }
      ],
      "name": "approve",
      "outputs": [
        {
          "internalType": "bool",
          "name": "",
          "type": "bool"
        }
      ],
      "stateMutability": "nonpayable",
      "type": "function"
    },
    {
      "inputs": [
        {
          "internalType": "address",
          "name": "account",
          "type": "address"
        }
      ],
      "name": "balanceOf",
      "outputs": [
        {
          "internalType": "uint256",
          "name": "",
          "type": "uint256"
        }
      ],
      "stateMutability": "view",
      "type": "function"
    },
    {
      "inputs": [
        {
          "internalType": "uint256",
          "name": "_amount",
          "type": "uint256"
        },
        {
          "internalType": "uint256",
          "name": "_interest",
          "type": "uint256"
        },
        {
          "internalType": "uint256",
          "name": "_duration",
          "type": "uint256"
        }
      ],
      "name": "borrowToken",
      "outputs": [],
      "stateMutability": "nonpayable",
      "type": "function"
    },
    {
      "inputs": [],
      "name": "buyToken",
      "outputs": [],
      "stateMutability": "payable",
      "type": "function"
    },
    {
      "inputs": [],
      "name": "decimals",
      "outputs": [
        {
          "internalType": "uint8",
          "name": "",
          "type": "uint8"
        }
      ],
      "stateMutability": "view",
      "type": "function"
    },
    {
      "inputs": [
        {
          "internalType": "uint256",
          "name": "",
          "type": "uint256"
        }
      ],
      "name": "loans",
      "outputs": [
        {
          "internalType": "uint256",
          "name": "id",
          "type": "uint256"
        },
        {
          "internalType": "address payable",
          "name": "borrower",
          "type": "address"
        },
        {
          "internalType": "address payable",
          "name": "lender",
          "type": "address"
        },
        {
          "internalType": "uint256",
          "name": "amount",
          "type": "uint256"
        },
        {
          "internalType": "uint256",
          "name": "interest",
          "type": "uint256"
        },
        {
          "internalType": "uint256",
          "name": "duration",
          "type": "uint256"
        },
        {
          "internalType": "bool",
          "name": "repaid",
          "type": "bool"
        }
      ],
      "stateMutability": "view",
      "type": "function"
    },
    {
      "inputs": [
        {
          "internalType": "address",
          "name": "to",
          "type": "address"
        },
        {
          "internalType": "uint256",
          "name": "amount",
          "type": "uint256"
        }
      ],
      "name": "mint",
      "outputs": [],
      "stateMutability": "nonpayable",
      "type": "function"
    },
    {
      "inputs": [],
      "name": "name",
      "outputs": [
        {
          "internalType": "string",
          "name": "",
          "type": "string"
        }
      ],
      "stateMutability": "view",
      "type": "function"
    },
    {
      "inputs": [],
      "name": "nextLoanId",
      "outputs": [
        {
          "internalType": "uint256",
          "name": "",
          "type": "uint256"
        }
      ],
      "stateMutability": "view",
      "type": "function"
    },
    {
      "inputs": [],
      "name": "owner",
      "outputs": [
        {
          "internalType": "address",
          "name": "",
          "type": "address"
        }
      ],
      "stateMutability": "view",
      "type": "function"
    },
    {
      "inputs": [],
      "name": "pause",
      "outputs": [],
      "stateMutability": "nonpayable",
      "type": "function"
    },
    {
      "inputs": [],
      "name": "paused",
      "outputs": [
        {
          "internalType": "bool",
          "name": "",
          "type": "bool"
        }
      ],
      "stateMutability": "view",
      "type": "function"
    },
    {
      "inputs": [],
      "name": "renounceOwnership",
      "outputs": [],
      "stateMutability": "nonpayable",
      "type": "function"
    },
    {
      "inputs": [
        {
          "internalType": "uint256",
          "name": "_loanId",
          "type": "uint256"
        }
      ],
      "name": "repayLoan",
      "outputs": [],
      "stateMutability": "payable",
      "type": "function"
    },
    {
      "inputs": [
        {
          "internalType": "uint256",
          "name": "amount",
          "type": "uint256"
        }
      ],
      "name": "sellToken",
      "outputs": [],
      "stateMutability": "nonpayable",
      "type": "function"
    },
    {
      "inputs": [],
      "name": "symbol",
      "outputs": [
        {
          "internalType": "string",
          "name": "",
          "type": "string"
        }
      ],
      "stateMutability": "view",
      "type": "function"
    },
    {
      "inputs": [],
      "name": "totalSupply",
      "outputs": [
        {
          "internalType": "uint256",
          "name": "",
          "type": "uint256"
        }
      ],
      "stateMutability": "view",
      "type": "function"
    },
    {
      "inputs": [
        {
          "internalType": "address",
          "name": "to",
          "type": "address"
        },
        {
          "internalType": "uint256",
          "name": "value",
          "type": "uint256"
        }
      ],
      "name": "transfer",
      "outputs": [
        {
          "internalType": "bool",
          "name": "",
          "type": "bool"
        }
      ],
      "stateMutability": "nonpayable",
      "type": "function"
    },
    {
      "inputs": [
        {
          "internalType": "address",
          "name": "from",
          "type": "address"
        },
        {
          "internalType": "address",
          "name": "to",
          "type": "address"
        },
        {
          "internalType": "uint256",
          "name": "value",
          "type": "uint256"
        }
      ],
      "name": "transferFrom",
      "outputs": [
        {
          "internalType": "bool",
          "name": "",
          "type": "bool"
        }
      ],
      "stateMutability": "nonpayable",
      "type": "function"
    },
    {
      "inputs": [
        {
          "internalType": "address",
          "name": "newOwner",
          "type": "address"
        }
      ],
      "name": "transferOwnership",
      "outputs": [],
      "stateMutability": "nonpayable",
      "type": "function"
    },
    {
      "inputs": [],
      "name": "unpause",
      "outputs": [],
      "stateMutability": "nonpayable",
      "type": "function"
    },
    {
      "inputs": [],
      "name": "withdraw",
      "outputs": [],
      "stateMutability": "nonpayable",
      "type": "function"
    }
  ],
  "bytecode": "0x60806040523480156200001157600080fd5b5060405162002cd538038062002cd58339818101604052810190620000379190620005a8565b806040518060400160405280601081526020017f43727970746f4c656e6473546f6b656e000000000000000000000000000000008152506040518060400160405280600381526020017f434c5400000000000000000000000000000000000000000000000000000000008152508160039081620000b5919062000854565b508060049081620000c7919062000854565b505050600073ffffffffffffffffffffffffffffffffffffffff168173ffffffffffffffffffffffffffffffffffffffff16036200013f5760006040517f1e4fbdf70000000000000000000000000000000000000000000000000000000081526004016200013691906200094c565b60405180910390fd5b6200015081620001b260201b60201c565b506000600560146101000a81548160ff021916908315150217905550620001ab81620001816200027860201b60201c565b600a6200018f919062000af9565b620f42406200019f919062000b4a565b6200028160201b60201c565b5062000c3b565b6000600560009054906101000a900473ffffffffffffffffffffffffffffffffffffffff16905081600560006101000a81548173ffffffffffffffffffffffffffffffffffffffff021916908373ffffffffffffffffffffffffffffffffffffffff1602179055508173ffffffffffffffffffffffffffffffffffffffff168173ffffffffffffffffffffffffffffffffffffffff167f8be0079c531659141344cd1fd0a4f28419497f9722a3daafe3b4186f6b6457e060405160405180910390a35050565b60006012905090565b600073ffffffffffffffffffffffffffffffffffffffff168273ffffffffffffffffffffffffffffffffffffffff1603620002f65760006040517fec442f05000000000000000000000000000000000000000000000000000000008152600401620002ed91906200094c565b60405180910390fd5b6200030a600083836200030e60201b60201c565b5050565b600073ffffffffffffffffffffffffffffffffffffffff168373ffffffffffffffffffffffffffffffffffffffff16036200036457806002600082825462000357919062000b95565b925050819055506200043a565b60008060008573ffffffffffffffffffffffffffffffffffffffff1673ffffffffffffffffffffffffffffffffffffffff16815260200190815260200160002054905081811015620003f3578381836040517fe450d38c000000000000000000000000000000000000000000000000000000008152600401620003ea9392919062000be1565b60405180910390fd5b8181036000808673ffffffffffffffffffffffffffffffffffffffff1673ffffffffffffffffffffffffffffffffffffffff16815260200190815260200160002081905550505b600073ffffffffffffffffffffffffffffffffffffffff168273ffffffffffffffffffffffffffffffffffffffff1603620004855780600260008282540392505081905550620004d2565b806000808473ffffffffffffffffffffffffffffffffffffffff1673ffffffffffffffffffffffffffffffffffffffff168152602001908152602001600020600082825401925050819055505b8173ffffffffffffffffffffffffffffffffffffffff168373ffffffffffffffffffffffffffffffffffffffff167fddf252ad1be2c89b69c2b068fc378daa952ba7f163c4a11628f55a4df523b3ef8360405162000531919062000c1e565b60405180910390a3505050565b600080fd5b600073ffffffffffffffffffffffffffffffffffffffff82169050919050565b6000620005708262000543565b9050919050565b620005828162000563565b81146200058e57600080fd5b50565b600081519050620005a28162000577565b92915050565b600060208284031215620005c157620005c06200053e565b5b6000620005d18482850162000591565b91505092915050565b600081519050919050565b7f4e487b7100000000000000000000000000000000000000000000000000000000600052604160045260246000fd5b7f4e487b7100000000000000000000000000000000000000000000000000000000600052602260045260246000fd5b600060028204905060018216806200065c57607f821691505b60208210810362000672576200067162000614565b5b50919050565b60008190508160005260206000209050919050565b60006020601f8301049050919050565b600082821b905092915050565b600060088302620006dc7fffffffffffffffffffffffffffffffffffffffffffffffffffffffffffffffff826200069d565b620006e886836200069d565b95508019841693508086168417925050509392505050565b6000819050919050565b6000819050919050565b6000620007356200072f620007298462000700565b6200070a565b62000700565b9050919050565b6000819050919050565b620007518362000714565b6200076962000760826200073c565b848454620006aa565b825550505050565b600090565b6200078062000771565b6200078d81848462000746565b505050565b5b81811015620007b557620007a960008262000776565b60018101905062000793565b5050565b601f8211156200080457620007ce8162000678565b620007d9846200068d565b81016020851015620007e9578190505b62000801620007f8856200068d565b83018262000792565b50505b505050565b600082821c905092915050565b6000620008296000198460080262000809565b1980831691505092915050565b600062000844838362000816565b9150826002028217905092915050565b6200085f82620005da565b67ffffffffffffffff8111156200087b576200087a620005e5565b5b62000887825462000643565b62000894828285620007b9565b600060209050601f831160018114620008cc5760008415620008b7578287015190505b620008c3858262000836565b86555062000933565b601f198416620008dc8662000678565b60005b828110156200090657848901518255600182019150602085019450602081019050620008df565b8683101562000926578489015162000922601f89168262000816565b8355505b6001600288020188555050505b505050505050565b620009468162000563565b82525050565b60006020820190506200096360008301846200093b565b92915050565b7f4e487b7100000000000000000000000000000000000000000000000000000000600052601160045260246000fd5b60008160011c9050919050565b6000808291508390505b6001851115620009f757808604811115620009cf57620009ce62000969565b5b6001851615620009df5780820291505b8081029050620009ef8562000998565b9450620009af565b94509492505050565b60008262000a12576001905062000ae5565b8162000a22576000905062000ae5565b816001811462000a3b576002811462000a465762000a7c565b600191505062000ae5565b60ff84111562000a5b5762000a5a62000969565b5b8360020a91508482111562000a755762000a7462000969565b5b5062000ae5565b5060208310610133831016604e8410600b841016171562000ab65782820a90508381111562000ab05762000aaf62000969565b5b62000ae5565b62000ac58484846001620009a5565b9250905081840481111562000adf5762000ade62000969565b5b81810290505b9392505050565b600060ff82169050919050565b600062000b068262000700565b915062000b138362000aec565b925062000b427fffffffffffffffffffffffffffffffffffffffffffffffffffffffffffffffff848462000a00565b905092915050565b600062000b578262000700565b915062000b648362000700565b925082820262000b748162000700565b9150828204841483151762000b8e5762000b8d62000969565b5b5092915050565b600062000ba28262000700565b915062000baf8362000700565b925082820190508082111562000bca5762000bc962000969565b5b92915050565b62000bdb8162000700565b82525050565b600060608201905062000bf860008301866200093b565b62000c07602083018562000bd0565b62000c16604083018462000bd0565b949350505050565b600060208201905062000c35600083018462000bd0565b92915050565b61208a8062000c4b6000396000f3fe6080604052600436106101405760003560e01c8063715018a6116100b6578063a48217191161006f578063a482171914610400578063a9059cbb1461040a578063ab7b1c8914610447578063dd62ed3e14610463578063e1ec3c68146104a0578063f2fde38b146104e357610140565b8063715018a6146103285780638456cb591461033f57806387c51459146103565780638da5cb5b1461038157806395d89b41146103ac57806397a41b8e146103d757610140565b8063313ce56711610108578063313ce5671461023e5780633ccfd60b146102695780633f4ba83a1461028057806340c10f19146102975780635c975abb146102c057806370a08231146102eb57610140565b806306fdde0314610145578063095ea7b31461017057806318160ddd146101ad5780632397e4d7146101d857806323b872dd14610201575b600080fd5b34801561015157600080fd5b5061015a61050c565b6040516101679190611810565b60405180910390f35b34801561017c57600080fd5b50610197600480360381019061019291906118cb565b61059e565b6040516101a49190611926565b60405180910390f35b3480156101b957600080fd5b506101c26105c1565b6040516101cf9190611950565b60405180910390f35b3480156101e457600080fd5b506101ff60048036038101906101fa919061196b565b6105cb565b005b34801561020d57600080fd5b5061022860048036038101906102239190611998565b610684565b6040516102359190611926565b60405180910390f35b34801561024a57600080fd5b506102536106b3565b6040516102609190611a07565b60405180910390f35b34801561027557600080fd5b5061027e6106bc565b005b34801561028c57600080fd5b50610295610714565b005b3480156102a357600080fd5b506102be60048036038101906102b991906118cb565b610726565b005b3480156102cc57600080fd5b506102d561073c565b6040516102e29190611926565b60405180910390f35b3480156102f757600080fd5b50610312600480360381019061030d9190611a22565b610753565b60405161031f9190611950565b60405180910390f35b34801561033457600080fd5b5061033d61079b565b005b34801561034b57600080fd5b506103546107af565b005b34801561036257600080fd5b5061036b6107c1565b6040516103789190611950565b60405180910390f35b34801561038d57600080fd5b506103966107c7565b6040516103a39190611a5e565b60405180910390f35b3480156103b857600080fd5b506103c16107f1565b6040516103ce9190611810565b60405180910390f35b3480156103e357600080fd5b506103fe60048036038101906103f99190611a79565b610883565b005b610408610a3e565b005b34801561041657600080fd5b50610431600480360381019061042c91906118cb565b610aa7565b60405161043e9190611926565b60405180910390f35b610461600480360381019061045c919061196b565b610aca565b005b34801561046f57600080fd5b5061048a60048036038101906104859190611acc565b610cae565b6040516104979190611950565b60405180910390f35b3480156104ac57600080fd5b506104c760048036038101906104c2919061196b565b610d35565b6040516104da9796959493929190611b2d565b60405180910390f35b3480156104ef57600080fd5b5061050a60048036038101906105059190611a22565b610dc4565b005b60606003805461051b90611bcb565b80601f016020809104026020016040519081016040528092919081815260200182805461054790611bcb565b80156105945780601f1061056957610100808354040283529160200191610594565b820191906000526020600020905b81548152906001019060200180831161057757829003601f168201915b5050505050905090565b6000806105a9610e4a565b90506105b6818585610e52565b600191505092915050565b6000600254905090565b6105d3610e64565b806105dd33610753565b101561061e576040517f08c379a000000000000000000000000000000000000000000000000000000000815260040161061590611c6e565b60405180910390fd5b600060648261062d9190611cec565b90506106393383610ea5565b3373ffffffffffffffffffffffffffffffffffffffff166108fc829081150290604051600060405180830381858888f1935050505015801561067f573d6000803e3d6000fd5b505050565b60008061068f610e4a565b905061069c858285610f27565b6106a7858585610fbb565b60019150509392505050565b60006012905090565b6106c46110af565b6106cc6107c7565b73ffffffffffffffffffffffffffffffffffffffff166108fc479081150290604051600060405180830381858888f19350505050158015610711573d6000803e3d6000fd5b50565b61071c6110af565b610724611136565b565b61072e6110af565b6107388282611199565b5050565b6000600560149054906101000a900460ff16905090565b60008060008373ffffffffffffffffffffffffffffffffffffffff1673ffffffffffffffffffffffffffffffffffffffff168152602001908152602001600020549050919050565b6107a36110af565b6107ad600061121b565b565b6107b76110af565b6107bf6112e1565b565b60065481565b6000600560009054906101000a900473ffffffffffffffffffffffffffffffffffffffff16905090565b60606004805461080090611bcb565b80601f016020809104026020016040519081016040528092919081815260200182805461082c90611bcb565b80156108795780601f1061084e57610100808354040283529160200191610879565b820191906000526020600020905b81548152906001019060200180831161085c57829003601f168201915b5050505050905090565b8261088d33610753565b10156108ce576040517f08c379a00000000000000000000000000000000000000000000000000000000081526004016108c590611d8f565b60405180910390fd5b6040518060e0016040528060065481526020013373ffffffffffffffffffffffffffffffffffffffff168152602001600073ffffffffffffffffffffffffffffffffffffffff168152602001848152602001838152602001828152602001600015158152506007600060065481526020019081526020016000206000820151816000015560208201518160010160006101000a81548173ffffffffffffffffffffffffffffffffffffffff021916908373ffffffffffffffffffffffffffffffffffffffff16021790555060408201518160020160006101000a81548173ffffffffffffffffffffffffffffffffffffffff021916908373ffffffffffffffffffffffffffffffffffffffff160217905550606082015181600301556080820151816004015560a0820151816005015560c08201518160060160006101000a81548160ff02191690831515021790555090505060066000815480929190610a3490611daf565b9190505550505050565b610a46610e64565b60003411610a89576040517f08c379a0000000000000000000000000000000000000000000000000000000008152600401610a8090611e43565b60405180910390fd5b6000606434610a989190611e63565b9050610aa43382611199565b50565b600080610ab2610e4a565b9050610abf818585610fbb565b600191505092915050565b610ad2610e64565b60006007600083815260200190815260200160002090508060010160009054906101000a900473ffffffffffffffffffffffffffffffffffffffff1673ffffffffffffffffffffffffffffffffffffffff163373ffffffffffffffffffffffffffffffffffffffff1614610b7b576040517f08c379a0000000000000000000000000000000000000000000000000000000008152600401610b7290611ef1565b60405180910390fd5b8060060160009054906101000a900460ff1615610bcd576040517f08c379a0000000000000000000000000000000000000000000000000000000008152600401610bc490611f5d565b60405180910390fd5b80600401548160030154610be19190611f7d565b3414610c22576040517f08c379a0000000000000000000000000000000000000000000000000000000008152600401610c1990611ffd565b60405180910390fd5b8060020160009054906101000a900473ffffffffffffffffffffffffffffffffffffffff1673ffffffffffffffffffffffffffffffffffffffff166108fc349081150290604051600060405180830381858888f19350505050158015610c8c573d6000803e3d6000fd5b5060018160060160006101000a81548160ff0219169083151502179055505050565b6000600160008473ffffffffffffffffffffffffffffffffffffffff1673ffffffffffffffffffffffffffffffffffffffff16815260200190815260200160002060008373ffffffffffffffffffffffffffffffffffffffff1673ffffffffffffffffffffffffffffffffffffffff16815260200190815260200160002054905092915050565b60076020528060005260406000206000915090508060000154908060010160009054906101000a900473ffffffffffffffffffffffffffffffffffffffff16908060020160009054906101000a900473ffffffffffffffffffffffffffffffffffffffff16908060030154908060040154908060050154908060060160009054906101000a900460ff16905087565b610dcc6110af565b600073ffffffffffffffffffffffffffffffffffffffff168173ffffffffffffffffffffffffffffffffffffffff1603610e3e5760006040517f1e4fbdf7000000000000000000000000000000000000000000000000000000008152600401610e359190611a5e565b60405180910390fd5b610e478161121b565b50565b600033905090565b610e5f8383836001611344565b505050565b610e6c61073c565b15610ea3576040517fd93c066500000000000000000000000000000000000000000000000000000000815260040160405180910390fd5b565b600073ffffffffffffffffffffffffffffffffffffffff168273ffffffffffffffffffffffffffffffffffffffff1603610f175760006040517f96c6fd1e000000000000000000000000000000000000000000000000000000008152600401610f0e9190611a5e565b60405180910390fd5b610f238260008361151b565b5050565b6000610f338484610cae565b90507fffffffffffffffffffffffffffffffffffffffffffffffffffffffffffffffff8114610fb55781811015610fa5578281836040517ffb8f41b2000000000000000000000000000000000000000000000000000000008152600401610f9c9392919061201d565b60405180910390fd5b610fb484848484036000611344565b5b50505050565b600073ffffffffffffffffffffffffffffffffffffffff168373ffffffffffffffffffffffffffffffffffffffff160361102d5760006040517f96c6fd1e0000000000000000000000000000000000000000000000000000000081526004016110249190611a5e565b60405180910390fd5b600073ffffffffffffffffffffffffffffffffffffffff168273ffffffffffffffffffffffffffffffffffffffff160361109f5760006040517fec442f050000000000000000000000000000000000000000000000000000000081526004016110969190611a5e565b60405180910390fd5b6110aa83838361151b565b505050565b6110b7610e4a565b73ffffffffffffffffffffffffffffffffffffffff166110d56107c7565b73ffffffffffffffffffffffffffffffffffffffff1614611134576110f8610e4a565b6040517f118cdaa700000000000000000000000000000000000000000000000000000000815260040161112b9190611a5e565b60405180910390fd5b565b61113e611740565b6000600560146101000a81548160ff0219169083151502179055507f5db9ee0a495bf2e6ff9c91a7834c1ba4fdd244a5e8aa4e537bd38aeae4b073aa611182610e4a565b60405161118f9190611a5e565b60405180910390a1565b600073ffffffffffffffffffffffffffffffffffffffff168273ffffffffffffffffffffffffffffffffffffffff160361120b5760006040517fec442f050000000000000000000000000000000000000000000000000000000081526004016112029190611a5e565b60405180910390fd5b6112176000838361151b565b5050565b6000600560009054906101000a900473ffffffffffffffffffffffffffffffffffffffff16905081600560006101000a81548173ffffffffffffffffffffffffffffffffffffffff021916908373ffffffffffffffffffffffffffffffffffffffff1602179055508173ffffffffffffffffffffffffffffffffffffffff168173ffffffffffffffffffffffffffffffffffffffff167f8be0079c531659141344cd1fd0a4f28419497f9722a3daafe3b4186f6b6457e060405160405180910390a35050565b6112e9610e64565b6001600560146101000a81548160ff0219169083151502179055507f62e78cea01bee320cd4e420270b5ea74000d11b0c9f74754ebdbfc544b05a25861132d610e4a565b60405161133a9190611a5e565b60405180910390a1565b600073ffffffffffffffffffffffffffffffffffffffff168473ffffffffffffffffffffffffffffffffffffffff16036113b65760006040517fe602df050000000000000000000000000000000000000000000000000000000081526004016113ad9190611a5e565b60405180910390fd5b600073ffffffffffffffffffffffffffffffffffffffff168373ffffffffffffffffffffffffffffffffffffffff16036114285760006040517f94280d6200000000000000000000000000000000000000000000000000000000815260040161141f9190611a5e565b60405180910390fd5b81600160008673ffffffffffffffffffffffffffffffffffffffff1673ffffffffffffffffffffffffffffffffffffffff16815260200190815260200160002060008573ffffffffffffffffffffffffffffffffffffffff1673ffffffffffffffffffffffffffffffffffffffff168152602001908152602001600020819055508015611515578273ffffffffffffffffffffffffffffffffffffffff168473ffffffffffffffffffffffffffffffffffffffff167f8c5be1e5ebec7d5bd14f71427d1e84f3dd0314c0f7b2291e5b200ac8c7c3b9258460405161150c9190611950565b60405180910390a35b50505050565b600073ffffffffffffffffffffffffffffffffffffffff168373ffffffffffffffffffffffffffffffffffffffff160361156d5780600260008282546115619190611f7d565b92505081905550611640565b60008060008573ffffffffffffffffffffffffffffffffffffffff1673ffffffffffffffffffffffffffffffffffffffff168152602001908152602001600020549050818110156115f9578381836040517fe450d38c0000000000000000000000000000000000000000000000000000000081526004016115f09392919061201d565b60405180910390fd5b8181036000808673ffffffffffffffffffffffffffffffffffffffff1673ffffffffffffffffffffffffffffffffffffffff16815260200190815260200160002081905550505b600073ffffffffffffffffffffffffffffffffffffffff168273ffffffffffffffffffffffffffffffffffffffff160361168957806002600082825403925050819055506116d6565b806000808473ffffffffffffffffffffffffffffffffffffffff1673ffffffffffffffffffffffffffffffffffffffff168152602001908152602001600020600082825401925050819055505b8173ffffffffffffffffffffffffffffffffffffffff168373ffffffffffffffffffffffffffffffffffffffff167fddf252ad1be2c89b69c2b068fc378daa952ba7f163c4a11628f55a4df523b3ef836040516117339190611950565b60405180910390a3505050565b61174861073c565b61177e576040517f8dfc202b00000000000000000000000000000000000000000000000000000000815260040160405180910390fd5b565b600081519050919050565b600082825260208201905092915050565b60005b838110156117ba57808201518184015260208101905061179f565b60008484015250505050565b6000601f19601f8301169050919050565b60006117e282611780565b6117ec818561178b565b93506117fc81856020860161179c565b611805816117c6565b840191505092915050565b6000602082019050818103600083015261182a81846117d7565b905092915050565b600080fd5b600073ffffffffffffffffffffffffffffffffffffffff82169050919050565b600061186282611837565b9050919050565b61187281611857565b811461187d57600080fd5b50565b60008135905061188f81611869565b92915050565b6000819050919050565b6118a881611895565b81146118b357600080fd5b50565b6000813590506118c58161189f565b92915050565b600080604083850312156118e2576118e1611832565b5b60006118f085828601611880565b9250506020611901858286016118b6565b9150509250929050565b60008115159050919050565b6119208161190b565b82525050565b600060208201905061193b6000830184611917565b92915050565b61194a81611895565b82525050565b60006020820190506119656000830184611941565b92915050565b60006020828403121561198157611980611832565b5b600061198f848285016118b6565b91505092915050565b6000806000606084860312156119b1576119b0611832565b5b60006119bf86828701611880565b93505060206119d086828701611880565b92505060406119e1868287016118b6565b9150509250925092565b600060ff82169050919050565b611a01816119eb565b82525050565b6000602082019050611a1c60008301846119f8565b92915050565b600060208284031215611a3857611a37611832565b5b6000611a4684828501611880565b91505092915050565b611a5881611857565b82525050565b6000602082019050611a736000830184611a4f565b92915050565b600080600060608486031215611a9257611a91611832565b5b6000611aa0868287016118b6565b9350506020611ab1868287016118b6565b9250506040611ac2868287016118b6565b9150509250925092565b60008060408385031215611ae357611ae2611832565b5b6000611af185828601611880565b9250506020611b0285828601611880565b9150509250929050565b6000611b1782611837565b9050919050565b611b2781611b0c565b82525050565b600060e082019050611b42600083018a611941565b611b4f6020830189611b1e565b611b5c6040830188611b1e565b611b696060830187611941565b611b766080830186611941565b611b8360a0830185611941565b611b9060c0830184611917565b98975050505050505050565b7f4e487b7100000000000000000000000000000000000000000000000000000000600052602260045260246000fd5b60006002820490506001821680611be357607f821691505b602082108103611bf657611bf5611b9c565b5b50919050565b7f496e73756666696369656e7420746f6b656e2062616c616e636520746f20736560008201527f6c6c000000000000000000000000000000000000000000000000000000000000602082015250565b6000611c5860228361178b565b9150611c6382611bfc565b604082019050919050565b60006020820190508181036000830152611c8781611c4b565b9050919050565b7f4e487b7100000000000000000000000000000000000000000000000000000000600052601260045260246000fd5b7f4e487b7100000000000000000000000000000000000000000000000000000000600052601160045260246000fd5b6000611cf782611895565b9150611d0283611895565b925082611d1257611d11611c8e565b5b828204905092915050565b7f496e73756666696369656e7420746f6b656e2062616c616e636520666f72206260008201527f6f72726f77696e67000000000000000000000000000000000000000000000000602082015250565b6000611d7960288361178b565b9150611d8482611d1d565b604082019050919050565b60006020820190508181036000830152611da881611d6c565b9050919050565b6000611dba82611895565b91507fffffffffffffffffffffffffffffffffffffffffffffffffffffffffffffffff8203611dec57611deb611cbd565b5b600182019050919050565b7f4e65656420746f2073656e642045544820746f2062757920746f6b656e730000600082015250565b6000611e2d601e8361178b565b9150611e3882611df7565b602082019050919050565b60006020820190508181036000830152611e5c81611e20565b9050919050565b6000611e6e82611895565b9150611e7983611895565b9250828202611e8781611895565b91508282048414831517611e9e57611e9d611cbd565b5b5092915050565b7f4f6e6c7920626f72726f7765722063616e207265706179000000000000000000600082015250565b6000611edb60178361178b565b9150611ee682611ea5565b602082019050919050565b60006020820190508181036000830152611f0a81611ece565b9050919050565b7f4c6f616e20616c72656164792072657061696400000000000000000000000000600082015250565b6000611f4760138361178b565b9150611f5282611f11565b602082019050919050565b60006020820190508181036000830152611f7681611f3a565b9050919050565b6000611f8882611895565b9150611f9383611895565b9250828201905080821115611fab57611faa611cbd565b5b92915050565b7f496e636f72726563742072657061796d656e7420616d6f756e74000000000000600082015250565b6000611fe7601a8361178b565b9150611ff282611fb1565b602082019050919050565b6000602082019050818103600083015261201681611fda565b9050919050565b60006060820190506120326000830186611a4f565b61203f6020830185611941565b61204c6040830184611941565b94935050505056fea26469706673582212207756ca37c717615428b77291d459e766ebbb6f7a400d1eae21172b30a737493664736f6c63430008180033",
  "linkReferences": {},
  "deployedLinkReferences": {}
}