{
  "_format": "hh-sol-artifact-1",
  "contractName": "CryptoLendsToken",
  "sourceName": "contracts/CryptoLendsToken.sol",
  "abi": [
    {
      "inputs": [
        {
          "internalType": "address",
          "name": "initialOwner",
          "type": "address"
        }
      ],
      "stateMutability": "nonpayable",
      "type": "constructor"
    },
    {
      "inputs": [
        {
          "internalType": "address",
          "name": "spender",
          "type": "address"
        },
        {
          "internalType": "uint256",
          "name": "allowance",
          "type": "uint256"
        },
        {
          "internalType": "uint256",
          "name": "needed",
          "type": "uint256"
        }
      ],
      "name": "ERC20InsufficientAllowance",
      "type": "error"
    },
    {
      "inputs": [
        {
          "internalType": "address",
          "name": "sender",
          "type": "address"
        },
        {
          "internalType": "uint256",
          "name": "balance",
          "type": "uint256"
        },
        {
          "internalType": "uint256",
          "name": "needed",
          "type": "uint256"
        }
      ],
      "name": "ERC20InsufficientBalance",
      "type": "error"
    },
    {
      "inputs": [
        {
          "internalType": "address",
          "name": "approver",
          "type": "address"
        }
      ],
      "name": "ERC20InvalidApprover",
      "type": "error"
    },
    {
      "inputs": [
        {
          "internalType": "address",
          "name": "receiver",
          "type": "address"
        }
      ],
      "name": "ERC20InvalidReceiver",
      "type": "error"
    },
    {
      "inputs": [
        {
          "internalType": "address",
          "name": "sender",
          "type": "address"
        }
      ],
      "name": "ERC20InvalidSender",
      "type": "error"
    },
    {
      "inputs": [
        {
          "internalType": "address",
          "name": "spender",
          "type": "address"
        }
      ],
      "name": "ERC20InvalidSpender",
      "type": "error"
    },
    {
      "inputs": [],
      "name": "EnforcedPause",
      "type": "error"
    },
    {
      "inputs": [],
      "name": "ExpectedPause",
      "type": "error"
    },
    {
      "inputs": [
        {
          "internalType": "address",
          "name": "owner",
          "type": "address"
        }
      ],
      "name": "OwnableInvalidOwner",
      "type": "error"
    },
    {
      "inputs": [
        {
          "internalType": "address",
          "name": "account",
          "type": "address"
        }
      ],
      "name": "OwnableUnauthorizedAccount",
      "type": "error"
    },
    {
      "anonymous": false,
      "inputs": [
        {
          "indexed": true,
          "internalType": "address",
          "name": "owner",
          "type": "address"
        },
        {
          "indexed": true,
          "internalType": "address",
          "name": "spender",
          "type": "address"
        },
        {
          "indexed": false,
          "internalType": "uint256",
          "name": "value",
          "type": "uint256"
        }
      ],
      "name": "Approval",
      "type": "event"
    },
    {
      "anonymous": false,
      "inputs": [
        {
          "indexed": true,
          "internalType": "address",
          "name": "previousOwner",
          "type": "address"
        },
        {
          "indexed": true,
          "internalType": "address",
          "name": "newOwner",
          "type": "address"
        }
      ],
      "name": "OwnershipTransferred",
      "type": "event"
    },
    {
      "anonymous": false,
      "inputs": [
        {
          "indexed": false,
          "internalType": "address",
          "name": "account",
          "type": "address"
        }
      ],
      "name": "Paused",
      "type": "event"
    },
    {
      "anonymous": false,
      "inputs": [
        {
          "indexed": true,
          "internalType": "address",
          "name": "from",
          "type": "address"
        },
        {
          "indexed": true,
          "internalType": "address",
          "name": "to",
          "type": "address"
        },
        {
          "indexed": false,
          "internalType": "uint256",
          "name": "value",
          "type": "uint256"
        }
      ],
      "name": "Transfer",
      "type": "event"
    },
    {
      "anonymous": false,
      "inputs": [
        {
          "indexed": false,
          "internalType": "address",
          "name": "account",
          "type": "address"
        }
      ],
      "name": "Unpaused",
      "type": "event"
    },
    {
      "inputs": [
        {
          "internalType": "address",
          "name": "owner",
          "type": "address"
        },
        {
          "internalType": "address",
          "name": "spender",
          "type": "address"
        }
      ],
      "name": "allowance",
      "outputs": [
        {
          "internalType": "uint256",
          "name": "",
          "type": "uint256"
        }
      ],
      "stateMutability": "view",
      "type": "function"
    },
    {
      "inputs": [
        {
          "internalType": "address",
          "name": "spender",
          "type": "address"
        },
        {
          "internalType": "uint256",
          "name": "value",
          "type": "uint256"
        }
      ],
      "name": "approve",
      "outputs": [
        {
          "internalType": "bool",
          "name": "",
          "type": "bool"
        }
      ],
      "stateMutability": "nonpayable",
      "type": "function"
    },
    {
      "inputs": [
        {
          "internalType": "address",
          "name": "account",
          "type": "address"
        }
      ],
      "name": "balanceOf",
      "outputs": [
        {
          "internalType": "uint256",
          "name": "",
          "type": "uint256"
        }
      ],
      "stateMutability": "view",
      "type": "function"
    },
    {
      "inputs": [],
      "name": "buyToken",
      "outputs": [],
      "stateMutability": "payable",
      "type": "function"
    },
    {
      "inputs": [],
      "name": "decimals",
      "outputs": [
        {
          "internalType": "uint8",
          "name": "",
          "type": "uint8"
        }
      ],
      "stateMutability": "view",
      "type": "function"
    },
    {
      "inputs": [
        {
          "internalType": "uint256",
          "name": "_loanId",
          "type": "uint256"
        }
      ],
      "name": "fundLoan",
      "outputs": [],
      "stateMutability": "payable",
      "type": "function"
    },
    {
      "inputs": [
        {
          "internalType": "uint256",
          "name": "",
          "type": "uint256"
        }
      ],
      "name": "loans",
      "outputs": [
        {
          "internalType": "uint256",
          "name": "id",
          "type": "uint256"
        },
        {
          "internalType": "address payable",
          "name": "borrower",
          "type": "address"
        },
        {
          "internalType": "address payable",
          "name": "lender",
          "type": "address"
        },
        {
          "internalType": "uint256",
          "name": "amount",
          "type": "uint256"
        },
        {
          "internalType": "uint256",
          "name": "interest",
          "type": "uint256"
        },
        {
          "internalType": "uint256",
          "name": "duration",
          "type": "uint256"
        },
        {
          "internalType": "bool",
          "name": "repaid",
          "type": "bool"
        }
      ],
      "stateMutability": "view",
      "type": "function"
    },
    {
      "inputs": [
        {
          "internalType": "address",
          "name": "to",
          "type": "address"
        },
        {
          "internalType": "uint256",
          "name": "amount",
          "type": "uint256"
        }
      ],
      "name": "mint",
      "outputs": [],
      "stateMutability": "nonpayable",
      "type": "function"
    },
    {
      "inputs": [],
      "name": "name",
      "outputs": [
        {
          "internalType": "string",
          "name": "",
          "type": "string"
        }
      ],
      "stateMutability": "view",
      "type": "function"
    },
    {
      "inputs": [],
      "name": "nextLoanId",
      "outputs": [
        {
          "internalType": "uint256",
          "name": "",
          "type": "uint256"
        }
      ],
      "stateMutability": "view",
      "type": "function"
    },
    {
      "inputs": [],
      "name": "owner",
      "outputs": [
        {
          "internalType": "address",
          "name": "",
          "type": "address"
        }
      ],
      "stateMutability": "view",
      "type": "function"
    },
    {
      "inputs": [],
      "name": "pause",
      "outputs": [],
      "stateMutability": "nonpayable",
      "type": "function"
    },
    {
      "inputs": [],
      "name": "paused",
      "outputs": [
        {
          "internalType": "bool",
          "name": "",
          "type": "bool"
        }
      ],
      "stateMutability": "view",
      "type": "function"
    },
    {
      "inputs": [],
      "name": "renounceOwnership",
      "outputs": [],
      "stateMutability": "nonpayable",
      "type": "function"
    },
    {
      "inputs": [
        {
          "internalType": "uint256",
          "name": "_loanId",
          "type": "uint256"
        }
      ],
      "name": "repayLoan",
      "outputs": [],
      "stateMutability": "payable",
      "type": "function"
    },
    {
      "inputs": [
        {
          "internalType": "uint256",
          "name": "_amount",
          "type": "uint256"
        },
        {
          "internalType": "uint256",
          "name": "_interest",
          "type": "uint256"
        },
        {
          "internalType": "uint256",
          "name": "_duration",
          "type": "uint256"
        }
      ],
      "name": "requestLoan",
      "outputs": [],
      "stateMutability": "nonpayable",
      "type": "function"
    },
    {
      "inputs": [
        {
          "internalType": "uint256",
          "name": "amount",
          "type": "uint256"
        }
      ],
      "name": "sellToken",
      "outputs": [],
      "stateMutability": "nonpayable",
      "type": "function"
    },
    {
      "inputs": [],
      "name": "symbol",
      "outputs": [
        {
          "internalType": "string",
          "name": "",
          "type": "string"
        }
      ],
      "stateMutability": "view",
      "type": "function"
    },
    {
      "inputs": [],
      "name": "totalSupply",
      "outputs": [
        {
          "internalType": "uint256",
          "name": "",
          "type": "uint256"
        }
      ],
      "stateMutability": "view",
      "type": "function"
    },
    {
      "inputs": [
        {
          "internalType": "address",
          "name": "to",
          "type": "address"
        },
        {
          "internalType": "uint256",
          "name": "value",
          "type": "uint256"
        }
      ],
      "name": "transfer",
      "outputs": [
        {
          "internalType": "bool",
          "name": "",
          "type": "bool"
        }
      ],
      "stateMutability": "nonpayable",
      "type": "function"
    },
    {
      "inputs": [
        {
          "internalType": "address",
          "name": "from",
          "type": "address"
        },
        {
          "internalType": "address",
          "name": "to",
          "type": "address"
        },
        {
          "internalType": "uint256",
          "name": "value",
          "type": "uint256"
        }
      ],
      "name": "transferFrom",
      "outputs": [
        {
          "internalType": "bool",
          "name": "",
          "type": "bool"
        }
      ],
      "stateMutability": "nonpayable",
      "type": "function"
    },
    {
      "inputs": [
        {
          "internalType": "address",
          "name": "newOwner",
          "type": "address"
        }
      ],
      "name": "transferOwnership",
      "outputs": [],
      "stateMutability": "nonpayable",
      "type": "function"
    },
    {
      "inputs": [],
      "name": "unpause",
      "outputs": [],
      "stateMutability": "nonpayable",
      "type": "function"
    },
    {
      "inputs": [],
      "name": "withdraw",
      "outputs": [],
      "stateMutability": "nonpayable",
      "type": "function"
    }
  ],
  "bytecode": "0x60806040523480156200001157600080fd5b5060405162002f7e38038062002f7e8339818101604052810190620000379190620005a8565b806040518060400160405280601081526020017f43727970746f4c656e6473546f6b656e000000000000000000000000000000008152506040518060400160405280600381526020017f434c5400000000000000000000000000000000000000000000000000000000008152508160039081620000b5919062000854565b508060049081620000c7919062000854565b505050600073ffffffffffffffffffffffffffffffffffffffff168173ffffffffffffffffffffffffffffffffffffffff16036200013f5760006040517f1e4fbdf70000000000000000000000000000000000000000000000000000000081526004016200013691906200094c565b60405180910390fd5b6200015081620001b260201b60201c565b506000600560146101000a81548160ff021916908315150217905550620001ab81620001816200027860201b60201c565b600a6200018f919062000af9565b620f42406200019f919062000b4a565b6200028160201b60201c565b5062000c3b565b6000600560009054906101000a900473ffffffffffffffffffffffffffffffffffffffff16905081600560006101000a81548173ffffffffffffffffffffffffffffffffffffffff021916908373ffffffffffffffffffffffffffffffffffffffff1602179055508173ffffffffffffffffffffffffffffffffffffffff168173ffffffffffffffffffffffffffffffffffffffff167f8be0079c531659141344cd1fd0a4f28419497f9722a3daafe3b4186f6b6457e060405160405180910390a35050565b60006012905090565b600073ffffffffffffffffffffffffffffffffffffffff168273ffffffffffffffffffffffffffffffffffffffff1603620002f65760006040517fec442f05000000000000000000000000000000000000000000000000000000008152600401620002ed91906200094c565b60405180910390fd5b6200030a600083836200030e60201b60201c565b5050565b600073ffffffffffffffffffffffffffffffffffffffff168373ffffffffffffffffffffffffffffffffffffffff16036200036457806002600082825462000357919062000b95565b925050819055506200043a565b60008060008573ffffffffffffffffffffffffffffffffffffffff1673ffffffffffffffffffffffffffffffffffffffff16815260200190815260200160002054905081811015620003f3578381836040517fe450d38c000000000000000000000000000000000000000000000000000000008152600401620003ea9392919062000be1565b60405180910390fd5b8181036000808673ffffffffffffffffffffffffffffffffffffffff1673ffffffffffffffffffffffffffffffffffffffff16815260200190815260200160002081905550505b600073ffffffffffffffffffffffffffffffffffffffff168273ffffffffffffffffffffffffffffffffffffffff1603620004855780600260008282540392505081905550620004d2565b806000808473ffffffffffffffffffffffffffffffffffffffff1673ffffffffffffffffffffffffffffffffffffffff168152602001908152602001600020600082825401925050819055505b8173ffffffffffffffffffffffffffffffffffffffff168373ffffffffffffffffffffffffffffffffffffffff167fddf252ad1be2c89b69c2b068fc378daa952ba7f163c4a11628f55a4df523b3ef8360405162000531919062000c1e565b60405180910390a3505050565b600080fd5b600073ffffffffffffffffffffffffffffffffffffffff82169050919050565b6000620005708262000543565b9050919050565b620005828162000563565b81146200058e57600080fd5b50565b600081519050620005a28162000577565b92915050565b600060208284031215620005c157620005c06200053e565b5b6000620005d18482850162000591565b91505092915050565b600081519050919050565b7f4e487b7100000000000000000000000000000000000000000000000000000000600052604160045260246000fd5b7f4e487b7100000000000000000000000000000000000000000000000000000000600052602260045260246000fd5b600060028204905060018216806200065c57607f821691505b60208210810362000672576200067162000614565b5b50919050565b60008190508160005260206000209050919050565b60006020601f8301049050919050565b600082821b905092915050565b600060088302620006dc7fffffffffffffffffffffffffffffffffffffffffffffffffffffffffffffffff826200069d565b620006e886836200069d565b95508019841693508086168417925050509392505050565b6000819050919050565b6000819050919050565b6000620007356200072f620007298462000700565b6200070a565b62000700565b9050919050565b6000819050919050565b620007518362000714565b6200076962000760826200073c565b848454620006aa565b825550505050565b600090565b6200078062000771565b6200078d81848462000746565b505050565b5b81811015620007b557620007a960008262000776565b60018101905062000793565b5050565b601f8211156200080457620007ce8162000678565b620007d9846200068d565b81016020851015620007e9578190505b62000801620007f8856200068d565b83018262000792565b50505b505050565b600082821c905092915050565b6000620008296000198460080262000809565b1980831691505092915050565b600062000844838362000816565b9150826002028217905092915050565b6200085f82620005da565b67ffffffffffffffff8111156200087b576200087a620005e5565b5b62000887825462000643565b62000894828285620007b9565b600060209050601f831160018114620008cc5760008415620008b7578287015190505b620008c3858262000836565b86555062000933565b601f198416620008dc8662000678565b60005b828110156200090657848901518255600182019150602085019450602081019050620008df565b8683101562000926578489015162000922601f89168262000816565b8355505b6001600288020188555050505b505050505050565b620009468162000563565b82525050565b60006020820190506200096360008301846200093b565b92915050565b7f4e487b7100000000000000000000000000000000000000000000000000000000600052601160045260246000fd5b60008160011c9050919050565b6000808291508390505b6001851115620009f757808604811115620009cf57620009ce62000969565b5b6001851615620009df5780820291505b8081029050620009ef8562000998565b9450620009af565b94509492505050565b60008262000a12576001905062000ae5565b8162000a22576000905062000ae5565b816001811462000a3b576002811462000a465762000a7c565b600191505062000ae5565b60ff84111562000a5b5762000a5a62000969565b5b8360020a91508482111562000a755762000a7462000969565b5b5062000ae5565b5060208310610133831016604e8410600b841016171562000ab65782820a90508381111562000ab05762000aaf62000969565b5b62000ae5565b62000ac58484846001620009a5565b9250905081840481111562000adf5762000ade62000969565b5b81810290505b9392505050565b600060ff82169050919050565b600062000b068262000700565b915062000b138362000aec565b925062000b427fffffffffffffffffffffffffffffffffffffffffffffffffffffffffffffffff848462000a00565b905092915050565b600062000b578262000700565b915062000b648362000700565b925082820262000b748162000700565b9150828204841483151762000b8e5762000b8d62000969565b5b5092915050565b600062000ba28262000700565b915062000baf8362000700565b925082820190508082111562000bca5762000bc962000969565b5b92915050565b62000bdb8162000700565b82525050565b600060608201905062000bf860008301866200093b565b62000c07602083018562000bd0565b62000c16604083018462000bd0565b949350505050565b600060208201905062000c35600083018462000bd0565b92915050565b6123338062000c4b6000396000f3fe60806040526004361061014b5760003560e01c80638456cb59116100b6578063a9059cbb1161006f578063a9059cbb14610408578063ab7b1c8914610445578063dd62ed3e14610461578063e1ec3c681461049e578063edadbbfe146104e1578063f2fde38b1461050a5761014b565b80638456cb591461034a578063846b909a1461036157806387c514591461037d5780638da5cb5b146103a857806395d89b41146103d3578063a4821719146103fe5761014b565b80633ccfd60b116101085780633ccfd60b146102745780633f4ba83a1461028b57806340c10f19146102a25780635c975abb146102cb57806370a08231146102f6578063715018a6146103335761014b565b806306fdde0314610150578063095ea7b31461017b57806318160ddd146101b85780632397e4d7146101e357806323b872dd1461020c578063313ce56714610249575b600080fd5b34801561015c57600080fd5b50610165610533565b60405161017291906119e1565b60405180910390f35b34801561018757600080fd5b506101a2600480360381019061019d9190611a9c565b6105c5565b6040516101af9190611af7565b60405180910390f35b3480156101c457600080fd5b506101cd6105e8565b6040516101da9190611b21565b60405180910390f35b3480156101ef57600080fd5b5061020a60048036038101906102059190611b3c565b6105f2565b005b34801561021857600080fd5b50610233600480360381019061022e9190611b69565b6106ab565b6040516102409190611af7565b60405180910390f35b34801561025557600080fd5b5061025e6106da565b60405161026b9190611bd8565b60405180910390f35b34801561028057600080fd5b506102896106e3565b005b34801561029757600080fd5b506102a061073b565b005b3480156102ae57600080fd5b506102c960048036038101906102c49190611a9c565b61074d565b005b3480156102d757600080fd5b506102e0610763565b6040516102ed9190611af7565b60405180910390f35b34801561030257600080fd5b5061031d60048036038101906103189190611bf3565b61077a565b60405161032a9190611b21565b60405180910390f35b34801561033f57600080fd5b506103486107c2565b005b34801561035657600080fd5b5061035f6107d6565b005b61037b60048036038101906103769190611b3c565b6107e8565b005b34801561038957600080fd5b50610392610992565b60405161039f9190611b21565b60405180910390f35b3480156103b457600080fd5b506103bd610998565b6040516103ca9190611c2f565b60405180910390f35b3480156103df57600080fd5b506103e86109c2565b6040516103f591906119e1565b60405180910390f35b610406610a54565b005b34801561041457600080fd5b5061042f600480360381019061042a9190611a9c565b610abd565b60405161043c9190611af7565b60405180910390f35b61045f600480360381019061045a9190611b3c565b610ae0565b005b34801561046d57600080fd5b5061048860048036038101906104839190611c4a565b610cc4565b6040516104959190611b21565b60405180910390f35b3480156104aa57600080fd5b506104c560048036038101906104c09190611b3c565b610d4b565b6040516104d89796959493929190611cab565b60405180910390f35b3480156104ed57600080fd5b5061050860048036038101906105039190611d1a565b610dda565b005b34801561051657600080fd5b50610531600480360381019061052c9190611bf3565b610f95565b005b60606003805461054290611d9c565b80601f016020809104026020016040519081016040528092919081815260200182805461056e90611d9c565b80156105bb5780601f10610590576101008083540402835291602001916105bb565b820191906000526020600020905b81548152906001019060200180831161059e57829003601f168201915b5050505050905090565b6000806105d061101b565b90506105dd818585611023565b600191505092915050565b6000600254905090565b6105fa611035565b806106043361077a565b1015610645576040517f08c379a000000000000000000000000000000000000000000000000000000000815260040161063c90611e3f565b60405180910390fd5b60006064826106549190611ebd565b90506106603383611076565b3373ffffffffffffffffffffffffffffffffffffffff166108fc829081150290604051600060405180830381858888f193505050501580156106a6573d6000803e3d6000fd5b505050565b6000806106b661101b565b90506106c38582856110f8565b6106ce85858561118c565b60019150509392505050565b60006012905090565b6106eb611280565b6106f3610998565b73ffffffffffffffffffffffffffffffffffffffff166108fc479081150290604051600060405180830381858888f19350505050158015610738573d6000803e3d6000fd5b50565b610743611280565b61074b611307565b565b610755611280565b61075f828261136a565b5050565b6000600560149054906101000a900460ff16905090565b60008060008373ffffffffffffffffffffffffffffffffffffffff1673ffffffffffffffffffffffffffffffffffffffff168152602001908152602001600020549050919050565b6107ca611280565b6107d460006113ec565b565b6107de611280565b6107e66114b2565b565b6107f0611035565b60006007600083815260200190815260200160002090508060030154341461084d576040517f08c379a000000000000000000000000000000000000000000000000000000000815260040161084490611f3a565b60405180910390fd5b600073ffffffffffffffffffffffffffffffffffffffff168160020160009054906101000a900473ffffffffffffffffffffffffffffffffffffffff1673ffffffffffffffffffffffffffffffffffffffff16146108e0576040517f08c379a00000000000000000000000000000000000000000000000000000000081526004016108d790611fa6565b60405180910390fd5b338160020160006101000a81548173ffffffffffffffffffffffffffffffffffffffff021916908373ffffffffffffffffffffffffffffffffffffffff1602179055508060010160009054906101000a900473ffffffffffffffffffffffffffffffffffffffff1673ffffffffffffffffffffffffffffffffffffffff166108fc349081150290604051600060405180830381858888f1935050505015801561098d573d6000803e3d6000fd5b505050565b60065481565b6000600560009054906101000a900473ffffffffffffffffffffffffffffffffffffffff16905090565b6060600480546109d190611d9c565b80601f01602080910402602001604051908101604052809291908181526020018280546109fd90611d9c565b8015610a4a5780601f10610a1f57610100808354040283529160200191610a4a565b820191906000526020600020905b815481529060010190602001808311610a2d57829003601f168201915b5050505050905090565b610a5c611035565b60003411610a9f576040517f08c379a0000000000000000000000000000000000000000000000000000000008152600401610a9690612012565b60405180910390fd5b6000606434610aae9190612032565b9050610aba338261136a565b50565b600080610ac861101b565b9050610ad581858561118c565b600191505092915050565b610ae8611035565b60006007600083815260200190815260200160002090508060010160009054906101000a900473ffffffffffffffffffffffffffffffffffffffff1673ffffffffffffffffffffffffffffffffffffffff163373ffffffffffffffffffffffffffffffffffffffff1614610b91576040517f08c379a0000000000000000000000000000000000000000000000000000000008152600401610b88906120c0565b60405180910390fd5b8060060160009054906101000a900460ff1615610be3576040517f08c379a0000000000000000000000000000000000000000000000000000000008152600401610bda9061212c565b60405180910390fd5b80600401548160030154610bf7919061214c565b3414610c38576040517f08c379a0000000000000000000000000000000000000000000000000000000008152600401610c2f906121cc565b60405180910390fd5b8060020160009054906101000a900473ffffffffffffffffffffffffffffffffffffffff1673ffffffffffffffffffffffffffffffffffffffff166108fc349081150290604051600060405180830381858888f19350505050158015610ca2573d6000803e3d6000fd5b5060018160060160006101000a81548160ff0219169083151502179055505050565b6000600160008473ffffffffffffffffffffffffffffffffffffffff1673ffffffffffffffffffffffffffffffffffffffff16815260200190815260200160002060008373ffffffffffffffffffffffffffffffffffffffff1673ffffffffffffffffffffffffffffffffffffffff16815260200190815260200160002054905092915050565b60076020528060005260406000206000915090508060000154908060010160009054906101000a900473ffffffffffffffffffffffffffffffffffffffff16908060020160009054906101000a900473ffffffffffffffffffffffffffffffffffffffff16908060030154908060040154908060050154908060060160009054906101000a900460ff16905087565b82610de43361077a565b1015610e25576040517f08c379a0000000000000000000000000000000000000000000000000000000008152600401610e1c9061225e565b60405180910390fd5b6040518060e0016040528060065481526020013373ffffffffffffffffffffffffffffffffffffffff168152602001600073ffffffffffffffffffffffffffffffffffffffff168152602001848152602001838152602001828152602001600015158152506007600060065481526020019081526020016000206000820151816000015560208201518160010160006101000a81548173ffffffffffffffffffffffffffffffffffffffff021916908373ffffffffffffffffffffffffffffffffffffffff16021790555060408201518160020160006101000a81548173ffffffffffffffffffffffffffffffffffffffff021916908373ffffffffffffffffffffffffffffffffffffffff160217905550606082015181600301556080820151816004015560a0820151816005015560c08201518160060160006101000a81548160ff02191690831515021790555090505060066000815480929190610f8b9061227e565b9190505550505050565b610f9d611280565b600073ffffffffffffffffffffffffffffffffffffffff168173ffffffffffffffffffffffffffffffffffffffff160361100f5760006040517f1e4fbdf70000000000000000000000000000000000000000000000000000000081526004016110069190611c2f565b60405180910390fd5b611018816113ec565b50565b600033905090565b6110308383836001611515565b505050565b61103d610763565b15611074576040517fd93c066500000000000000000000000000000000000000000000000000000000815260040160405180910390fd5b565b600073ffffffffffffffffffffffffffffffffffffffff168273ffffffffffffffffffffffffffffffffffffffff16036110e85760006040517f96c6fd1e0000000000000000000000000000000000000000000000000000000081526004016110df9190611c2f565b60405180910390fd5b6110f4826000836116ec565b5050565b60006111048484610cc4565b90507fffffffffffffffffffffffffffffffffffffffffffffffffffffffffffffffff81146111865781811015611176578281836040517ffb8f41b200000000000000000000000000000000000000000000000000000000815260040161116d939291906122c6565b60405180910390fd5b61118584848484036000611515565b5b50505050565b600073ffffffffffffffffffffffffffffffffffffffff168373ffffffffffffffffffffffffffffffffffffffff16036111fe5760006040517f96c6fd1e0000000000000000000000000000000000000000000000000000000081526004016111f59190611c2f565b60405180910390fd5b600073ffffffffffffffffffffffffffffffffffffffff168273ffffffffffffffffffffffffffffffffffffffff16036112705760006040517fec442f050000000000000000000000000000000000000000000000000000000081526004016112679190611c2f565b60405180910390fd5b61127b8383836116ec565b505050565b61128861101b565b73ffffffffffffffffffffffffffffffffffffffff166112a6610998565b73ffffffffffffffffffffffffffffffffffffffff1614611305576112c961101b565b6040517f118cdaa70000000000000000000000000000000000000000000000000000000081526004016112fc9190611c2f565b60405180910390fd5b565b61130f611911565b6000600560146101000a81548160ff0219169083151502179055507f5db9ee0a495bf2e6ff9c91a7834c1ba4fdd244a5e8aa4e537bd38aeae4b073aa61135361101b565b6040516113609190611c2f565b60405180910390a1565b600073ffffffffffffffffffffffffffffffffffffffff168273ffffffffffffffffffffffffffffffffffffffff16036113dc5760006040517fec442f050000000000000000000000000000000000000000000000000000000081526004016113d39190611c2f565b60405180910390fd5b6113e8600083836116ec565b5050565b6000600560009054906101000a900473ffffffffffffffffffffffffffffffffffffffff16905081600560006101000a81548173ffffffffffffffffffffffffffffffffffffffff021916908373ffffffffffffffffffffffffffffffffffffffff1602179055508173ffffffffffffffffffffffffffffffffffffffff168173ffffffffffffffffffffffffffffffffffffffff167f8be0079c531659141344cd1fd0a4f28419497f9722a3daafe3b4186f6b6457e060405160405180910390a35050565b6114ba611035565b6001600560146101000a81548160ff0219169083151502179055507f62e78cea01bee320cd4e420270b5ea74000d11b0c9f74754ebdbfc544b05a2586114fe61101b565b60405161150b9190611c2f565b60405180910390a1565b600073ffffffffffffffffffffffffffffffffffffffff168473ffffffffffffffffffffffffffffffffffffffff16036115875760006040517fe602df0500000000000000000000000000000000000000000000000000000000815260040161157e9190611c2f565b60405180910390fd5b600073ffffffffffffffffffffffffffffffffffffffff168373ffffffffffffffffffffffffffffffffffffffff16036115f95760006040517f94280d620000000000000000000000000000000000000000000000000000000081526004016115f09190611c2f565b60405180910390fd5b81600160008673ffffffffffffffffffffffffffffffffffffffff1673ffffffffffffffffffffffffffffffffffffffff16815260200190815260200160002060008573ffffffffffffffffffffffffffffffffffffffff1673ffffffffffffffffffffffffffffffffffffffff1681526020019081526020016000208190555080156116e6578273ffffffffffffffffffffffffffffffffffffffff168473ffffffffffffffffffffffffffffffffffffffff167f8c5be1e5ebec7d5bd14f71427d1e84f3dd0314c0f7b2291e5b200ac8c7c3b925846040516116dd9190611b21565b60405180910390a35b50505050565b600073ffffffffffffffffffffffffffffffffffffffff168373ffffffffffffffffffffffffffffffffffffffff160361173e578060026000828254611732919061214c565b92505081905550611811565b60008060008573ffffffffffffffffffffffffffffffffffffffff1673ffffffffffffffffffffffffffffffffffffffff168152602001908152602001600020549050818110156117ca578381836040517fe450d38c0000000000000000000000000000000000000000000000000000000081526004016117c1939291906122c6565b60405180910390fd5b8181036000808673ffffffffffffffffffffffffffffffffffffffff1673ffffffffffffffffffffffffffffffffffffffff16815260200190815260200160002081905550505b600073ffffffffffffffffffffffffffffffffffffffff168273ffffffffffffffffffffffffffffffffffffffff160361185a57806002600082825403925050819055506118a7565b806000808473ffffffffffffffffffffffffffffffffffffffff1673ffffffffffffffffffffffffffffffffffffffff168152602001908152602001600020600082825401925050819055505b8173ffffffffffffffffffffffffffffffffffffffff168373ffffffffffffffffffffffffffffffffffffffff167fddf252ad1be2c89b69c2b068fc378daa952ba7f163c4a11628f55a4df523b3ef836040516119049190611b21565b60405180910390a3505050565b611919610763565b61194f576040517f8dfc202b00000000000000000000000000000000000000000000000000000000815260040160405180910390fd5b565b600081519050919050565b600082825260208201905092915050565b60005b8381101561198b578082015181840152602081019050611970565b60008484015250505050565b6000601f19601f8301169050919050565b60006119b382611951565b6119bd818561195c565b93506119cd81856020860161196d565b6119d681611997565b840191505092915050565b600060208201905081810360008301526119fb81846119a8565b905092915050565b600080fd5b600073ffffffffffffffffffffffffffffffffffffffff82169050919050565b6000611a3382611a08565b9050919050565b611a4381611a28565b8114611a4e57600080fd5b50565b600081359050611a6081611a3a565b92915050565b6000819050919050565b611a7981611a66565b8114611a8457600080fd5b50565b600081359050611a9681611a70565b92915050565b60008060408385031215611ab357611ab2611a03565b5b6000611ac185828601611a51565b9250506020611ad285828601611a87565b9150509250929050565b60008115159050919050565b611af181611adc565b82525050565b6000602082019050611b0c6000830184611ae8565b92915050565b611b1b81611a66565b82525050565b6000602082019050611b366000830184611b12565b92915050565b600060208284031215611b5257611b51611a03565b5b6000611b6084828501611a87565b91505092915050565b600080600060608486031215611b8257611b81611a03565b5b6000611b9086828701611a51565b9350506020611ba186828701611a51565b9250506040611bb286828701611a87565b9150509250925092565b600060ff82169050919050565b611bd281611bbc565b82525050565b6000602082019050611bed6000830184611bc9565b92915050565b600060208284031215611c0957611c08611a03565b5b6000611c1784828501611a51565b91505092915050565b611c2981611a28565b82525050565b6000602082019050611c446000830184611c20565b92915050565b60008060408385031215611c6157611c60611a03565b5b6000611c6f85828601611a51565b9250506020611c8085828601611a51565b9150509250929050565b6000611c9582611a08565b9050919050565b611ca581611c8a565b82525050565b600060e082019050611cc0600083018a611b12565b611ccd6020830189611c9c565b611cda6040830188611c9c565b611ce76060830187611b12565b611cf46080830186611b12565b611d0160a0830185611b12565b611d0e60c0830184611ae8565b98975050505050505050565b600080600060608486031215611d3357611d32611a03565b5b6000611d4186828701611a87565b9350506020611d5286828701611a87565b9250506040611d6386828701611a87565b9150509250925092565b7f4e487b7100000000000000000000000000000000000000000000000000000000600052602260045260246000fd5b60006002820490506001821680611db457607f821691505b602082108103611dc757611dc6611d6d565b5b50919050565b7f496e73756666696369656e7420746f6b656e2062616c616e636520746f20736560008201527f6c6c000000000000000000000000000000000000000000000000000000000000602082015250565b6000611e2960228361195c565b9150611e3482611dcd565b604082019050919050565b60006020820190508181036000830152611e5881611e1c565b9050919050565b7f4e487b7100000000000000000000000000000000000000000000000000000000600052601260045260246000fd5b7f4e487b7100000000000000000000000000000000000000000000000000000000600052601160045260246000fd5b6000611ec882611a66565b9150611ed383611a66565b925082611ee357611ee2611e5f565b5b828204905092915050565b7f496e636f7272656374206c6f616e20616d6f756e740000000000000000000000600082015250565b6000611f2460158361195c565b9150611f2f82611eee565b602082019050919050565b60006020820190508181036000830152611f5381611f17565b9050919050565b7f4c6f616e20616c72656164792066756e64656400000000000000000000000000600082015250565b6000611f9060138361195c565b9150611f9b82611f5a565b602082019050919050565b60006020820190508181036000830152611fbf81611f83565b9050919050565b7f4e65656420746f2073656e642045544820746f2062757920746f6b656e730000600082015250565b6000611ffc601e8361195c565b915061200782611fc6565b602082019050919050565b6000602082019050818103600083015261202b81611fef565b9050919050565b600061203d82611a66565b915061204883611a66565b925082820261205681611a66565b9150828204841483151761206d5761206c611e8e565b5b5092915050565b7f4f6e6c7920626f72726f7765722063616e207265706179000000000000000000600082015250565b60006120aa60178361195c565b91506120b582612074565b602082019050919050565b600060208201905081810360008301526120d98161209d565b9050919050565b7f4c6f616e20616c72656164792072657061696400000000000000000000000000600082015250565b600061211660138361195c565b9150612121826120e0565b602082019050919050565b6000602082019050818103600083015261214581612109565b9050919050565b600061215782611a66565b915061216283611a66565b925082820190508082111561217a57612179611e8e565b5b92915050565b7f496e636f72726563742072657061796d656e7420616d6f756e74000000000000600082015250565b60006121b6601a8361195c565b91506121c182612180565b602082019050919050565b600060208201905081810360008301526121e5816121a9565b9050919050565b7f496e73756666696369656e7420746f6b656e2062616c616e636520666f72206c60008201527f6f616e0000000000000000000000000000000000000000000000000000000000602082015250565b600061224860238361195c565b9150612253826121ec565b604082019050919050565b600060208201905081810360008301526122778161223b565b9050919050565b600061228982611a66565b91507fffffffffffffffffffffffffffffffffffffffffffffffffffffffffffffffff82036122bb576122ba611e8e565b5b600182019050919050565b60006060820190506122db6000830186611c20565b6122e86020830185611b12565b6122f56040830184611b12565b94935050505056fea264697066735822122049e0b351b9d3b02d2d2f99afec8f3756cff1fc8f098f7a2dd5f19fca687a72ba64736f6c63430008180033",
  "linkReferences": {},
  "deployedLinkReferences": {}
}