{
  "_format": "hh-sol-artifact-1",
  "contractName": "ICO",
  "sourceName": "contracts/ICO.sol",
  "abi": [
    {
      "inputs": [
        {
          "internalType": "address",
          "name": "_tokenAddress",
          "type": "address"
        }
      ],
      "stateMutability": "nonpayable",
      "type": "constructor"
    },
    {
      "inputs": [],
      "name": "EnforcedPause",
      "type": "error"
    },
    {
      "inputs": [],
      "name": "ExpectedPause",
      "type": "error"
    },
    {
      "inputs": [
        {
          "internalType": "address",
          "name": "owner",
          "type": "address"
        }
      ],
      "name": "OwnableInvalidOwner",
      "type": "error"
    },
    {
      "inputs": [
        {
          "internalType": "address",
          "name": "account",
          "type": "address"
        }
      ],
      "name": "OwnableUnauthorizedAccount",
      "type": "error"
    },
    {
      "anonymous": false,
      "inputs": [
        {
          "indexed": true,
          "internalType": "address",
          "name": "previousOwner",
          "type": "address"
        },
        {
          "indexed": true,
          "internalType": "address",
          "name": "newOwner",
          "type": "address"
        }
      ],
      "name": "OwnershipTransferred",
      "type": "event"
    },
    {
      "anonymous": false,
      "inputs": [
        {
          "indexed": false,
          "internalType": "address",
          "name": "account",
          "type": "address"
        }
      ],
      "name": "Paused",
      "type": "event"
    },
    {
      "anonymous": false,
      "inputs": [
        {
          "indexed": false,
          "internalType": "address",
          "name": "account",
          "type": "address"
        }
      ],
      "name": "Unpaused",
      "type": "event"
    },
    {
      "inputs": [],
      "name": "buyToken",
      "outputs": [],
      "stateMutability": "payable",
      "type": "function"
    },
    {
      "inputs": [],
      "name": "owner",
      "outputs": [
        {
          "internalType": "address",
          "name": "",
          "type": "address"
        }
      ],
      "stateMutability": "view",
      "type": "function"
    },
    {
      "inputs": [],
      "name": "pause",
      "outputs": [],
      "stateMutability": "nonpayable",
      "type": "function"
    },
    {
      "inputs": [],
      "name": "paused",
      "outputs": [
        {
          "internalType": "bool",
          "name": "",
          "type": "bool"
        }
      ],
      "stateMutability": "view",
      "type": "function"
    },
    {
      "inputs": [],
      "name": "price",
      "outputs": [
        {
          "internalType": "uint256",
          "name": "",
          "type": "uint256"
        }
      ],
      "stateMutability": "view",
      "type": "function"
    },
    {
      "inputs": [],
      "name": "renounceOwnership",
      "outputs": [],
      "stateMutability": "nonpayable",
      "type": "function"
    },
    {
      "inputs": [],
      "name": "token",
      "outputs": [
        {
          "internalType": "contract IERC20",
          "name": "",
          "type": "address"
        }
      ],
      "stateMutability": "view",
      "type": "function"
    },
    {
      "inputs": [],
      "name": "totalTokensSold",
      "outputs": [
        {
          "internalType": "uint256",
          "name": "",
          "type": "uint256"
        }
      ],
      "stateMutability": "view",
      "type": "function"
    },
    {
      "inputs": [
        {
          "internalType": "address",
          "name": "newOwner",
          "type": "address"
        }
      ],
      "name": "transferOwnership",
      "outputs": [],
      "stateMutability": "nonpayable",
      "type": "function"
    },
    {
      "inputs": [],
      "name": "unpause",
      "outputs": [],
      "stateMutability": "nonpayable",
      "type": "function"
    },
    {
      "inputs": [],
      "name": "withdrawal",
      "outputs": [],
      "stateMutability": "nonpayable",
      "type": "function"
    }
  ],
  "bytecode": "0x6080604052670de0b6b3a76400006002553480156200001d57600080fd5b5060405162000d5538038062000d5583398181016040528101906200004391906200025c565b3360008060006101000a81548160ff021916908315150217905550600073ffffffffffffffffffffffffffffffffffffffff168173ffffffffffffffffffffffffffffffffffffffff1603620000d35760006040517f1e4fbdf7000000000000000000000000000000000000000000000000000000008152600401620000ca91906200029f565b60405180910390fd5b620000e4816200012d60201b60201c565b5080600160006101000a81548173ffffffffffffffffffffffffffffffffffffffff021916908373ffffffffffffffffffffffffffffffffffffffff16021790555050620002bc565b60008060019054906101000a900473ffffffffffffffffffffffffffffffffffffffff16905081600060016101000a81548173ffffffffffffffffffffffffffffffffffffffff021916908373ffffffffffffffffffffffffffffffffffffffff1602179055508173ffffffffffffffffffffffffffffffffffffffff168173ffffffffffffffffffffffffffffffffffffffff167f8be0079c531659141344cd1fd0a4f28419497f9722a3daafe3b4186f6b6457e060405160405180910390a35050565b600080fd5b600073ffffffffffffffffffffffffffffffffffffffff82169050919050565b60006200022482620001f7565b9050919050565b620002368162000217565b81146200024257600080fd5b50565b60008151905062000256816200022b565b92915050565b600060208284031215620002755762000274620001f2565b5b6000620002858482850162000245565b91505092915050565b620002998162000217565b82525050565b6000602082019050620002b660008301846200028e565b92915050565b610a8980620002cc6000396000f3fe60806040526004361061009c5760003560e01c80638da5cb5b116100645780638da5cb5b1461013c578063a035b1fe14610167578063a482171914610192578063d4e932921461019c578063f2fde38b146101b3578063fc0c546a146101dc5761009c565b80633f4ba83a146100a15780635c975abb146100b857806363b20117146100e3578063715018a61461010e5780638456cb5914610125575b600080fd5b3480156100ad57600080fd5b506100b6610207565b005b3480156100c457600080fd5b506100cd610219565b6040516100da919061073b565b60405180910390f35b3480156100ef57600080fd5b506100f861022f565b604051610105919061076f565b60405180910390f35b34801561011a57600080fd5b50610123610235565b005b34801561013157600080fd5b5061013a610249565b005b34801561014857600080fd5b5061015161025b565b60405161015e91906107cb565b60405180910390f35b34801561017357600080fd5b5061017c610284565b604051610189919061076f565b60405180910390f35b61019a61028a565b005b3480156101a857600080fd5b506101b1610383565b005b3480156101bf57600080fd5b506101da60048036038101906101d59190610817565b6103db565b005b3480156101e857600080fd5b506101f1610461565b6040516101fe91906108a3565b60405180910390f35b61020f610487565b61021761050e565b565b60008060009054906101000a900460ff16905090565b60035481565b61023d610487565b6102476000610570565b565b610251610487565b610259610635565b565b60008060019054906101000a900473ffffffffffffffffffffffffffffffffffffffff16905090565b60025481565b610292610697565b60003490506000670de0b6b3a7640000600254836102b0919061091c565b6102ba919061094d565b9050600160009054906101000a900473ffffffffffffffffffffffffffffffffffffffff1673ffffffffffffffffffffffffffffffffffffffff166323b872dd61030261025b565b33846040518463ffffffff1660e01b81526004016103229392919061098f565b6020604051808303816000875af1158015610341573d6000803e3d6000fd5b505050506040513d601f19601f8201168201806040525081019061036591906109f2565b5080600360008282546103789190610a1f565b925050819055505050565b61038b610487565b61039361025b565b73ffffffffffffffffffffffffffffffffffffffff166108fc479081150290604051600060405180830381858888f193505050501580156103d8573d6000803e3d6000fd5b50565b6103e3610487565b600073ffffffffffffffffffffffffffffffffffffffff168173ffffffffffffffffffffffffffffffffffffffff16036104555760006040517f1e4fbdf700000000000000000000000000000000000000000000000000000000815260040161044c91906107cb565b60405180910390fd5b61045e81610570565b50565b600160009054906101000a900473ffffffffffffffffffffffffffffffffffffffff1681565b61048f6106d8565b73ffffffffffffffffffffffffffffffffffffffff166104ad61025b565b73ffffffffffffffffffffffffffffffffffffffff161461050c576104d06106d8565b6040517f118cdaa700000000000000000000000000000000000000000000000000000000815260040161050391906107cb565b60405180910390fd5b565b6105166106e0565b60008060006101000a81548160ff0219169083151502179055507f5db9ee0a495bf2e6ff9c91a7834c1ba4fdd244a5e8aa4e537bd38aeae4b073aa6105596106d8565b60405161056691906107cb565b60405180910390a1565b60008060019054906101000a900473ffffffffffffffffffffffffffffffffffffffff16905081600060016101000a81548173ffffffffffffffffffffffffffffffffffffffff021916908373ffffffffffffffffffffffffffffffffffffffff1602179055508173ffffffffffffffffffffffffffffffffffffffff168173ffffffffffffffffffffffffffffffffffffffff167f8be0079c531659141344cd1fd0a4f28419497f9722a3daafe3b4186f6b6457e060405160405180910390a35050565b61063d610697565b60016000806101000a81548160ff0219169083151502179055507f62e78cea01bee320cd4e420270b5ea74000d11b0c9f74754ebdbfc544b05a2586106806106d8565b60405161068d91906107cb565b60405180910390a1565b61069f610219565b156106d6576040517fd93c066500000000000000000000000000000000000000000000000000000000815260040160405180910390fd5b565b600033905090565b6106e8610219565b61071e576040517f8dfc202b00000000000000000000000000000000000000000000000000000000815260040160405180910390fd5b565b60008115159050919050565b61073581610720565b82525050565b6000602082019050610750600083018461072c565b92915050565b6000819050919050565b61076981610756565b82525050565b60006020820190506107846000830184610760565b92915050565b600073ffffffffffffffffffffffffffffffffffffffff82169050919050565b60006107b58261078a565b9050919050565b6107c5816107aa565b82525050565b60006020820190506107e060008301846107bc565b92915050565b600080fd5b6107f4816107aa565b81146107ff57600080fd5b50565b600081359050610811816107eb565b92915050565b60006020828403121561082d5761082c6107e6565b5b600061083b84828501610802565b91505092915050565b6000819050919050565b600061086961086461085f8461078a565b610844565b61078a565b9050919050565b600061087b8261084e565b9050919050565b600061088d82610870565b9050919050565b61089d81610882565b82525050565b60006020820190506108b86000830184610894565b92915050565b7f4e487b7100000000000000000000000000000000000000000000000000000000600052601260045260246000fd5b7f4e487b7100000000000000000000000000000000000000000000000000000000600052601160045260246000fd5b600061092782610756565b915061093283610756565b925082610942576109416108be565b5b828204905092915050565b600061095882610756565b915061096383610756565b925082820261097181610756565b91508282048414831517610988576109876108ed565b5b5092915050565b60006060820190506109a460008301866107bc565b6109b160208301856107bc565b6109be6040830184610760565b949350505050565b6109cf81610720565b81146109da57600080fd5b50565b6000815190506109ec816109c6565b92915050565b600060208284031215610a0857610a076107e6565b5b6000610a16848285016109dd565b91505092915050565b6000610a2a82610756565b9150610a3583610756565b9250828201905080821115610a4d57610a4c6108ed565b5b9291505056fea264697066735822122036d1f02975b86d8c1676064ce97fd564fe0e87bbbc15ca34c222651d818ad19d64736f6c63430008180033",
  "linkReferences": {},
  "deployedLinkReferences": {}
}