{
  "_format": "hh-sol-artifact-1",
  "contractName": "ICO",
  "sourceName": "contracts/ICO.sol",
  "abi": [
    {
      "inputs": [
        {
          "internalType": "address",
          "name": "_tokenAddress",
          "type": "address"
        }
      ],
      "stateMutability": "nonpayable",
      "type": "constructor"
    },
    {
      "inputs": [],
      "name": "EnforcedPause",
      "type": "error"
    },
    {
      "inputs": [],
      "name": "ExpectedPause",
      "type": "error"
    },
    {
      "inputs": [
        {
          "internalType": "address",
          "name": "owner",
          "type": "address"
        }
      ],
      "name": "OwnableInvalidOwner",
      "type": "error"
    },
    {
      "inputs": [
        {
          "internalType": "address",
          "name": "account",
          "type": "address"
        }
      ],
      "name": "OwnableUnauthorizedAccount",
      "type": "error"
    },
    {
      "anonymous": false,
      "inputs": [
        {
          "indexed": true,
          "internalType": "address",
          "name": "previousOwner",
          "type": "address"
        },
        {
          "indexed": true,
          "internalType": "address",
          "name": "newOwner",
          "type": "address"
        }
      ],
      "name": "OwnershipTransferred",
      "type": "event"
    },
    {
      "anonymous": false,
      "inputs": [
        {
          "indexed": false,
          "internalType": "address",
          "name": "account",
          "type": "address"
        }
      ],
      "name": "Paused",
      "type": "event"
    },
    {
      "anonymous": false,
      "inputs": [
        {
          "indexed": true,
          "internalType": "address",
          "name": "buyer",
          "type": "address"
        },
        {
          "indexed": false,
          "internalType": "uint256",
          "name": "amount",
          "type": "uint256"
        },
        {
          "indexed": false,
          "internalType": "uint256",
          "name": "cost",
          "type": "uint256"
        }
      ],
      "name": "TokensPurchased",
      "type": "event"
    },
    {
      "anonymous": false,
      "inputs": [
        {
          "indexed": false,
          "internalType": "address",
          "name": "account",
          "type": "address"
        }
      ],
      "name": "Unpaused",
      "type": "event"
    },
    {
      "inputs": [],
      "name": "basePrice",
      "outputs": [
        {
          "internalType": "uint256",
          "name": "",
          "type": "uint256"
        }
      ],
      "stateMutability": "view",
      "type": "function"
    },
    {
      "inputs": [],
      "name": "buyToken",
      "outputs": [],
      "stateMutability": "payable",
      "type": "function"
    },
    {
      "inputs": [],
      "name": "owner",
      "outputs": [
        {
          "internalType": "address",
          "name": "",
          "type": "address"
        }
      ],
      "stateMutability": "view",
      "type": "function"
    },
    {
      "inputs": [],
      "name": "pause",
      "outputs": [],
      "stateMutability": "nonpayable",
      "type": "function"
    },
    {
      "inputs": [],
      "name": "paused",
      "outputs": [
        {
          "internalType": "bool",
          "name": "",
          "type": "bool"
        }
      ],
      "stateMutability": "view",
      "type": "function"
    },
    {
      "inputs": [
        {
          "internalType": "uint256",
          "name": "",
          "type": "uint256"
        }
      ],
      "name": "phaseCap",
      "outputs": [
        {
          "internalType": "uint256",
          "name": "",
          "type": "uint256"
        }
      ],
      "stateMutability": "view",
      "type": "function"
    },
    {
      "inputs": [
        {
          "internalType": "uint256",
          "name": "",
          "type": "uint256"
        }
      ],
      "name": "phasePriceMultiplier",
      "outputs": [
        {
          "internalType": "uint256",
          "name": "",
          "type": "uint256"
        }
      ],
      "stateMutability": "view",
      "type": "function"
    },
    {
      "inputs": [],
      "name": "renounceOwnership",
      "outputs": [],
      "stateMutability": "nonpayable",
      "type": "function"
    },
    {
      "inputs": [],
      "name": "salePhase",
      "outputs": [
        {
          "internalType": "uint256",
          "name": "",
          "type": "uint256"
        }
      ],
      "stateMutability": "view",
      "type": "function"
    },
    {
      "inputs": [
        {
          "internalType": "uint256",
          "name": "_newBasePrice",
          "type": "uint256"
        }
      ],
      "name": "setBasePrice",
      "outputs": [],
      "stateMutability": "nonpayable",
      "type": "function"
    },
    {
      "inputs": [
        {
          "internalType": "uint256",
          "name": "_phase",
          "type": "uint256"
        },
        {
          "internalType": "uint256",
          "name": "_multiplier",
          "type": "uint256"
        },
        {
          "internalType": "uint256",
          "name": "_cap",
          "type": "uint256"
        }
      ],
      "name": "setPhase",
      "outputs": [],
      "stateMutability": "nonpayable",
      "type": "function"
    },
    {
      "inputs": [],
      "name": "token",
      "outputs": [
        {
          "internalType": "contract IERC20",
          "name": "",
          "type": "address"
        }
      ],
      "stateMutability": "view",
      "type": "function"
    },
    {
      "inputs": [],
      "name": "totalTokensSold",
      "outputs": [
        {
          "internalType": "uint256",
          "name": "",
          "type": "uint256"
        }
      ],
      "stateMutability": "view",
      "type": "function"
    },
    {
      "inputs": [
        {
          "internalType": "address",
          "name": "newOwner",
          "type": "address"
        }
      ],
      "name": "transferOwnership",
      "outputs": [],
      "stateMutability": "nonpayable",
      "type": "function"
    },
    {
      "inputs": [],
      "name": "unpause",
      "outputs": [],
      "stateMutability": "nonpayable",
      "type": "function"
    },
    {
      "inputs": [],
      "name": "withdrawal",
      "outputs": [],
      "stateMutability": "nonpayable",
      "type": "function"
    }
  ],
  "bytecode": "0x6080604052670de0b6b3a764000060025560016004553480156200002257600080fd5b506040516200151438038062001514833981810160405281019062000048919062000318565b3360008060006101000a81548160ff021916908315150217905550600073ffffffffffffffffffffffffffffffffffffffff168173ffffffffffffffffffffffffffffffffffffffff1603620000d85760006040517f1e4fbdf7000000000000000000000000000000000000000000000000000000008152600401620000cf91906200035b565b60405180910390fd5b620000e981620001e960201b60201c565b5080600160006101000a81548173ffffffffffffffffffffffffffffffffffffffff021916908373ffffffffffffffffffffffffffffffffffffffff160217905550606460056000600181526020019081526020016000208190555069021e19e0c9bab2400000600660006001815260200190815260200160002081905550609660056000600281526020019081526020016000208190555069065a4da25d3016c0000060066000600281526020019081526020016000208190555060c8600560006003815260200190815260200160002081905550690cb49b44ba602d8000006006600060038152602001908152602001600020819055505062000378565b60008060019054906101000a900473ffffffffffffffffffffffffffffffffffffffff16905081600060016101000a81548173ffffffffffffffffffffffffffffffffffffffff021916908373ffffffffffffffffffffffffffffffffffffffff1602179055508173ffffffffffffffffffffffffffffffffffffffff168173ffffffffffffffffffffffffffffffffffffffff167f8be0079c531659141344cd1fd0a4f28419497f9722a3daafe3b4186f6b6457e060405160405180910390a35050565b600080fd5b600073ffffffffffffffffffffffffffffffffffffffff82169050919050565b6000620002e082620002b3565b9050919050565b620002f281620002d3565b8114620002fe57600080fd5b50565b6000815190506200031281620002e7565b92915050565b600060208284031215620003315762000330620002ae565b5b6000620003418482850162000301565b91505092915050565b6200035581620002d3565b82525050565b60006020820190506200037260008301846200034a565b92915050565b61118c80620003886000396000f3fe6080604052600436106100f35760003560e01c8063a48217191161008a578063e4f2487a11610059578063e4f2487a146102ad578063f2fde38b146102d8578063f724ae1f14610301578063fc0c546a1461032a576100f3565b8063a482171914610238578063c7876ea414610242578063d4e932921461026d578063de4b326214610284576100f3565b806363b20117116100c657806363b20117146101b4578063715018a6146101df5780638456cb59146101f65780638da5cb5b1461020d576100f3565b8063082e0e8e146100f85780633f4ba83a1461013557806344ee9fe71461014c5780635c975abb14610189575b600080fd5b34801561010457600080fd5b5061011f600480360381019061011a9190610b84565b610355565b60405161012c9190610bc0565b60405180910390f35b34801561014157600080fd5b5061014a61036d565b005b34801561015857600080fd5b50610173600480360381019061016e9190610b84565b61037f565b6040516101809190610bc0565b60405180910390f35b34801561019557600080fd5b5061019e610397565b6040516101ab9190610bf6565b60405180910390f35b3480156101c057600080fd5b506101c96103ad565b6040516101d69190610bc0565b60405180910390f35b3480156101eb57600080fd5b506101f46103b3565b005b34801561020257600080fd5b5061020b6103c7565b005b34801561021957600080fd5b506102226103d9565b60405161022f9190610c52565b60405180910390f35b610240610402565b005b34801561024e57600080fd5b50610257610751565b6040516102649190610bc0565b60405180910390f35b34801561027957600080fd5b50610282610757565b005b34801561029057600080fd5b506102ab60048036038101906102a69190610b84565b6107af565b005b3480156102b957600080fd5b506102c26107c1565b6040516102cf9190610bc0565b60405180910390f35b3480156102e457600080fd5b506102ff60048036038101906102fa9190610c99565b6107c7565b005b34801561030d57600080fd5b5061032860048036038101906103239190610cc6565b61084d565b005b34801561033657600080fd5b5061033f61088a565b60405161034c9190610d78565b60405180910390f35b60066020528060005260406000206000915090505481565b6103756108b0565b61037d610937565b565b60056020528060005260406000206000915090505481565b60008060009054906101000a900460ff16905090565b60035481565b6103bb6108b0565b6103c56000610999565b565b6103cf6108b0565b6103d7610a5e565b565b60008060019054906101000a900473ffffffffffffffffffffffffffffffffffffffff16905090565b61040a610ac0565b600034905060008111610452576040517f08c379a000000000000000000000000000000000000000000000000000000000815260040161044990610df0565b60405180910390fd5b60006064600560006004548152602001908152602001600020546002546104799190610e3f565b6104839190610eb0565b9050600081670de0b6b3a76400008461049c9190610e3f565b6104a69190610eb0565b905080600160009054906101000a900473ffffffffffffffffffffffffffffffffffffffff1673ffffffffffffffffffffffffffffffffffffffff166370a082316104ef6103d9565b6040518263ffffffff1660e01b815260040161050b9190610c52565b602060405180830381865afa158015610528573d6000803e3d6000fd5b505050506040513d601f19601f8201168201806040525081019061054c9190610ef6565b101561058d576040517f08c379a000000000000000000000000000000000000000000000000000000000815260040161058490610f95565b60405180910390fd5b60066000600454815260200190815260200160002054816003546105b19190610fb5565b11156105f2576040517f08c379a00000000000000000000000000000000000000000000000000000000081526004016105e990611035565b60405180910390fd5b600160009054906101000a900473ffffffffffffffffffffffffffffffffffffffff1673ffffffffffffffffffffffffffffffffffffffff166323b872dd6106386103d9565b33846040518463ffffffff1660e01b815260040161065893929190611055565b6020604051808303816000875af1158015610677573d6000803e3d6000fd5b505050506040513d601f19601f8201168201806040525081019061069b91906110b8565b5080600360008282546106ae9190610fb5565b9250508190555060066000600454815260200190815260200160002054600354101580156106de57506003600454105b156106fc57600460008154809291906106f6906110e5565b91905055505b3373ffffffffffffffffffffffffffffffffffffffff167f8fafebcaf9d154343dad25669bfa277f4fbacd7ac6b0c4fed522580e040a0f33828560405161074492919061112d565b60405180910390a2505050565b60025481565b61075f6108b0565b6107676103d9565b73ffffffffffffffffffffffffffffffffffffffff166108fc479081150290604051600060405180830381858888f193505050501580156107ac573d6000803e3d6000fd5b50565b6107b76108b0565b8060028190555050565b60045481565b6107cf6108b0565b600073ffffffffffffffffffffffffffffffffffffffff168173ffffffffffffffffffffffffffffffffffffffff16036108415760006040517f1e4fbdf70000000000000000000000000000000000000000000000000000000081526004016108389190610c52565b60405180910390fd5b61084a81610999565b50565b6108556108b0565b816005600085815260200190815260200160002081905550806006600085815260200190815260200160002081905550505050565b600160009054906101000a900473ffffffffffffffffffffffffffffffffffffffff1681565b6108b8610b01565b73ffffffffffffffffffffffffffffffffffffffff166108d66103d9565b73ffffffffffffffffffffffffffffffffffffffff1614610935576108f9610b01565b6040517f118cdaa700000000000000000000000000000000000000000000000000000000815260040161092c9190610c52565b60405180910390fd5b565b61093f610b09565b60008060006101000a81548160ff0219169083151502179055507f5db9ee0a495bf2e6ff9c91a7834c1ba4fdd244a5e8aa4e537bd38aeae4b073aa610982610b01565b60405161098f9190610c52565b60405180910390a1565b60008060019054906101000a900473ffffffffffffffffffffffffffffffffffffffff16905081600060016101000a81548173ffffffffffffffffffffffffffffffffffffffff021916908373ffffffffffffffffffffffffffffffffffffffff1602179055508173ffffffffffffffffffffffffffffffffffffffff168173ffffffffffffffffffffffffffffffffffffffff167f8be0079c531659141344cd1fd0a4f28419497f9722a3daafe3b4186f6b6457e060405160405180910390a35050565b610a66610ac0565b60016000806101000a81548160ff0219169083151502179055507f62e78cea01bee320cd4e420270b5ea74000d11b0c9f74754ebdbfc544b05a258610aa9610b01565b604051610ab69190610c52565b60405180910390a1565b610ac8610397565b15610aff576040517fd93c066500000000000000000000000000000000000000000000000000000000815260040160405180910390fd5b565b600033905090565b610b11610397565b610b47576040517f8dfc202b00000000000000000000000000000000000000000000000000000000815260040160405180910390fd5b565b600080fd5b6000819050919050565b610b6181610b4e565b8114610b6c57600080fd5b50565b600081359050610b7e81610b58565b92915050565b600060208284031215610b9a57610b99610b49565b5b6000610ba884828501610b6f565b91505092915050565b610bba81610b4e565b82525050565b6000602082019050610bd56000830184610bb1565b92915050565b60008115159050919050565b610bf081610bdb565b82525050565b6000602082019050610c0b6000830184610be7565b92915050565b600073ffffffffffffffffffffffffffffffffffffffff82169050919050565b6000610c3c82610c11565b9050919050565b610c4c81610c31565b82525050565b6000602082019050610c676000830184610c43565b92915050565b610c7681610c31565b8114610c8157600080fd5b50565b600081359050610c9381610c6d565b92915050565b600060208284031215610caf57610cae610b49565b5b6000610cbd84828501610c84565b91505092915050565b600080600060608486031215610cdf57610cde610b49565b5b6000610ced86828701610b6f565b9350506020610cfe86828701610b6f565b9250506040610d0f86828701610b6f565b9150509250925092565b6000819050919050565b6000610d3e610d39610d3484610c11565b610d19565b610c11565b9050919050565b6000610d5082610d23565b9050919050565b6000610d6282610d45565b9050919050565b610d7281610d57565b82525050565b6000602082019050610d8d6000830184610d69565b92915050565b600082825260208201905092915050565b7f5061796d656e7420697320726571756972656400000000000000000000000000600082015250565b6000610dda601383610d93565b9150610de582610da4565b602082019050919050565b60006020820190508181036000830152610e0981610dcd565b9050919050565b7f4e487b7100000000000000000000000000000000000000000000000000000000600052601160045260246000fd5b6000610e4a82610b4e565b9150610e5583610b4e565b9250828202610e6381610b4e565b91508282048414831517610e7a57610e79610e10565b5b5092915050565b7f4e487b7100000000000000000000000000000000000000000000000000000000600052601260045260246000fd5b6000610ebb82610b4e565b9150610ec683610b4e565b925082610ed657610ed5610e81565b5b828204905092915050565b600081519050610ef081610b58565b92915050565b600060208284031215610f0c57610f0b610b49565b5b6000610f1a84828501610ee1565b91505092915050565b7f496e73756666696369656e7420746f6b656e7320617661696c61626c6520666f60008201527f722073616c650000000000000000000000000000000000000000000000000000602082015250565b6000610f7f602683610d93565b9150610f8a82610f23565b604082019050919050565b60006020820190508181036000830152610fae81610f72565b9050919050565b6000610fc082610b4e565b9150610fcb83610b4e565b9250828201905080821115610fe357610fe2610e10565b5b92915050565b7f506861736520746f6b656e206361702065786365656465640000000000000000600082015250565b600061101f601883610d93565b915061102a82610fe9565b602082019050919050565b6000602082019050818103600083015261104e81611012565b9050919050565b600060608201905061106a6000830186610c43565b6110776020830185610c43565b6110846040830184610bb1565b949350505050565b61109581610bdb565b81146110a057600080fd5b50565b6000815190506110b28161108c565b92915050565b6000602082840312156110ce576110cd610b49565b5b60006110dc848285016110a3565b91505092915050565b60006110f082610b4e565b91507fffffffffffffffffffffffffffffffffffffffffffffffffffffffffffffffff820361112257611121610e10565b5b600182019050919050565b60006040820190506111426000830185610bb1565b61114f6020830184610bb1565b939250505056fea264697066735822122017fb4136b7f2759012e0e25f9587e7b7d302b1a13f9eeb53efc565f917eb87a464736f6c63430008180033",
  "linkReferences": {},
  "deployedLinkReferences": {}
}