{
  "_format": "hh-sol-artifact-1",
  "contractName": "ICO",
  "sourceName": "contracts/ICO.sol",
  "abi": [
    {
      "inputs": [
        {
          "internalType": "address",
          "name": "_tokenAddress",
          "type": "address"
        }
      ],
      "stateMutability": "nonpayable",
      "type": "constructor"
    },
    {
      "inputs": [],
      "name": "EnforcedPause",
      "type": "error"
    },
    {
      "inputs": [],
      "name": "ExpectedPause",
      "type": "error"
    },
    {
      "inputs": [
        {
          "internalType": "address",
          "name": "owner",
          "type": "address"
        }
      ],
      "name": "OwnableInvalidOwner",
      "type": "error"
    },
    {
      "inputs": [
        {
          "internalType": "address",
          "name": "account",
          "type": "address"
        }
      ],
      "name": "OwnableUnauthorizedAccount",
      "type": "error"
    },
    {
      "anonymous": false,
      "inputs": [
        {
          "indexed": true,
          "internalType": "address",
          "name": "previousOwner",
          "type": "address"
        },
        {
          "indexed": true,
          "internalType": "address",
          "name": "newOwner",
          "type": "address"
        }
      ],
      "name": "OwnershipTransferred",
      "type": "event"
    },
    {
      "anonymous": false,
      "inputs": [
        {
          "indexed": false,
          "internalType": "address",
          "name": "account",
          "type": "address"
        }
      ],
      "name": "Paused",
      "type": "event"
    },
    {
      "anonymous": false,
      "inputs": [
        {
          "indexed": true,
          "internalType": "address",
          "name": "buyer",
          "type": "address"
        },
        {
          "indexed": false,
          "internalType": "uint256",
          "name": "amount",
          "type": "uint256"
        },
        {
          "indexed": false,
          "internalType": "uint256",
          "name": "cost",
          "type": "uint256"
        }
      ],
      "name": "TokensPurchased",
      "type": "event"
    },
    {
      "anonymous": false,
      "inputs": [
        {
          "indexed": true,
          "internalType": "address",
          "name": "seller",
          "type": "address"
        },
        {
          "indexed": false,
          "internalType": "uint256",
          "name": "amount",
          "type": "uint256"
        },
        {
          "indexed": false,
          "internalType": "uint256",
          "name": "revenue",
          "type": "uint256"
        }
      ],
      "name": "TokensSold",
      "type": "event"
    },
    {
      "anonymous": false,
      "inputs": [
        {
          "indexed": false,
          "internalType": "address",
          "name": "account",
          "type": "address"
        }
      ],
      "name": "Unpaused",
      "type": "event"
    },
    {
      "inputs": [],
      "name": "basePrice",
      "outputs": [
        {
          "internalType": "uint256",
          "name": "",
          "type": "uint256"
        }
      ],
      "stateMutability": "view",
      "type": "function"
    },
    {
      "constant": false,
      "inputs": [
        {
          "name": "amount",
          "type": "uint256"
        }
      ],
      "name": "borrowToken",
      "outputs": [],
      "payable": false,
      "stateMutability": "nonpayable",
      "type": "function"
    },
    {
      "inputs": [
        {
          "internalType": "uint256",
          "name": "amount",
          "type": "uint256"
        }
      ],
      "name": "buyToken",
      "outputs": [],
      "stateMutability": "payable",
      "type": "function"
    },
    {
      "inputs": [],
      "name": "lendToken",
      "outputs": [],
      "stateMutability": "payable",
      "type": "function"
    },
    {
      "inputs": [],
      "name": "owner",
      "outputs": [
        {
          "internalType": "address",
          "name": "",
          "type": "address"
        }
      ],
      "stateMutability": "view",
      "type": "function"
    },
    {
      "inputs": [],
      "name": "pause",
      "outputs": [],
      "stateMutability": "nonpayable",
      "type": "function"
    },
    {
      "inputs": [],
      "name": "paused",
      "outputs": [
        {
          "internalType": "bool",
          "name": "",
          "type": "bool"
        }
      ],
      "stateMutability": "view",
      "type": "function"
    },
    {
      "inputs": [
        {
          "internalType": "uint256",
          "name": "",
          "type": "uint256"
        }
      ],
      "name": "phaseCap",
      "outputs": [
        {
          "internalType": "uint256",
          "name": "",
          "type": "uint256"
        }
      ],
      "stateMutability": "view",
      "type": "function"
    },
    {
      "inputs": [
        {
          "internalType": "uint256",
          "name": "",
          "type": "uint256"
        }
      ],
      "name": "phasePriceMultiplier",
      "outputs": [
        {
          "internalType": "uint256",
          "name": "",
          "type": "uint256"
        }
      ],
      "stateMutability": "view",
      "type": "function"
    },
    {
      "inputs": [],
      "name": "renounceOwnership",
      "outputs": [],
      "stateMutability": "nonpayable",
      "type": "function"
    },
    {
      "inputs": [],
      "name": "salePhase",
      "outputs": [
        {
          "internalType": "uint256",
          "name": "",
          "type": "uint256"
        }
      ],
      "stateMutability": "view",
      "type": "function"
    },
    {
      "inputs": [
        {
          "internalType": "uint256",
          "name": "amount",
          "type": "uint256"
        }
      ],
      "name": "sellToken",
      "outputs": [],
      "stateMutability": "nonpayable",
      "type": "function"
    },
    {
      "inputs": [
        {
          "internalType": "uint256",
          "name": "_newBasePrice",
          "type": "uint256"
        }
      ],
      "name": "setBasePrice",
      "outputs": [],
      "stateMutability": "nonpayable",
      "type": "function"
    },
    {
      "inputs": [
        {
          "internalType": "uint256",
          "name": "_phase",
          "type": "uint256"
        },
        {
          "internalType": "uint256",
          "name": "_multiplier",
          "type": "uint256"
        },
        {
          "internalType": "uint256",
          "name": "_cap",
          "type": "uint256"
        }
      ],
      "name": "setPhase",
      "outputs": [],
      "stateMutability": "nonpayable",
      "type": "function"
    },
    {
      "inputs": [],
      "name": "token",
      "outputs": [
        {
          "internalType": "contract IERC20",
          "name": "",
          "type": "address"
        }
      ],
      "stateMutability": "view",
      "type": "function"
    },
    {
      "inputs": [],
      "name": "totalTokensSold",
      "outputs": [
        {
          "internalType": "uint256",
          "name": "",
          "type": "uint256"
        }
      ],
      "stateMutability": "view",
      "type": "function"
    },
    {
      "inputs": [
        {
          "internalType": "address",
          "name": "newOwner",
          "type": "address"
        }
      ],
      "name": "transferOwnership",
      "outputs": [],
      "stateMutability": "nonpayable",
      "type": "function"
    },
    {
      "inputs": [],
      "name": "unpause",
      "outputs": [],
      "stateMutability": "nonpayable",
      "type": "function"
    },
    {
      "inputs": [],
      "name": "withdrawal",
      "outputs": [],
      "stateMutability": "nonpayable",
      "type": "function"
    }
  ],
  "bytecode": "0x6080604052670de0b6b3a764000060025560016004553480156200002257600080fd5b50604051620020c9380380620020c9833981810160405281019062000048919062000318565b3360008060006101000a81548160ff021916908315150217905550600073ffffffffffffffffffffffffffffffffffffffff168173ffffffffffffffffffffffffffffffffffffffff1603620000d85760006040517f1e4fbdf7000000000000000000000000000000000000000000000000000000008152600401620000cf91906200035b565b60405180910390fd5b620000e981620001e960201b60201c565b5080600160006101000a81548173ffffffffffffffffffffffffffffffffffffffff021916908373ffffffffffffffffffffffffffffffffffffffff160217905550606460056000600181526020019081526020016000208190555069021e19e0c9bab2400000600660006001815260200190815260200160002081905550609660056000600281526020019081526020016000208190555069065a4da25d3016c0000060066000600281526020019081526020016000208190555060c8600560006003815260200190815260200160002081905550690cb49b44ba602d8000006006600060038152602001908152602001600020819055505062000378565b60008060019054906101000a900473ffffffffffffffffffffffffffffffffffffffff16905081600060016101000a81548173ffffffffffffffffffffffffffffffffffffffff021916908373ffffffffffffffffffffffffffffffffffffffff1602179055508173ffffffffffffffffffffffffffffffffffffffff168173ffffffffffffffffffffffffffffffffffffffff167f8be0079c531659141344cd1fd0a4f28419497f9722a3daafe3b4186f6b6457e060405160405180910390a35050565b600080fd5b600073ffffffffffffffffffffffffffffffffffffffff82169050919050565b6000620002e082620002b3565b9050919050565b620002f281620002d3565b8114620002fe57600080fd5b50565b6000815190506200031281620002e7565b92915050565b600060208284031215620003315762000330620002ae565b5b6000620003418482850162000301565b91505092915050565b6200035581620002d3565b82525050565b60006020820190506200037260008301846200034a565b92915050565b611d4180620003886000396000f3fe6080604052600436106101145760003560e01c8063715018a6116100a0578063de4b326211610064578063de4b326214610313578063e4f2487a1461033c578063f2fde38b14610367578063f724ae1f14610390578063fc0c546a146103b957610114565b8063715018a6146102785780638456cb591461028f5780638da5cb5b146102a6578063c7876ea4146102d1578063d4e93292146102fc57610114565b80632d296bf1116100e75780632d296bf1146101b25780633f4ba83a146101ce57806344ee9fe7146101e55780635c975abb1461022257806363b201171461024d57610114565b8063082e0e8e14610119578063092f5776146101565780631d4b15191461017f5780632397e4d714610189575b600080fd5b34801561012557600080fd5b50610140600480360381019061013b91906114d1565b6103e4565b60405161014d919061150d565b60405180910390f35b34801561016257600080fd5b5061017d600480360381019061017891906114d1565b6103fc565b005b610187610626565b005b34801561019557600080fd5b506101b060048036038101906101ab91906114d1565b610975565b005b6101cc60048036038101906101c791906114d1565b610c7d565b005b3480156101da57600080fd5b506101e3611009565b005b3480156101f157600080fd5b5061020c600480360381019061020791906114d1565b61101b565b604051610219919061150d565b60405180910390f35b34801561022e57600080fd5b50610237611033565b6040516102449190611543565b60405180910390f35b34801561025957600080fd5b50610262611049565b60405161026f919061150d565b60405180910390f35b34801561028457600080fd5b5061028d61104f565b005b34801561029b57600080fd5b506102a4611063565b005b3480156102b257600080fd5b506102bb611075565b6040516102c8919061159f565b60405180910390f35b3480156102dd57600080fd5b506102e661109e565b6040516102f3919061150d565b60405180910390f35b34801561030857600080fd5b506103116110a4565b005b34801561031f57600080fd5b5061033a600480360381019061033591906114d1565b6110fc565b005b34801561034857600080fd5b5061035161110e565b60405161035e919061150d565b60405180910390f35b34801561037357600080fd5b5061038e600480360381019061038991906115e6565b611114565b005b34801561039c57600080fd5b506103b760048036038101906103b29190611613565b61119a565b005b3480156103c557600080fd5b506103ce6111d7565b6040516103db91906116c5565b60405180910390f35b60066020528060005260406000206000915090505481565b6104046111fd565b60008111610447576040517f08c379a000000000000000000000000000000000000000000000000000000000815260040161043e9061173d565b60405180910390fd5b600060646005600060045481526020019081526020016000205460025461046e919061178c565b61047891906117fd565b90506000670de0b6b3a76400008284610491919061178c565b61049b91906117fd565b9050804710156104e0576040517f08c379a00000000000000000000000000000000000000000000000000000000081526004016104d7906118a0565b60405180910390fd5b600160009054906101000a900473ffffffffffffffffffffffffffffffffffffffff1673ffffffffffffffffffffffffffffffffffffffff166323b872dd33610527611075565b866040518463ffffffff1660e01b8152600401610546939291906118c0565b6020604051808303816000875af1158015610565573d6000803e3d6000fd5b505050506040513d601f19601f820116820180604052508101906105899190611923565b503373ffffffffffffffffffffffffffffffffffffffff166108fc829081150290604051600060405180830381858888f193505050501580156105d0573d6000803e3d6000fd5b503373ffffffffffffffffffffffffffffffffffffffff167f8fafebcaf9d154343dad25669bfa277f4fbacd7ac6b0c4fed522580e040a0f338483604051610619929190611950565b60405180910390a2505050565b61062e6111fd565b600034905060008111610676576040517f08c379a000000000000000000000000000000000000000000000000000000000815260040161066d906119c5565b60405180910390fd5b600060646005600060045481526020019081526020016000205460025461069d919061178c565b6106a791906117fd565b9050600081670de0b6b3a7640000846106c0919061178c565b6106ca91906117fd565b905080600160009054906101000a900473ffffffffffffffffffffffffffffffffffffffff1673ffffffffffffffffffffffffffffffffffffffff166370a08231610713611075565b6040518263ffffffff1660e01b815260040161072f919061159f565b602060405180830381865afa15801561074c573d6000803e3d6000fd5b505050506040513d601f19601f8201168201806040525081019061077091906119fa565b10156107b1576040517f08c379a00000000000000000000000000000000000000000000000000000000081526004016107a890611a99565b60405180910390fd5b60066000600454815260200190815260200160002054816003546107d59190611ab9565b1115610816576040517f08c379a000000000000000000000000000000000000000000000000000000000815260040161080d90611b39565b60405180910390fd5b600160009054906101000a900473ffffffffffffffffffffffffffffffffffffffff1673ffffffffffffffffffffffffffffffffffffffff166323b872dd61085c611075565b33846040518463ffffffff1660e01b815260040161087c939291906118c0565b6020604051808303816000875af115801561089b573d6000803e3d6000fd5b505050506040513d601f19601f820116820180604052508101906108bf9190611923565b5080600360008282546108d29190611ab9565b92505081905550600660006004548152602001908152602001600020546003541015801561090257506003600454105b15610920576004600081548092919061091a90611b59565b91905055505b3373ffffffffffffffffffffffffffffffffffffffff167f8fafebcaf9d154343dad25669bfa277f4fbacd7ac6b0c4fed522580e040a0f338285604051610968929190611950565b60405180910390a2505050565b61097d6111fd565b600081116109c0576040517f08c379a00000000000000000000000000000000000000000000000000000000081526004016109b79061173d565b60405180910390fd5b80600160009054906101000a900473ffffffffffffffffffffffffffffffffffffffff1673ffffffffffffffffffffffffffffffffffffffff166370a08231336040518263ffffffff1660e01b8152600401610a1c919061159f565b602060405180830381865afa158015610a39573d6000803e3d6000fd5b505050506040513d601f19601f82011682018060405250810190610a5d91906119fa565b1015610a9e576040517f08c379a0000000000000000000000000000000000000000000000000000000008152600401610a9590611bed565b60405180910390fd5b6000606460056000600454815260200190815260200160002054600254610ac5919061178c565b610acf91906117fd565b90506000670de0b6b3a76400008284610ae8919061178c565b610af291906117fd565b905080471015610b37576040517f08c379a0000000000000000000000000000000000000000000000000000000008152600401610b2e90611c7f565b60405180910390fd5b600160009054906101000a900473ffffffffffffffffffffffffffffffffffffffff1673ffffffffffffffffffffffffffffffffffffffff166323b872dd33610b7e611075565b866040518463ffffffff1660e01b8152600401610b9d939291906118c0565b6020604051808303816000875af1158015610bbc573d6000803e3d6000fd5b505050506040513d601f19601f82011682018060405250810190610be09190611923565b503373ffffffffffffffffffffffffffffffffffffffff166108fc829081150290604051600060405180830381858888f19350505050158015610c27573d6000803e3d6000fd5b503373ffffffffffffffffffffffffffffffffffffffff167f2dcf9433d75db0d8b1c172641f85e319ffe4ad22e108a95d1847ceb906e5195d8483604051610c70929190611950565b60405180910390a2505050565b610c856111fd565b60008111610cc8576040517f08c379a0000000000000000000000000000000000000000000000000000000008152600401610cbf9061173d565b60405180910390fd5b6000606460056000600454815260200190815260200160002054600254610cef919061178c565b610cf991906117fd565b90506000670de0b6b3a76400008284610d12919061178c565b610d1c91906117fd565b9050803414610d60576040517f08c379a0000000000000000000000000000000000000000000000000000000008152600401610d5790611ceb565b60405180910390fd5b82600160009054906101000a900473ffffffffffffffffffffffffffffffffffffffff1673ffffffffffffffffffffffffffffffffffffffff166370a08231610da7611075565b6040518263ffffffff1660e01b8152600401610dc3919061159f565b602060405180830381865afa158015610de0573d6000803e3d6000fd5b505050506040513d601f19601f82011682018060405250810190610e0491906119fa565b1015610e45576040517f08c379a0000000000000000000000000000000000000000000000000000000008152600401610e3c90611a99565b60405180910390fd5b6006600060045481526020019081526020016000205483600354610e699190611ab9565b1115610eaa576040517f08c379a0000000000000000000000000000000000000000000000000000000008152600401610ea190611b39565b60405180910390fd5b600160009054906101000a900473ffffffffffffffffffffffffffffffffffffffff1673ffffffffffffffffffffffffffffffffffffffff166323b872dd610ef0611075565b33866040518463ffffffff1660e01b8152600401610f10939291906118c0565b6020604051808303816000875af1158015610f2f573d6000803e3d6000fd5b505050506040513d601f19601f82011682018060405250810190610f539190611923565b508260036000828254610f669190611ab9565b925050819055506006600060045481526020019081526020016000205460035410158015610f9657506003600454105b15610fb45760046000815480929190610fae90611b59565b91905055505b3373ffffffffffffffffffffffffffffffffffffffff167f8fafebcaf9d154343dad25669bfa277f4fbacd7ac6b0c4fed522580e040a0f338483604051610ffc929190611950565b60405180910390a2505050565b61101161123e565b6110196112c5565b565b60056020528060005260406000206000915090505481565b60008060009054906101000a900460ff16905090565b60035481565b61105761123e565b6110616000611327565b565b61106b61123e565b6110736113ec565b565b60008060019054906101000a900473ffffffffffffffffffffffffffffffffffffffff16905090565b60025481565b6110ac61123e565b6110b4611075565b73ffffffffffffffffffffffffffffffffffffffff166108fc479081150290604051600060405180830381858888f193505050501580156110f9573d6000803e3d6000fd5b50565b61110461123e565b8060028190555050565b60045481565b61111c61123e565b600073ffffffffffffffffffffffffffffffffffffffff168173ffffffffffffffffffffffffffffffffffffffff160361118e5760006040517f1e4fbdf7000000000000000000000000000000000000000000000000000000008152600401611185919061159f565b60405180910390fd5b61119781611327565b50565b6111a261123e565b816005600085815260200190815260200160002081905550806006600085815260200190815260200160002081905550505050565b600160009054906101000a900473ffffffffffffffffffffffffffffffffffffffff1681565b611205611033565b1561123c576040517fd93c066500000000000000000000000000000000000000000000000000000000815260040160405180910390fd5b565b61124661144e565b73ffffffffffffffffffffffffffffffffffffffff16611264611075565b73ffffffffffffffffffffffffffffffffffffffff16146112c35761128761144e565b6040517f118cdaa70000000000000000000000000000000000000000000000000000000081526004016112ba919061159f565b60405180910390fd5b565b6112cd611456565b60008060006101000a81548160ff0219169083151502179055507f5db9ee0a495bf2e6ff9c91a7834c1ba4fdd244a5e8aa4e537bd38aeae4b073aa61131061144e565b60405161131d919061159f565b60405180910390a1565b60008060019054906101000a900473ffffffffffffffffffffffffffffffffffffffff16905081600060016101000a81548173ffffffffffffffffffffffffffffffffffffffff021916908373ffffffffffffffffffffffffffffffffffffffff1602179055508173ffffffffffffffffffffffffffffffffffffffff168173ffffffffffffffffffffffffffffffffffffffff167f8be0079c531659141344cd1fd0a4f28419497f9722a3daafe3b4186f6b6457e060405160405180910390a35050565b6113f46111fd565b60016000806101000a81548160ff0219169083151502179055507f62e78cea01bee320cd4e420270b5ea74000d11b0c9f74754ebdbfc544b05a25861143761144e565b604051611444919061159f565b60405180910390a1565b600033905090565b61145e611033565b611494576040517f8dfc202b00000000000000000000000000000000000000000000000000000000815260040160405180910390fd5b565b600080fd5b6000819050919050565b6114ae8161149b565b81146114b957600080fd5b50565b6000813590506114cb816114a5565b92915050565b6000602082840312156114e7576114e6611496565b5b60006114f5848285016114bc565b91505092915050565b6115078161149b565b82525050565b600060208201905061152260008301846114fe565b92915050565b60008115159050919050565b61153d81611528565b82525050565b60006020820190506115586000830184611534565b92915050565b600073ffffffffffffffffffffffffffffffffffffffff82169050919050565b60006115898261155e565b9050919050565b6115998161157e565b82525050565b60006020820190506115b46000830184611590565b92915050565b6115c38161157e565b81146115ce57600080fd5b50565b6000813590506115e0816115ba565b92915050565b6000602082840312156115fc576115fb611496565b5b600061160a848285016115d1565b91505092915050565b60008060006060848603121561162c5761162b611496565b5b600061163a868287016114bc565b935050602061164b868287016114bc565b925050604061165c868287016114bc565b9150509250925092565b6000819050919050565b600061168b6116866116818461155e565b611666565b61155e565b9050919050565b600061169d82611670565b9050919050565b60006116af82611692565b9050919050565b6116bf816116a4565b82525050565b60006020820190506116da60008301846116b6565b92915050565b600082825260208201905092915050565b7f416d6f756e74206d7573742062652067726561746572207468616e207a65726f600082015250565b60006117276020836116e0565b9150611732826116f1565b602082019050919050565b600060208201905081810360008301526117568161171a565b9050919050565b7f4e487b7100000000000000000000000000000000000000000000000000000000600052601160045260246000fd5b60006117978261149b565b91506117a28361149b565b92508282026117b08161149b565b915082820484148315176117c7576117c661175d565b5b5092915050565b7f4e487b7100000000000000000000000000000000000000000000000000000000600052601260045260246000fd5b60006118088261149b565b91506118138361149b565b925082611823576118226117ce565b5b828204905092915050565b7f496e73756666696369656e742062616c616e636520696e2074686520636f6e7460008201527f7261637400000000000000000000000000000000000000000000000000000000602082015250565b600061188a6024836116e0565b91506118958261182e565b604082019050919050565b600060208201905081810360008301526118b98161187d565b9050919050565b60006060820190506118d56000830186611590565b6118e26020830185611590565b6118ef60408301846114fe565b949350505050565b61190081611528565b811461190b57600080fd5b50565b60008151905061191d816118f7565b92915050565b60006020828403121561193957611938611496565b5b60006119478482850161190e565b91505092915050565b600060408201905061196560008301856114fe565b61197260208301846114fe565b9392505050565b7f5061796d656e7420697320726571756972656400000000000000000000000000600082015250565b60006119af6013836116e0565b91506119ba82611979565b602082019050919050565b600060208201905081810360008301526119de816119a2565b9050919050565b6000815190506119f4816114a5565b92915050565b600060208284031215611a1057611a0f611496565b5b6000611a1e848285016119e5565b91505092915050565b7f496e73756666696369656e7420746f6b656e7320617661696c61626c6520666f60008201527f722073616c650000000000000000000000000000000000000000000000000000602082015250565b6000611a836026836116e0565b9150611a8e82611a27565b604082019050919050565b60006020820190508181036000830152611ab281611a76565b9050919050565b6000611ac48261149b565b9150611acf8361149b565b9250828201905080821115611ae757611ae661175d565b5b92915050565b7f506861736520746f6b656e206361702065786365656465640000000000000000600082015250565b6000611b236018836116e0565b9150611b2e82611aed565b602082019050919050565b60006020820190508181036000830152611b5281611b16565b9050919050565b6000611b648261149b565b91507fffffffffffffffffffffffffffffffffffffffffffffffffffffffffffffffff8203611b9657611b9561175d565b5b600182019050919050565b7f496e73756666696369656e7420746f6b656e2062616c616e6365000000000000600082015250565b6000611bd7601a836116e0565b9150611be282611ba1565b602082019050919050565b60006020820190508181036000830152611c0681611bca565b9050919050565b7f496e73756666696369656e74204554482062616c616e636520696e207468652060008201527f636f6e7472616374000000000000000000000000000000000000000000000000602082015250565b6000611c696028836116e0565b9150611c7482611c0d565b604082019050919050565b60006020820190508181036000830152611c9881611c5c565b9050919050565b7f496e636f72726563742045544820616d6f756e742073656e7400000000000000600082015250565b6000611cd56019836116e0565b9150611ce082611c9f565b602082019050919050565b60006020820190508181036000830152611d0481611cc8565b905091905056fea26469706673582212208fd8daa81932ca2d74d9b5a5b1039f1b8d5ef2d43b89bfc813373cec232497d364736f6c63430008180033",
  "linkReferences": {},
  "deployedLinkReferences": {}
}