{
  "_format": "hh-sol-artifact-1",
  "contractName": "ICO",
  "sourceName": "contracts/ICO.sol",
  "abi": [
    {
      "inputs": [
        {
          "internalType": "address",
          "name": "_tokenAddress",
          "type": "address"
        }
      ],
      "stateMutability": "nonpayable",
      "type": "constructor"
    },
    {
      "inputs": [],
      "name": "EnforcedPause",
      "type": "error"
    },
    {
      "inputs": [],
      "name": "ExpectedPause",
      "type": "error"
    },
    {
      "inputs": [
        {
          "internalType": "address",
          "name": "owner",
          "type": "address"
        }
      ],
      "name": "OwnableInvalidOwner",
      "type": "error"
    },
    {
      "inputs": [
        {
          "internalType": "address",
          "name": "account",
          "type": "address"
        }
      ],
      "name": "OwnableUnauthorizedAccount",
      "type": "error"
    },
    {
      "anonymous": false,
      "inputs": [
        {
          "indexed": true,
          "internalType": "address",
          "name": "previousOwner",
          "type": "address"
        },
        {
          "indexed": true,
          "internalType": "address",
          "name": "newOwner",
          "type": "address"
        }
      ],
      "name": "OwnershipTransferred",
      "type": "event"
    },
    {
      "anonymous": false,
      "inputs": [
        {
          "indexed": false,
          "internalType": "address",
          "name": "account",
          "type": "address"
        }
      ],
      "name": "Paused",
      "type": "event"
    },
    {
      "anonymous": false,
      "inputs": [
        {
          "indexed": true,
          "internalType": "address",
          "name": "buyer",
          "type": "address"
        },
        {
          "indexed": false,
          "internalType": "uint256",
          "name": "amount",
          "type": "uint256"
        },
        {
          "indexed": false,
          "internalType": "uint256",
          "name": "cost",
          "type": "uint256"
        }
      ],
      "name": "TokensPurchased",
      "type": "event"
    },
    {
      "anonymous": false,
      "inputs": [
        {
          "indexed": true,
          "internalType": "address",
          "name": "seller",
          "type": "address"
        },
        {
          "indexed": false,
          "internalType": "uint256",
          "name": "amount",
          "type": "uint256"
        },
        {
          "indexed": false,
          "internalType": "uint256",
          "name": "revenue",
          "type": "uint256"
        }
      ],
      "name": "TokensSold",
      "type": "event"
    },
    {
      "anonymous": false,
      "inputs": [
        {
          "indexed": false,
          "internalType": "address",
          "name": "account",
          "type": "address"
        }
      ],
      "name": "Unpaused",
      "type": "event"
    },
    {
      "inputs": [],
      "name": "basePrice",
      "outputs": [
        {
          "internalType": "uint256",
          "name": "",
          "type": "uint256"
        }
      ],
      "stateMutability": "view",
      "type": "function"
    },
    {
      "inputs": [
        {
          "internalType": "uint256",
          "name": "amount",
          "type": "uint256"
        }
      ],
      "name": "borrowToken",
      "outputs": [],
      "stateMutability": "nonpayable",
      "type": "function"
    },
    {
      "inputs": [],
      "name": "buyToken",
      "outputs": [],
      "stateMutability": "payable",
      "type": "function"
    },
    {
      "inputs": [],
      "name": "lendToken",
      "outputs": [],
      "stateMutability": "payable",
      "type": "function"
    },
    {
      "inputs": [],
      "name": "owner",
      "outputs": [
        {
          "internalType": "address",
          "name": "",
          "type": "address"
        }
      ],
      "stateMutability": "view",
      "type": "function"
    },
    {
      "inputs": [],
      "name": "pause",
      "outputs": [],
      "stateMutability": "nonpayable",
      "type": "function"
    },
    {
      "inputs": [],
      "name": "paused",
      "outputs": [
        {
          "internalType": "bool",
          "name": "",
          "type": "bool"
        }
      ],
      "stateMutability": "view",
      "type": "function"
    },
    {
      "inputs": [
        {
          "internalType": "uint256",
          "name": "",
          "type": "uint256"
        }
      ],
      "name": "phaseCap",
      "outputs": [
        {
          "internalType": "uint256",
          "name": "",
          "type": "uint256"
        }
      ],
      "stateMutability": "view",
      "type": "function"
    },
    {
      "inputs": [
        {
          "internalType": "uint256",
          "name": "",
          "type": "uint256"
        }
      ],
      "name": "phasePriceMultiplier",
      "outputs": [
        {
          "internalType": "uint256",
          "name": "",
          "type": "uint256"
        }
      ],
      "stateMutability": "view",
      "type": "function"
    },
    {
      "inputs": [],
      "name": "renounceOwnership",
      "outputs": [],
      "stateMutability": "nonpayable",
      "type": "function"
    },
    {
      "inputs": [],
      "name": "salePhase",
      "outputs": [
        {
          "internalType": "uint256",
          "name": "",
          "type": "uint256"
        }
      ],
      "stateMutability": "view",
      "type": "function"
    },
    {
      "inputs": [
        {
          "internalType": "uint256",
          "name": "amount",
          "type": "uint256"
        }
      ],
      "name": "sellToken",
      "outputs": [],
      "stateMutability": "nonpayable",
      "type": "function"
    },
    {
      "inputs": [
        {
          "internalType": "uint256",
          "name": "_newBasePrice",
          "type": "uint256"
        }
      ],
      "name": "setBasePrice",
      "outputs": [],
      "stateMutability": "nonpayable",
      "type": "function"
    },
    {
      "inputs": [
        {
          "internalType": "uint256",
          "name": "_phase",
          "type": "uint256"
        },
        {
          "internalType": "uint256",
          "name": "_multiplier",
          "type": "uint256"
        },
        {
          "internalType": "uint256",
          "name": "_cap",
          "type": "uint256"
        }
      ],
      "name": "setPhase",
      "outputs": [],
      "stateMutability": "nonpayable",
      "type": "function"
    },
    {
      "inputs": [],
      "name": "token",
      "outputs": [
        {
          "internalType": "contract IERC20",
          "name": "",
          "type": "address"
        }
      ],
      "stateMutability": "view",
      "type": "function"
    },
    {
      "inputs": [],
      "name": "totalTokensSold",
      "outputs": [
        {
          "internalType": "uint256",
          "name": "",
          "type": "uint256"
        }
      ],
      "stateMutability": "view",
      "type": "function"
    },
    {
      "inputs": [
        {
          "internalType": "address",
          "name": "newOwner",
          "type": "address"
        }
      ],
      "name": "transferOwnership",
      "outputs": [],
      "stateMutability": "nonpayable",
      "type": "function"
    },
    {
      "inputs": [],
      "name": "unpause",
      "outputs": [],
      "stateMutability": "nonpayable",
      "type": "function"
    },
    {
      "inputs": [],
      "name": "withdrawal",
      "outputs": [],
      "stateMutability": "nonpayable",
      "type": "function"
    }
  ],
  "bytecode": "0x6080604052670de0b6b3a764000060025560016004553480156200002257600080fd5b5060405162001db838038062001db8833981810160405281019062000048919062000318565b3360008060006101000a81548160ff021916908315150217905550600073ffffffffffffffffffffffffffffffffffffffff168173ffffffffffffffffffffffffffffffffffffffff1603620000d85760006040517f1e4fbdf7000000000000000000000000000000000000000000000000000000008152600401620000cf91906200035b565b60405180910390fd5b620000e981620001e960201b60201c565b5080600160006101000a81548173ffffffffffffffffffffffffffffffffffffffff021916908373ffffffffffffffffffffffffffffffffffffffff160217905550606460056000600181526020019081526020016000208190555069021e19e0c9bab2400000600660006001815260200190815260200160002081905550609660056000600281526020019081526020016000208190555069065a4da25d3016c0000060066000600281526020019081526020016000208190555060c8600560006003815260200190815260200160002081905550690cb49b44ba602d8000006006600060038152602001908152602001600020819055505062000378565b60008060019054906101000a900473ffffffffffffffffffffffffffffffffffffffff16905081600060016101000a81548173ffffffffffffffffffffffffffffffffffffffff021916908373ffffffffffffffffffffffffffffffffffffffff1602179055508173ffffffffffffffffffffffffffffffffffffffff168173ffffffffffffffffffffffffffffffffffffffff167f8be0079c531659141344cd1fd0a4f28419497f9722a3daafe3b4186f6b6457e060405160405180910390a35050565b600080fd5b600073ffffffffffffffffffffffffffffffffffffffff82169050919050565b6000620002e082620002b3565b9050919050565b620002f281620002d3565b8114620002fe57600080fd5b50565b6000815190506200031281620002e7565b92915050565b600060208284031215620003315762000330620002ae565b5b6000620003418482850162000301565b91505092915050565b6200035581620002d3565b82525050565b60006020820190506200037260008301846200034a565b92915050565b611a3080620003886000396000f3fe6080604052600436106101145760003560e01c80638456cb59116100a0578063de4b326211610064578063de4b326214610301578063e4f2487a1461032a578063f2fde38b14610355578063f724ae1f1461037e578063fc0c546a146103a757610114565b80638456cb59146102735780638da5cb5b1461028a578063a4821719146102b5578063c7876ea4146102bf578063d4e93292146102ea57610114565b80633f4ba83a116100e75780633f4ba83a146101b257806344ee9fe7146101c95780635c975abb1461020657806363b2011714610231578063715018a61461025c57610114565b8063082e0e8e14610119578063092f5776146101565780631d4b15191461017f5780632397e4d714610189575b600080fd5b34801561012557600080fd5b50610140600480360381019061013b919061122c565b6103d2565b60405161014d9190611268565b60405180910390f35b34801561016257600080fd5b5061017d6004803603810190610178919061122c565b6103ea565b005b610187610614565b005b34801561019557600080fd5b506101b060048036038101906101ab919061122c565b610963565b005b3480156101be57600080fd5b506101c7610c6b565b005b3480156101d557600080fd5b506101f060048036038101906101eb919061122c565b610c7d565b6040516101fd9190611268565b60405180910390f35b34801561021257600080fd5b5061021b610c95565b604051610228919061129e565b60405180910390f35b34801561023d57600080fd5b50610246610cab565b6040516102539190611268565b60405180910390f35b34801561026857600080fd5b50610271610cb1565b005b34801561027f57600080fd5b50610288610cc5565b005b34801561029657600080fd5b5061029f610cd7565b6040516102ac91906112fa565b60405180910390f35b6102bd610d00565b005b3480156102cb57600080fd5b506102d4610df9565b6040516102e19190611268565b60405180910390f35b3480156102f657600080fd5b506102ff610dff565b005b34801561030d57600080fd5b506103286004803603810190610323919061122c565b610e57565b005b34801561033657600080fd5b5061033f610e69565b60405161034c9190611268565b60405180910390f35b34801561036157600080fd5b5061037c60048036038101906103779190611341565b610e6f565b005b34801561038a57600080fd5b506103a560048036038101906103a0919061136e565b610ef5565b005b3480156103b357600080fd5b506103bc610f32565b6040516103c99190611420565b60405180910390f35b60066020528060005260406000206000915090505481565b6103f2610f58565b60008111610435576040517f08c379a000000000000000000000000000000000000000000000000000000000815260040161042c90611498565b60405180910390fd5b600060646005600060045481526020019081526020016000205460025461045c91906114e7565b6104669190611558565b90506000670de0b6b3a7640000828461047f91906114e7565b6104899190611558565b9050804710156104ce576040517f08c379a00000000000000000000000000000000000000000000000000000000081526004016104c5906115fb565b60405180910390fd5b600160009054906101000a900473ffffffffffffffffffffffffffffffffffffffff1673ffffffffffffffffffffffffffffffffffffffff166323b872dd33610515610cd7565b866040518463ffffffff1660e01b81526004016105349392919061161b565b6020604051808303816000875af1158015610553573d6000803e3d6000fd5b505050506040513d601f19601f82011682018060405250810190610577919061167e565b503373ffffffffffffffffffffffffffffffffffffffff166108fc829081150290604051600060405180830381858888f193505050501580156105be573d6000803e3d6000fd5b503373ffffffffffffffffffffffffffffffffffffffff167f8fafebcaf9d154343dad25669bfa277f4fbacd7ac6b0c4fed522580e040a0f3384836040516106079291906116ab565b60405180910390a2505050565b61061c610f58565b600034905060008111610664576040517f08c379a000000000000000000000000000000000000000000000000000000000815260040161065b90611720565b60405180910390fd5b600060646005600060045481526020019081526020016000205460025461068b91906114e7565b6106959190611558565b9050600081670de0b6b3a7640000846106ae91906114e7565b6106b89190611558565b905080600160009054906101000a900473ffffffffffffffffffffffffffffffffffffffff1673ffffffffffffffffffffffffffffffffffffffff166370a08231610701610cd7565b6040518263ffffffff1660e01b815260040161071d91906112fa565b602060405180830381865afa15801561073a573d6000803e3d6000fd5b505050506040513d601f19601f8201168201806040525081019061075e9190611755565b101561079f576040517f08c379a0000000000000000000000000000000000000000000000000000000008152600401610796906117f4565b60405180910390fd5b60066000600454815260200190815260200160002054816003546107c39190611814565b1115610804576040517f08c379a00000000000000000000000000000000000000000000000000000000081526004016107fb90611894565b60405180910390fd5b600160009054906101000a900473ffffffffffffffffffffffffffffffffffffffff1673ffffffffffffffffffffffffffffffffffffffff166323b872dd61084a610cd7565b33846040518463ffffffff1660e01b815260040161086a9392919061161b565b6020604051808303816000875af1158015610889573d6000803e3d6000fd5b505050506040513d601f19601f820116820180604052508101906108ad919061167e565b5080600360008282546108c09190611814565b9250508190555060066000600454815260200190815260200160002054600354101580156108f057506003600454105b1561090e5760046000815480929190610908906118b4565b91905055505b3373ffffffffffffffffffffffffffffffffffffffff167f8fafebcaf9d154343dad25669bfa277f4fbacd7ac6b0c4fed522580e040a0f3382856040516109569291906116ab565b60405180910390a2505050565b61096b610f58565b600081116109ae576040517f08c379a00000000000000000000000000000000000000000000000000000000081526004016109a590611498565b60405180910390fd5b80600160009054906101000a900473ffffffffffffffffffffffffffffffffffffffff1673ffffffffffffffffffffffffffffffffffffffff166370a08231336040518263ffffffff1660e01b8152600401610a0a91906112fa565b602060405180830381865afa158015610a27573d6000803e3d6000fd5b505050506040513d601f19601f82011682018060405250810190610a4b9190611755565b1015610a8c576040517f08c379a0000000000000000000000000000000000000000000000000000000008152600401610a8390611948565b60405180910390fd5b6000606460056000600454815260200190815260200160002054600254610ab391906114e7565b610abd9190611558565b90506000670de0b6b3a76400008284610ad691906114e7565b610ae09190611558565b905080471015610b25576040517f08c379a0000000000000000000000000000000000000000000000000000000008152600401610b1c906119da565b60405180910390fd5b600160009054906101000a900473ffffffffffffffffffffffffffffffffffffffff1673ffffffffffffffffffffffffffffffffffffffff166323b872dd33610b6c610cd7565b866040518463ffffffff1660e01b8152600401610b8b9392919061161b565b6020604051808303816000875af1158015610baa573d6000803e3d6000fd5b505050506040513d601f19601f82011682018060405250810190610bce919061167e565b503373ffffffffffffffffffffffffffffffffffffffff166108fc829081150290604051600060405180830381858888f19350505050158015610c15573d6000803e3d6000fd5b503373ffffffffffffffffffffffffffffffffffffffff167f2dcf9433d75db0d8b1c172641f85e319ffe4ad22e108a95d1847ceb906e5195d8483604051610c5e9291906116ab565b60405180910390a2505050565b610c73610f99565b610c7b611020565b565b60056020528060005260406000206000915090505481565b60008060009054906101000a900460ff16905090565b60035481565b610cb9610f99565b610cc36000611082565b565b610ccd610f99565b610cd5611147565b565b60008060019054906101000a900473ffffffffffffffffffffffffffffffffffffffff16905090565b610d08610f58565b60003490506000670de0b6b3a764000060025483610d269190611558565b610d3091906114e7565b9050600160009054906101000a900473ffffffffffffffffffffffffffffffffffffffff1673ffffffffffffffffffffffffffffffffffffffff166323b872dd610d78610cd7565b33846040518463ffffffff1660e01b8152600401610d989392919061161b565b6020604051808303816000875af1158015610db7573d6000803e3d6000fd5b505050506040513d601f19601f82011682018060405250810190610ddb919061167e565b508060036000828254610dee9190611814565b925050819055505050565b60025481565b610e07610f99565b610e0f610cd7565b73ffffffffffffffffffffffffffffffffffffffff166108fc479081150290604051600060405180830381858888f19350505050158015610e54573d6000803e3d6000fd5b50565b610e5f610f99565b8060028190555050565b60045481565b610e77610f99565b600073ffffffffffffffffffffffffffffffffffffffff168173ffffffffffffffffffffffffffffffffffffffff1603610ee95760006040517f1e4fbdf7000000000000000000000000000000000000000000000000000000008152600401610ee091906112fa565b60405180910390fd5b610ef281611082565b50565b610efd610f99565b816005600085815260200190815260200160002081905550806006600085815260200190815260200160002081905550505050565b600160009054906101000a900473ffffffffffffffffffffffffffffffffffffffff1681565b610f60610c95565b15610f97576040517fd93c066500000000000000000000000000000000000000000000000000000000815260040160405180910390fd5b565b610fa16111a9565b73ffffffffffffffffffffffffffffffffffffffff16610fbf610cd7565b73ffffffffffffffffffffffffffffffffffffffff161461101e57610fe26111a9565b6040517f118cdaa700000000000000000000000000000000000000000000000000000000815260040161101591906112fa565b60405180910390fd5b565b6110286111b1565b60008060006101000a81548160ff0219169083151502179055507f5db9ee0a495bf2e6ff9c91a7834c1ba4fdd244a5e8aa4e537bd38aeae4b073aa61106b6111a9565b60405161107891906112fa565b60405180910390a1565b60008060019054906101000a900473ffffffffffffffffffffffffffffffffffffffff16905081600060016101000a81548173ffffffffffffffffffffffffffffffffffffffff021916908373ffffffffffffffffffffffffffffffffffffffff1602179055508173ffffffffffffffffffffffffffffffffffffffff168173ffffffffffffffffffffffffffffffffffffffff167f8be0079c531659141344cd1fd0a4f28419497f9722a3daafe3b4186f6b6457e060405160405180910390a35050565b61114f610f58565b60016000806101000a81548160ff0219169083151502179055507f62e78cea01bee320cd4e420270b5ea74000d11b0c9f74754ebdbfc544b05a2586111926111a9565b60405161119f91906112fa565b60405180910390a1565b600033905090565b6111b9610c95565b6111ef576040517f8dfc202b00000000000000000000000000000000000000000000000000000000815260040160405180910390fd5b565b600080fd5b6000819050919050565b611209816111f6565b811461121457600080fd5b50565b60008135905061122681611200565b92915050565b600060208284031215611242576112416111f1565b5b600061125084828501611217565b91505092915050565b611262816111f6565b82525050565b600060208201905061127d6000830184611259565b92915050565b60008115159050919050565b61129881611283565b82525050565b60006020820190506112b3600083018461128f565b92915050565b600073ffffffffffffffffffffffffffffffffffffffff82169050919050565b60006112e4826112b9565b9050919050565b6112f4816112d9565b82525050565b600060208201905061130f60008301846112eb565b92915050565b61131e816112d9565b811461132957600080fd5b50565b60008135905061133b81611315565b92915050565b600060208284031215611357576113566111f1565b5b60006113658482850161132c565b91505092915050565b600080600060608486031215611387576113866111f1565b5b600061139586828701611217565b93505060206113a686828701611217565b92505060406113b786828701611217565b9150509250925092565b6000819050919050565b60006113e66113e16113dc846112b9565b6113c1565b6112b9565b9050919050565b60006113f8826113cb565b9050919050565b600061140a826113ed565b9050919050565b61141a816113ff565b82525050565b60006020820190506114356000830184611411565b92915050565b600082825260208201905092915050565b7f416d6f756e74206d7573742062652067726561746572207468616e207a65726f600082015250565b600061148260208361143b565b915061148d8261144c565b602082019050919050565b600060208201905081810360008301526114b181611475565b9050919050565b7f4e487b7100000000000000000000000000000000000000000000000000000000600052601160045260246000fd5b60006114f2826111f6565b91506114fd836111f6565b925082820261150b816111f6565b91508282048414831517611522576115216114b8565b5b5092915050565b7f4e487b7100000000000000000000000000000000000000000000000000000000600052601260045260246000fd5b6000611563826111f6565b915061156e836111f6565b92508261157e5761157d611529565b5b828204905092915050565b7f496e73756666696369656e742062616c616e636520696e2074686520636f6e7460008201527f7261637400000000000000000000000000000000000000000000000000000000602082015250565b60006115e560248361143b565b91506115f082611589565b604082019050919050565b60006020820190508181036000830152611614816115d8565b9050919050565b600060608201905061163060008301866112eb565b61163d60208301856112eb565b61164a6040830184611259565b949350505050565b61165b81611283565b811461166657600080fd5b50565b60008151905061167881611652565b92915050565b600060208284031215611694576116936111f1565b5b60006116a284828501611669565b91505092915050565b60006040820190506116c06000830185611259565b6116cd6020830184611259565b9392505050565b7f5061796d656e7420697320726571756972656400000000000000000000000000600082015250565b600061170a60138361143b565b9150611715826116d4565b602082019050919050565b60006020820190508181036000830152611739816116fd565b9050919050565b60008151905061174f81611200565b92915050565b60006020828403121561176b5761176a6111f1565b5b600061177984828501611740565b91505092915050565b7f496e73756666696369656e7420746f6b656e7320617661696c61626c6520666f60008201527f722073616c650000000000000000000000000000000000000000000000000000602082015250565b60006117de60268361143b565b91506117e982611782565b604082019050919050565b6000602082019050818103600083015261180d816117d1565b9050919050565b600061181f826111f6565b915061182a836111f6565b9250828201905080821115611842576118416114b8565b5b92915050565b7f506861736520746f6b656e206361702065786365656465640000000000000000600082015250565b600061187e60188361143b565b915061188982611848565b602082019050919050565b600060208201905081810360008301526118ad81611871565b9050919050565b60006118bf826111f6565b91507fffffffffffffffffffffffffffffffffffffffffffffffffffffffffffffffff82036118f1576118f06114b8565b5b600182019050919050565b7f496e73756666696369656e7420746f6b656e2062616c616e6365000000000000600082015250565b6000611932601a8361143b565b915061193d826118fc565b602082019050919050565b6000602082019050818103600083015261196181611925565b9050919050565b7f496e73756666696369656e74204554482062616c616e636520696e207468652060008201527f636f6e7472616374000000000000000000000000000000000000000000000000602082015250565b60006119c460288361143b565b91506119cf82611968565b604082019050919050565b600060208201905081810360008301526119f3816119b7565b905091905056fea264697066735822122057f44c9f6e03dd37e81b34871ed66448c79e692381b69d1b6bc3718dc58abafd64736f6c63430008180033",
  "linkReferences": {},
  "deployedLinkReferences": {}
}