{
  "_format": "hh-sol-artifact-1",
  "contractName": "ICO",
  "sourceName": "contracts/ICO.sol",
  "abi": [
    {
      "inputs": [
        {
          "internalType": "address",
          "name": "_tokenAddress",
          "type": "address"
        }
      ],
      "stateMutability": "nonpayable",
      "type": "constructor"
    },
    {
      "inputs": [],
      "name": "EnforcedPause",
      "type": "error"
    },
    {
      "inputs": [],
      "name": "ExpectedPause",
      "type": "error"
    },
    {
      "inputs": [
        {
          "internalType": "address",
          "name": "owner",
          "type": "address"
        }
      ],
      "name": "OwnableInvalidOwner",
      "type": "error"
    },
    {
      "inputs": [
        {
          "internalType": "address",
          "name": "account",
          "type": "address"
        }
      ],
      "name": "OwnableUnauthorizedAccount",
      "type": "error"
    },
    {
      "anonymous": false,
      "inputs": [
        {
          "indexed": true,
          "internalType": "address",
          "name": "previousOwner",
          "type": "address"
        },
        {
          "indexed": true,
          "internalType": "address",
          "name": "newOwner",
          "type": "address"
        }
      ],
      "name": "OwnershipTransferred",
      "type": "event"
    },
    {
      "anonymous": false,
      "inputs": [
        {
          "indexed": false,
          "internalType": "address",
          "name": "account",
          "type": "address"
        }
      ],
      "name": "Paused",
      "type": "event"
    },
    {
      "anonymous": false,
      "inputs": [
        {
          "indexed": true,
          "internalType": "address",
          "name": "buyer",
          "type": "address"
        },
        {
          "indexed": false,
          "internalType": "uint256",
          "name": "amount",
          "type": "uint256"
        },
        {
          "indexed": false,
          "internalType": "uint256",
          "name": "cost",
          "type": "uint256"
        }
      ],
      "name": "TokensPurchased",
      "type": "event"
    },
    {
      "anonymous": false,
      "inputs": [
        {
          "indexed": true,
          "internalType": "address",
          "name": "seller",
          "type": "address"
        },
        {
          "indexed": false,
          "internalType": "uint256",
          "name": "amount",
          "type": "uint256"
        },
        {
          "indexed": false,
          "internalType": "uint256",
          "name": "revenue",
          "type": "uint256"
        }
      ],
      "name": "TokensSold",
      "type": "event"
    },
    {
      "anonymous": false,
      "inputs": [
        {
          "indexed": false,
          "internalType": "address",
          "name": "account",
          "type": "address"
        }
      ],
      "name": "Unpaused",
      "type": "event"
    },
    {
      "anonymous": false,
      "inputs": [
        {
          "indexed": true,
          "internalType": "address",
          "name": "user",
          "type": "address"
        },
        {
          "indexed": false,
          "internalType": "uint256",
          "name": "amount",
          "type": "uint256"
        }
      ],
      "name": "WithdrawalRequested",
      "type": "event"
    },
    {
      "inputs": [],
      "name": "basePrice",
      "outputs": [
        {
          "internalType": "uint256",
          "name": "",
          "type": "uint256"
        }
      ],
      "stateMutability": "view",
      "type": "function"
    },
    {
      "inputs": [
        {
          "internalType": "uint256",
          "name": "amount",
          "type": "uint256"
        }
      ],
      "name": "borrowToken",
      "outputs": [],
      "stateMutability": "nonpayable",
      "type": "function"
    },
    {
      "inputs": [],
      "name": "buyToken",
      "outputs": [],
      "stateMutability": "payable",
      "type": "function"
    },
    {
      "inputs": [],
      "name": "lendToken",
      "outputs": [],
      "stateMutability": "payable",
      "type": "function"
    },
    {
      "inputs": [],
      "name": "owner",
      "outputs": [
        {
          "internalType": "address",
          "name": "",
          "type": "address"
        }
      ],
      "stateMutability": "view",
      "type": "function"
    },
    {
      "inputs": [],
      "name": "pause",
      "outputs": [],
      "stateMutability": "nonpayable",
      "type": "function"
    },
    {
      "inputs": [],
      "name": "paused",
      "outputs": [
        {
          "internalType": "bool",
          "name": "",
          "type": "bool"
        }
      ],
      "stateMutability": "view",
      "type": "function"
    },
    {
      "inputs": [
        {
          "internalType": "uint256",
          "name": "",
          "type": "uint256"
        }
      ],
      "name": "phaseCap",
      "outputs": [
        {
          "internalType": "uint256",
          "name": "",
          "type": "uint256"
        }
      ],
      "stateMutability": "view",
      "type": "function"
    },
    {
      "inputs": [
        {
          "internalType": "uint256",
          "name": "",
          "type": "uint256"
        }
      ],
      "name": "phasePriceMultiplier",
      "outputs": [
        {
          "internalType": "uint256",
          "name": "",
          "type": "uint256"
        }
      ],
      "stateMutability": "view",
      "type": "function"
    },
    {
      "inputs": [],
      "name": "renounceOwnership",
      "outputs": [],
      "stateMutability": "nonpayable",
      "type": "function"
    },
    {
      "inputs": [],
      "name": "salePhase",
      "outputs": [
        {
          "internalType": "uint256",
          "name": "",
          "type": "uint256"
        }
      ],
      "stateMutability": "view",
      "type": "function"
    },
    {
      "inputs": [
        {
          "internalType": "uint256",
          "name": "amount",
          "type": "uint256"
        }
      ],
      "name": "sellToken",
      "outputs": [],
      "stateMutability": "nonpayable",
      "type": "function"
    },
    {
      "inputs": [
        {
          "internalType": "uint256",
          "name": "_newBasePrice",
          "type": "uint256"
        }
      ],
      "name": "setBasePrice",
      "outputs": [],
      "stateMutability": "nonpayable",
      "type": "function"
    },
    {
      "inputs": [
        {
          "internalType": "uint256",
          "name": "_phase",
          "type": "uint256"
        },
        {
          "internalType": "uint256",
          "name": "_multiplier",
          "type": "uint256"
        },
        {
          "internalType": "uint256",
          "name": "_cap",
          "type": "uint256"
        }
      ],
      "name": "setPhase",
      "outputs": [],
      "stateMutability": "nonpayable",
      "type": "function"
    },
    {
      "inputs": [],
      "name": "token",
      "outputs": [
        {
          "internalType": "contract IERC20",
          "name": "",
          "type": "address"
        }
      ],
      "stateMutability": "view",
      "type": "function"
    },
    {
      "inputs": [],
      "name": "totalTokensSold",
      "outputs": [
        {
          "internalType": "uint256",
          "name": "",
          "type": "uint256"
        }
      ],
      "stateMutability": "view",
      "type": "function"
    },
    {
      "inputs": [
        {
          "internalType": "address",
          "name": "newOwner",
          "type": "address"
        }
      ],
      "name": "transferOwnership",
      "outputs": [],
      "stateMutability": "nonpayable",
      "type": "function"
    },
    {
      "inputs": [],
      "name": "unpause",
      "outputs": [],
      "stateMutability": "nonpayable",
      "type": "function"
    },
    {
      "inputs": [
        {
          "internalType": "uint256",
          "name": "amount",
          "type": "uint256"
        }
      ],
      "name": "withdraw",
      "outputs": [],
      "stateMutability": "payable",
      "type": "function"
    }
  ],
  "bytecode": "0x6080604052670de0b6b3a764000060025560016004553480156200002257600080fd5b506040516200202238038062002022833981810160405281019062000048919062000318565b3360008060006101000a81548160ff021916908315150217905550600073ffffffffffffffffffffffffffffffffffffffff168173ffffffffffffffffffffffffffffffffffffffff1603620000d85760006040517f1e4fbdf7000000000000000000000000000000000000000000000000000000008152600401620000cf91906200035b565b60405180910390fd5b620000e981620001e960201b60201c565b5080600160006101000a81548173ffffffffffffffffffffffffffffffffffffffff021916908373ffffffffffffffffffffffffffffffffffffffff160217905550606460056000600181526020019081526020016000208190555069021e19e0c9bab2400000600660006001815260200190815260200160002081905550609660056000600281526020019081526020016000208190555069065a4da25d3016c0000060066000600281526020019081526020016000208190555060c8600560006003815260200190815260200160002081905550690cb49b44ba602d8000006006600060038152602001908152602001600020819055505062000378565b60008060019054906101000a900473ffffffffffffffffffffffffffffffffffffffff16905081600060016101000a81548173ffffffffffffffffffffffffffffffffffffffff021916908373ffffffffffffffffffffffffffffffffffffffff1602179055508173ffffffffffffffffffffffffffffffffffffffff168173ffffffffffffffffffffffffffffffffffffffff167f8be0079c531659141344cd1fd0a4f28419497f9722a3daafe3b4186f6b6457e060405160405180910390a35050565b600080fd5b600073ffffffffffffffffffffffffffffffffffffffff82169050919050565b6000620002e082620002b3565b9050919050565b620002f281620002d3565b8114620002fe57600080fd5b50565b6000815190506200031281620002e7565b92915050565b600060208284031215620003315762000330620002ae565b5b6000620003418482850162000301565b91505092915050565b6200035581620002d3565b82525050565b60006020820190506200037260008301846200034a565b92915050565b611c9a80620003886000396000f3fe6080604052600436106101145760003560e01c8063835fc6ca116100a0578063de4b326211610064578063de4b326214610313578063e4f2487a1461033c578063f2fde38b14610367578063f724ae1f14610390578063fc0c546a146103b957610114565b8063835fc6ca146102735780638456cb591461029c5780638da5cb5b146102b3578063a4821719146102de578063c7876ea4146102e857610114565b80633f4ba83a116100e75780633f4ba83a146101b257806344ee9fe7146101c95780635c975abb1461020657806363b2011714610231578063715018a61461025c57610114565b8063082e0e8e14610119578063092f5776146101565780631d4b15191461017f5780632397e4d714610189575b600080fd5b34801561012557600080fd5b50610140600480360381019061013b9190611401565b6103e4565b60405161014d919061143d565b60405180910390f35b34801561016257600080fd5b5061017d60048036038101906101789190611401565b6103fc565b005b610187610626565b005b34801561019557600080fd5b506101b060048036038101906101ab9190611401565b610975565b005b3480156101be57600080fd5b506101c7610c7d565b005b3480156101d557600080fd5b506101f060048036038101906101eb9190611401565b610c8f565b6040516101fd919061143d565b60405180910390f35b34801561021257600080fd5b5061021b610ca7565b6040516102289190611473565b60405180910390f35b34801561023d57600080fd5b50610246610cbd565b604051610253919061143d565b60405180910390f35b34801561026857600080fd5b50610271610cc3565b005b34801561027f57600080fd5b5061029a60048036038101906102959190611401565b610cd7565b005b3480156102a857600080fd5b506102b1610ef2565b005b3480156102bf57600080fd5b506102c8610f04565b6040516102d591906114cf565b60405180910390f35b6102e6610f2d565b005b3480156102f457600080fd5b506102fd611026565b60405161030a919061143d565b60405180910390f35b34801561031f57600080fd5b5061033a60048036038101906103359190611401565b61102c565b005b34801561034857600080fd5b5061035161103e565b60405161035e919061143d565b60405180910390f35b34801561037357600080fd5b5061038e60048036038101906103899190611516565b611044565b005b34801561039c57600080fd5b506103b760048036038101906103b29190611543565b6110ca565b005b3480156103c557600080fd5b506103ce611107565b6040516103db91906115f5565b60405180910390f35b60066020528060005260406000206000915090505481565b61040461112d565b60008111610447576040517f08c379a000000000000000000000000000000000000000000000000000000000815260040161043e9061166d565b60405180910390fd5b600060646005600060045481526020019081526020016000205460025461046e91906116bc565b610478919061172d565b90506000670de0b6b3a7640000828461049191906116bc565b61049b919061172d565b9050804710156104e0576040517f08c379a00000000000000000000000000000000000000000000000000000000081526004016104d7906117d0565b60405180910390fd5b600160009054906101000a900473ffffffffffffffffffffffffffffffffffffffff1673ffffffffffffffffffffffffffffffffffffffff166323b872dd33610527610f04565b866040518463ffffffff1660e01b8152600401610546939291906117f0565b6020604051808303816000875af1158015610565573d6000803e3d6000fd5b505050506040513d601f19601f820116820180604052508101906105899190611853565b503373ffffffffffffffffffffffffffffffffffffffff166108fc829081150290604051600060405180830381858888f193505050501580156105d0573d6000803e3d6000fd5b503373ffffffffffffffffffffffffffffffffffffffff167f8fafebcaf9d154343dad25669bfa277f4fbacd7ac6b0c4fed522580e040a0f338483604051610619929190611880565b60405180910390a2505050565b61062e61112d565b600034905060008111610676576040517f08c379a000000000000000000000000000000000000000000000000000000000815260040161066d906118f5565b60405180910390fd5b600060646005600060045481526020019081526020016000205460025461069d91906116bc565b6106a7919061172d565b9050600081670de0b6b3a7640000846106c091906116bc565b6106ca919061172d565b905080600160009054906101000a900473ffffffffffffffffffffffffffffffffffffffff1673ffffffffffffffffffffffffffffffffffffffff166370a08231610713610f04565b6040518263ffffffff1660e01b815260040161072f91906114cf565b602060405180830381865afa15801561074c573d6000803e3d6000fd5b505050506040513d601f19601f82011682018060405250810190610770919061192a565b10156107b1576040517f08c379a00000000000000000000000000000000000000000000000000000000081526004016107a8906119c9565b60405180910390fd5b60066000600454815260200190815260200160002054816003546107d591906119e9565b1115610816576040517f08c379a000000000000000000000000000000000000000000000000000000000815260040161080d90611a69565b60405180910390fd5b600160009054906101000a900473ffffffffffffffffffffffffffffffffffffffff1673ffffffffffffffffffffffffffffffffffffffff166323b872dd61085c610f04565b33846040518463ffffffff1660e01b815260040161087c939291906117f0565b6020604051808303816000875af115801561089b573d6000803e3d6000fd5b505050506040513d601f19601f820116820180604052508101906108bf9190611853565b5080600360008282546108d291906119e9565b92505081905550600660006004548152602001908152602001600020546003541015801561090257506003600454105b15610920576004600081548092919061091a90611a89565b91905055505b3373ffffffffffffffffffffffffffffffffffffffff167f8fafebcaf9d154343dad25669bfa277f4fbacd7ac6b0c4fed522580e040a0f338285604051610968929190611880565b60405180910390a2505050565b61097d61112d565b600081116109c0576040517f08c379a00000000000000000000000000000000000000000000000000000000081526004016109b79061166d565b60405180910390fd5b80600160009054906101000a900473ffffffffffffffffffffffffffffffffffffffff1673ffffffffffffffffffffffffffffffffffffffff166370a08231336040518263ffffffff1660e01b8152600401610a1c91906114cf565b602060405180830381865afa158015610a39573d6000803e3d6000fd5b505050506040513d601f19601f82011682018060405250810190610a5d919061192a565b1015610a9e576040517f08c379a0000000000000000000000000000000000000000000000000000000008152600401610a9590611b1d565b60405180910390fd5b6000606460056000600454815260200190815260200160002054600254610ac591906116bc565b610acf919061172d565b90506000670de0b6b3a76400008284610ae891906116bc565b610af2919061172d565b905080471015610b37576040517f08c379a0000000000000000000000000000000000000000000000000000000008152600401610b2e90611baf565b60405180910390fd5b600160009054906101000a900473ffffffffffffffffffffffffffffffffffffffff1673ffffffffffffffffffffffffffffffffffffffff166323b872dd33610b7e610f04565b866040518463ffffffff1660e01b8152600401610b9d939291906117f0565b6020604051808303816000875af1158015610bbc573d6000803e3d6000fd5b505050506040513d601f19601f82011682018060405250810190610be09190611853565b503373ffffffffffffffffffffffffffffffffffffffff166108fc829081150290604051600060405180830381858888f19350505050158015610c27573d6000803e3d6000fd5b503373ffffffffffffffffffffffffffffffffffffffff167f2dcf9433d75db0d8b1c172641f85e319ffe4ad22e108a95d1847ceb906e5195d8483604051610c70929190611880565b60405180910390a2505050565b610c8561116e565b610c8d6111f5565b565b60056020528060005260406000206000915090505481565b60008060009054906101000a900460ff16905090565b60035481565b610ccb61116e565b610cd56000611257565b565b610cdf61116e565b60008111610d22576040517f08c379a0000000000000000000000000000000000000000000000000000000008152600401610d199061166d565b60405180910390fd5b80600160009054906101000a900473ffffffffffffffffffffffffffffffffffffffff1673ffffffffffffffffffffffffffffffffffffffff166370a08231306040518263ffffffff1660e01b8152600401610d7e91906114cf565b602060405180830381865afa158015610d9b573d6000803e3d6000fd5b505050506040513d601f19601f82011682018060405250810190610dbf919061192a565b1015610e00576040517f08c379a0000000000000000000000000000000000000000000000000000000008152600401610df790611c1b565b60405180910390fd5b3373ffffffffffffffffffffffffffffffffffffffff167fe670e4e82118d22a1f9ee18920455ebc958bae26a90a05d31d3378788b1b0e4482604051610e46919061143d565b60405180910390a2600160009054906101000a900473ffffffffffffffffffffffffffffffffffffffff1673ffffffffffffffffffffffffffffffffffffffff1663a9059cbb33836040518363ffffffff1660e01b8152600401610eab929190611c3b565b6020604051808303816000875af1158015610eca573d6000803e3d6000fd5b505050506040513d601f19601f82011682018060405250810190610eee9190611853565b5050565b610efa61116e565b610f0261131c565b565b60008060019054906101000a900473ffffffffffffffffffffffffffffffffffffffff16905090565b610f3561112d565b60003490506000670de0b6b3a764000060025483610f53919061172d565b610f5d91906116bc565b9050600160009054906101000a900473ffffffffffffffffffffffffffffffffffffffff1673ffffffffffffffffffffffffffffffffffffffff166323b872dd610fa5610f04565b33846040518463ffffffff1660e01b8152600401610fc5939291906117f0565b6020604051808303816000875af1158015610fe4573d6000803e3d6000fd5b505050506040513d601f19601f820116820180604052508101906110089190611853565b50806003600082825461101b91906119e9565b925050819055505050565b60025481565b61103461116e565b8060028190555050565b60045481565b61104c61116e565b600073ffffffffffffffffffffffffffffffffffffffff168173ffffffffffffffffffffffffffffffffffffffff16036110be5760006040517f1e4fbdf70000000000000000000000000000000000000000000000000000000081526004016110b591906114cf565b60405180910390fd5b6110c781611257565b50565b6110d261116e565b816005600085815260200190815260200160002081905550806006600085815260200190815260200160002081905550505050565b600160009054906101000a900473ffffffffffffffffffffffffffffffffffffffff1681565b611135610ca7565b1561116c576040517fd93c066500000000000000000000000000000000000000000000000000000000815260040160405180910390fd5b565b61117661137e565b73ffffffffffffffffffffffffffffffffffffffff16611194610f04565b73ffffffffffffffffffffffffffffffffffffffff16146111f3576111b761137e565b6040517f118cdaa70000000000000000000000000000000000000000000000000000000081526004016111ea91906114cf565b60405180910390fd5b565b6111fd611386565b60008060006101000a81548160ff0219169083151502179055507f5db9ee0a495bf2e6ff9c91a7834c1ba4fdd244a5e8aa4e537bd38aeae4b073aa61124061137e565b60405161124d91906114cf565b60405180910390a1565b60008060019054906101000a900473ffffffffffffffffffffffffffffffffffffffff16905081600060016101000a81548173ffffffffffffffffffffffffffffffffffffffff021916908373ffffffffffffffffffffffffffffffffffffffff1602179055508173ffffffffffffffffffffffffffffffffffffffff168173ffffffffffffffffffffffffffffffffffffffff167f8be0079c531659141344cd1fd0a4f28419497f9722a3daafe3b4186f6b6457e060405160405180910390a35050565b61132461112d565b60016000806101000a81548160ff0219169083151502179055507f62e78cea01bee320cd4e420270b5ea74000d11b0c9f74754ebdbfc544b05a25861136761137e565b60405161137491906114cf565b60405180910390a1565b600033905090565b61138e610ca7565b6113c4576040517f8dfc202b00000000000000000000000000000000000000000000000000000000815260040160405180910390fd5b565b600080fd5b6000819050919050565b6113de816113cb565b81146113e957600080fd5b50565b6000813590506113fb816113d5565b92915050565b600060208284031215611417576114166113c6565b5b6000611425848285016113ec565b91505092915050565b611437816113cb565b82525050565b6000602082019050611452600083018461142e565b92915050565b60008115159050919050565b61146d81611458565b82525050565b60006020820190506114886000830184611464565b92915050565b600073ffffffffffffffffffffffffffffffffffffffff82169050919050565b60006114b98261148e565b9050919050565b6114c9816114ae565b82525050565b60006020820190506114e460008301846114c0565b92915050565b6114f3816114ae565b81146114fe57600080fd5b50565b600081359050611510816114ea565b92915050565b60006020828403121561152c5761152b6113c6565b5b600061153a84828501611501565b91505092915050565b60008060006060848603121561155c5761155b6113c6565b5b600061156a868287016113ec565b935050602061157b868287016113ec565b925050604061158c868287016113ec565b9150509250925092565b6000819050919050565b60006115bb6115b66115b18461148e565b611596565b61148e565b9050919050565b60006115cd826115a0565b9050919050565b60006115df826115c2565b9050919050565b6115ef816115d4565b82525050565b600060208201905061160a60008301846115e6565b92915050565b600082825260208201905092915050565b7f416d6f756e74206d7573742062652067726561746572207468616e207a65726f600082015250565b6000611657602083611610565b915061166282611621565b602082019050919050565b600060208201905081810360008301526116868161164a565b9050919050565b7f4e487b7100000000000000000000000000000000000000000000000000000000600052601160045260246000fd5b60006116c7826113cb565b91506116d2836113cb565b92508282026116e0816113cb565b915082820484148315176116f7576116f661168d565b5b5092915050565b7f4e487b7100000000000000000000000000000000000000000000000000000000600052601260045260246000fd5b6000611738826113cb565b9150611743836113cb565b925082611753576117526116fe565b5b828204905092915050565b7f496e73756666696369656e742062616c616e636520696e2074686520636f6e7460008201527f7261637400000000000000000000000000000000000000000000000000000000602082015250565b60006117ba602483611610565b91506117c58261175e565b604082019050919050565b600060208201905081810360008301526117e9816117ad565b9050919050565b600060608201905061180560008301866114c0565b61181260208301856114c0565b61181f604083018461142e565b949350505050565b61183081611458565b811461183b57600080fd5b50565b60008151905061184d81611827565b92915050565b600060208284031215611869576118686113c6565b5b60006118778482850161183e565b91505092915050565b6000604082019050611895600083018561142e565b6118a2602083018461142e565b9392505050565b7f5061796d656e7420697320726571756972656400000000000000000000000000600082015250565b60006118df601383611610565b91506118ea826118a9565b602082019050919050565b6000602082019050818103600083015261190e816118d2565b9050919050565b600081519050611924816113d5565b92915050565b6000602082840312156119405761193f6113c6565b5b600061194e84828501611915565b91505092915050565b7f496e73756666696369656e7420746f6b656e7320617661696c61626c6520666f60008201527f722073616c650000000000000000000000000000000000000000000000000000602082015250565b60006119b3602683611610565b91506119be82611957565b604082019050919050565b600060208201905081810360008301526119e2816119a6565b9050919050565b60006119f4826113cb565b91506119ff836113cb565b9250828201905080821115611a1757611a1661168d565b5b92915050565b7f506861736520746f6b656e206361702065786365656465640000000000000000600082015250565b6000611a53601883611610565b9150611a5e82611a1d565b602082019050919050565b60006020820190508181036000830152611a8281611a46565b9050919050565b6000611a94826113cb565b91507fffffffffffffffffffffffffffffffffffffffffffffffffffffffffffffffff8203611ac657611ac561168d565b5b600182019050919050565b7f496e73756666696369656e7420746f6b656e2062616c616e6365000000000000600082015250565b6000611b07601a83611610565b9150611b1282611ad1565b602082019050919050565b60006020820190508181036000830152611b3681611afa565b9050919050565b7f496e73756666696369656e74204554482062616c616e636520696e207468652060008201527f636f6e7472616374000000000000000000000000000000000000000000000000602082015250565b6000611b99602883611610565b9150611ba482611b3d565b604082019050919050565b60006020820190508181036000830152611bc881611b8c565b9050919050565b7f496e73756666696369656e742062616c616e6365000000000000000000000000600082015250565b6000611c05601483611610565b9150611c1082611bcf565b602082019050919050565b60006020820190508181036000830152611c3481611bf8565b9050919050565b6000604082019050611c5060008301856114c0565b611c5d602083018461142e565b939250505056fea26469706673582212200b2a19897347d24ce695549f6f10dfceabcc6e0860a739685b9f2fde2153c46e64736f6c63430008180033",
  "linkReferences": {},
  "deployedLinkReferences": {}
}