{
  "_format": "hh-sol-artifact-1",
  "contractName": "ICO",
  "sourceName": "contracts/ICO.sol",
  "abi": [
    {
      "inputs": [
        {
          "internalType": "address",
          "name": "_tokenAddress",
          "type": "address"
        }
      ],
      "stateMutability": "nonpayable",
      "type": "constructor"
    },
    {
      "inputs": [],
      "name": "EnforcedPause",
      "type": "error"
    },
    {
      "inputs": [],
      "name": "ExpectedPause",
      "type": "error"
    },
    {
      "inputs": [
        {
          "internalType": "address",
          "name": "owner",
          "type": "address"
        }
      ],
      "name": "OwnableInvalidOwner",
      "type": "error"
    },
    {
      "inputs": [
        {
          "internalType": "address",
          "name": "account",
          "type": "address"
        }
      ],
      "name": "OwnableUnauthorizedAccount",
      "type": "error"
    },
    {
      "anonymous": false,
      "inputs": [
        {
          "indexed": true,
          "internalType": "address",
          "name": "previousOwner",
          "type": "address"
        },
        {
          "indexed": true,
          "internalType": "address",
          "name": "newOwner",
          "type": "address"
        }
      ],
      "name": "OwnershipTransferred",
      "type": "event"
    },
    {
      "anonymous": false,
      "inputs": [
        {
          "indexed": false,
          "internalType": "address",
          "name": "account",
          "type": "address"
        }
      ],
      "name": "Paused",
      "type": "event"
    },
    {
      "anonymous": false,
      "inputs": [
        {
          "indexed": true,
          "internalType": "address",
          "name": "buyer",
          "type": "address"
        },
        {
          "indexed": false,
          "internalType": "uint256",
          "name": "amount",
          "type": "uint256"
        },
        {
          "indexed": false,
          "internalType": "uint256",
          "name": "cost",
          "type": "uint256"
        }
      ],
      "name": "TokensPurchased",
      "type": "event"
    },
    {
      "anonymous": false,
      "inputs": [
        {
          "indexed": false,
          "internalType": "address",
          "name": "account",
          "type": "address"
        }
      ],
      "name": "Unpaused",
      "type": "event"
    },
    {
      "inputs": [],
      "name": "basePrice",
      "outputs": [
        {
          "internalType": "uint256",
          "name": "",
          "type": "uint256"
        }
      ],
      "stateMutability": "view",
      "type": "function"
    },
    {
      "inputs": [
        {
          "internalType": "uint256",
          "name": "amount",
          "type": "uint256"
        }
      ],
      "name": "borrowToken",
      "outputs": [],
      "stateMutability": "nonpayable",
      "type": "function"
    },
    {
      "inputs": [],
      "name": "buyToken",
      "outputs": [],
      "stateMutability": "payable",
      "type": "function"
    },
    {
      "inputs": [],
      "name": "owner",
      "outputs": [
        {
          "internalType": "address",
          "name": "",
          "type": "address"
        }
      ],
      "stateMutability": "view",
      "type": "function"
    },
    {
      "inputs": [],
      "name": "pause",
      "outputs": [],
      "stateMutability": "nonpayable",
      "type": "function"
    },
    {
      "inputs": [],
      "name": "paused",
      "outputs": [
        {
          "internalType": "bool",
          "name": "",
          "type": "bool"
        }
      ],
      "stateMutability": "view",
      "type": "function"
    },
    {
      "inputs": [
        {
          "internalType": "uint256",
          "name": "",
          "type": "uint256"
        }
      ],
      "name": "phaseCap",
      "outputs": [
        {
          "internalType": "uint256",
          "name": "",
          "type": "uint256"
        }
      ],
      "stateMutability": "view",
      "type": "function"
    },
    {
      "inputs": [
        {
          "internalType": "uint256",
          "name": "",
          "type": "uint256"
        }
      ],
      "name": "phasePriceMultiplier",
      "outputs": [
        {
          "internalType": "uint256",
          "name": "",
          "type": "uint256"
        }
      ],
      "stateMutability": "view",
      "type": "function"
    },
    {
      "inputs": [],
      "name": "renounceOwnership",
      "outputs": [],
      "stateMutability": "nonpayable",
      "type": "function"
    },
    {
      "inputs": [],
      "name": "salePhase",
      "outputs": [
        {
          "internalType": "uint256",
          "name": "",
          "type": "uint256"
        }
      ],
      "stateMutability": "view",
      "type": "function"
    },
    {
      "inputs": [
        {
          "internalType": "uint256",
          "name": "_newBasePrice",
          "type": "uint256"
        }
      ],
      "name": "setBasePrice",
      "outputs": [],
      "stateMutability": "nonpayable",
      "type": "function"
    },
    {
      "inputs": [
        {
          "internalType": "uint256",
          "name": "_phase",
          "type": "uint256"
        },
        {
          "internalType": "uint256",
          "name": "_multiplier",
          "type": "uint256"
        },
        {
          "internalType": "uint256",
          "name": "_cap",
          "type": "uint256"
        }
      ],
      "name": "setPhase",
      "outputs": [],
      "stateMutability": "nonpayable",
      "type": "function"
    },
    {
      "inputs": [],
      "name": "token",
      "outputs": [
        {
          "internalType": "contract IERC20",
          "name": "",
          "type": "address"
        }
      ],
      "stateMutability": "view",
      "type": "function"
    },
    {
      "inputs": [],
      "name": "totalTokensSold",
      "outputs": [
        {
          "internalType": "uint256",
          "name": "",
          "type": "uint256"
        }
      ],
      "stateMutability": "view",
      "type": "function"
    },
    {
      "inputs": [
        {
          "internalType": "address",
          "name": "newOwner",
          "type": "address"
        }
      ],
      "name": "transferOwnership",
      "outputs": [],
      "stateMutability": "nonpayable",
      "type": "function"
    },
    {
      "inputs": [],
      "name": "unpause",
      "outputs": [],
      "stateMutability": "nonpayable",
      "type": "function"
    },
    {
      "inputs": [],
      "name": "withdrawal",
      "outputs": [],
      "stateMutability": "nonpayable",
      "type": "function"
    }
  ],
  "bytecode": "0x6080604052670de0b6b3a764000060025560016004553480156200002257600080fd5b506040516200187038038062001870833981810160405281019062000048919062000318565b3360008060006101000a81548160ff021916908315150217905550600073ffffffffffffffffffffffffffffffffffffffff168173ffffffffffffffffffffffffffffffffffffffff1603620000d85760006040517f1e4fbdf7000000000000000000000000000000000000000000000000000000008152600401620000cf91906200035b565b60405180910390fd5b620000e981620001e960201b60201c565b5080600160006101000a81548173ffffffffffffffffffffffffffffffffffffffff021916908373ffffffffffffffffffffffffffffffffffffffff160217905550606460056000600181526020019081526020016000208190555069021e19e0c9bab2400000600660006001815260200190815260200160002081905550609660056000600281526020019081526020016000208190555069065a4da25d3016c0000060066000600281526020019081526020016000208190555060c8600560006003815260200190815260200160002081905550690cb49b44ba602d8000006006600060038152602001908152602001600020819055505062000378565b60008060019054906101000a900473ffffffffffffffffffffffffffffffffffffffff16905081600060016101000a81548173ffffffffffffffffffffffffffffffffffffffff021916908373ffffffffffffffffffffffffffffffffffffffff1602179055508173ffffffffffffffffffffffffffffffffffffffff168173ffffffffffffffffffffffffffffffffffffffff167f8be0079c531659141344cd1fd0a4f28419497f9722a3daafe3b4186f6b6457e060405160405180910390a35050565b600080fd5b600073ffffffffffffffffffffffffffffffffffffffff82169050919050565b6000620002e082620002b3565b9050919050565b620002f281620002d3565b8114620002fe57600080fd5b50565b6000815190506200031281620002e7565b92915050565b600060208284031215620003315762000330620002ae565b5b6000620003418482850162000301565b91505092915050565b6200035581620002d3565b82525050565b60006020820190506200037260008301846200034a565b92915050565b6114e880620003886000396000f3fe6080604052600436106100fe5760003560e01c80638da5cb5b11610095578063de4b326211610064578063de4b3262146102b8578063e4f2487a146102e1578063f2fde38b1461030c578063f724ae1f14610335578063fc0c546a1461035e576100fe565b80638da5cb5b14610241578063a48217191461026c578063c7876ea414610276578063d4e93292146102a1576100fe565b80635c975abb116100d15780635c975abb146101bd57806363b20117146101e8578063715018a6146102135780638456cb591461022a576100fe565b8063082e0e8e14610103578063092f5776146101405780633f4ba83a1461016957806344ee9fe714610180575b600080fd5b34801561010f57600080fd5b5061012a60048036038101906101259190610de2565b610389565b6040516101379190610e1e565b60405180910390f35b34801561014c57600080fd5b5061016760048036038101906101629190610de2565b6103a1565b005b34801561017557600080fd5b5061017e6105cb565b005b34801561018c57600080fd5b506101a760048036038101906101a29190610de2565b6105dd565b6040516101b49190610e1e565b60405180910390f35b3480156101c957600080fd5b506101d26105f5565b6040516101df9190610e54565b60405180910390f35b3480156101f457600080fd5b506101fd61060b565b60405161020a9190610e1e565b60405180910390f35b34801561021f57600080fd5b50610228610611565b005b34801561023657600080fd5b5061023f610625565b005b34801561024d57600080fd5b50610256610637565b6040516102639190610eb0565b60405180910390f35b610274610660565b005b34801561028257600080fd5b5061028b6109af565b6040516102989190610e1e565b60405180910390f35b3480156102ad57600080fd5b506102b66109b5565b005b3480156102c457600080fd5b506102df60048036038101906102da9190610de2565b610a0d565b005b3480156102ed57600080fd5b506102f6610a1f565b6040516103039190610e1e565b60405180910390f35b34801561031857600080fd5b50610333600480360381019061032e9190610ef7565b610a25565b005b34801561034157600080fd5b5061035c60048036038101906103579190610f24565b610aab565b005b34801561036a57600080fd5b50610373610ae8565b6040516103809190610fd6565b60405180910390f35b60066020528060005260406000206000915090505481565b6103a9610b0e565b600081116103ec576040517f08c379a00000000000000000000000000000000000000000000000000000000081526004016103e39061104e565b60405180910390fd5b6000606460056000600454815260200190815260200160002054600254610413919061109d565b61041d919061110e565b90506000670de0b6b3a76400008284610436919061109d565b610440919061110e565b905080471015610485576040517f08c379a000000000000000000000000000000000000000000000000000000000815260040161047c906111b1565b60405180910390fd5b600160009054906101000a900473ffffffffffffffffffffffffffffffffffffffff1673ffffffffffffffffffffffffffffffffffffffff166323b872dd336104cc610637565b866040518463ffffffff1660e01b81526004016104eb939291906111d1565b6020604051808303816000875af115801561050a573d6000803e3d6000fd5b505050506040513d601f19601f8201168201806040525081019061052e9190611234565b503373ffffffffffffffffffffffffffffffffffffffff166108fc829081150290604051600060405180830381858888f19350505050158015610575573d6000803e3d6000fd5b503373ffffffffffffffffffffffffffffffffffffffff167f8fafebcaf9d154343dad25669bfa277f4fbacd7ac6b0c4fed522580e040a0f3384836040516105be929190611261565b60405180910390a2505050565b6105d3610b4f565b6105db610bd6565b565b60056020528060005260406000206000915090505481565b60008060009054906101000a900460ff16905090565b60035481565b610619610b4f565b6106236000610c38565b565b61062d610b4f565b610635610cfd565b565b60008060019054906101000a900473ffffffffffffffffffffffffffffffffffffffff16905090565b610668610b0e565b6000349050600081116106b0576040517f08c379a00000000000000000000000000000000000000000000000000000000081526004016106a7906112d6565b60405180910390fd5b60006064600560006004548152602001908152602001600020546002546106d7919061109d565b6106e1919061110e565b9050600081670de0b6b3a7640000846106fa919061109d565b610704919061110e565b905080600160009054906101000a900473ffffffffffffffffffffffffffffffffffffffff1673ffffffffffffffffffffffffffffffffffffffff166370a0823161074d610637565b6040518263ffffffff1660e01b81526004016107699190610eb0565b602060405180830381865afa158015610786573d6000803e3d6000fd5b505050506040513d601f19601f820116820180604052508101906107aa919061130b565b10156107eb576040517f08c379a00000000000000000000000000000000000000000000000000000000081526004016107e2906113aa565b60405180910390fd5b600660006004548152602001908152602001600020548160035461080f91906113ca565b1115610850576040517f08c379a00000000000000000000000000000000000000000000000000000000081526004016108479061144a565b60405180910390fd5b600160009054906101000a900473ffffffffffffffffffffffffffffffffffffffff1673ffffffffffffffffffffffffffffffffffffffff166323b872dd610896610637565b33846040518463ffffffff1660e01b81526004016108b6939291906111d1565b6020604051808303816000875af11580156108d5573d6000803e3d6000fd5b505050506040513d601f19601f820116820180604052508101906108f99190611234565b50806003600082825461090c91906113ca565b92505081905550600660006004548152602001908152602001600020546003541015801561093c57506003600454105b1561095a57600460008154809291906109549061146a565b91905055505b3373ffffffffffffffffffffffffffffffffffffffff167f8fafebcaf9d154343dad25669bfa277f4fbacd7ac6b0c4fed522580e040a0f3382856040516109a2929190611261565b60405180910390a2505050565b60025481565b6109bd610b4f565b6109c5610637565b73ffffffffffffffffffffffffffffffffffffffff166108fc479081150290604051600060405180830381858888f19350505050158015610a0a573d6000803e3d6000fd5b50565b610a15610b4f565b8060028190555050565b60045481565b610a2d610b4f565b600073ffffffffffffffffffffffffffffffffffffffff168173ffffffffffffffffffffffffffffffffffffffff1603610a9f5760006040517f1e4fbdf7000000000000000000000000000000000000000000000000000000008152600401610a969190610eb0565b60405180910390fd5b610aa881610c38565b50565b610ab3610b4f565b816005600085815260200190815260200160002081905550806006600085815260200190815260200160002081905550505050565b600160009054906101000a900473ffffffffffffffffffffffffffffffffffffffff1681565b610b166105f5565b15610b4d576040517fd93c066500000000000000000000000000000000000000000000000000000000815260040160405180910390fd5b565b610b57610d5f565b73ffffffffffffffffffffffffffffffffffffffff16610b75610637565b73ffffffffffffffffffffffffffffffffffffffff1614610bd457610b98610d5f565b6040517f118cdaa7000000000000000000000000000000000000000000000000000000008152600401610bcb9190610eb0565b60405180910390fd5b565b610bde610d67565b60008060006101000a81548160ff0219169083151502179055507f5db9ee0a495bf2e6ff9c91a7834c1ba4fdd244a5e8aa4e537bd38aeae4b073aa610c21610d5f565b604051610c2e9190610eb0565b60405180910390a1565b60008060019054906101000a900473ffffffffffffffffffffffffffffffffffffffff16905081600060016101000a81548173ffffffffffffffffffffffffffffffffffffffff021916908373ffffffffffffffffffffffffffffffffffffffff1602179055508173ffffffffffffffffffffffffffffffffffffffff168173ffffffffffffffffffffffffffffffffffffffff167f8be0079c531659141344cd1fd0a4f28419497f9722a3daafe3b4186f6b6457e060405160405180910390a35050565b610d05610b0e565b60016000806101000a81548160ff0219169083151502179055507f62e78cea01bee320cd4e420270b5ea74000d11b0c9f74754ebdbfc544b05a258610d48610d5f565b604051610d559190610eb0565b60405180910390a1565b600033905090565b610d6f6105f5565b610da5576040517f8dfc202b00000000000000000000000000000000000000000000000000000000815260040160405180910390fd5b565b600080fd5b6000819050919050565b610dbf81610dac565b8114610dca57600080fd5b50565b600081359050610ddc81610db6565b92915050565b600060208284031215610df857610df7610da7565b5b6000610e0684828501610dcd565b91505092915050565b610e1881610dac565b82525050565b6000602082019050610e336000830184610e0f565b92915050565b60008115159050919050565b610e4e81610e39565b82525050565b6000602082019050610e696000830184610e45565b92915050565b600073ffffffffffffffffffffffffffffffffffffffff82169050919050565b6000610e9a82610e6f565b9050919050565b610eaa81610e8f565b82525050565b6000602082019050610ec56000830184610ea1565b92915050565b610ed481610e8f565b8114610edf57600080fd5b50565b600081359050610ef181610ecb565b92915050565b600060208284031215610f0d57610f0c610da7565b5b6000610f1b84828501610ee2565b91505092915050565b600080600060608486031215610f3d57610f3c610da7565b5b6000610f4b86828701610dcd565b9350506020610f5c86828701610dcd565b9250506040610f6d86828701610dcd565b9150509250925092565b6000819050919050565b6000610f9c610f97610f9284610e6f565b610f77565b610e6f565b9050919050565b6000610fae82610f81565b9050919050565b6000610fc082610fa3565b9050919050565b610fd081610fb5565b82525050565b6000602082019050610feb6000830184610fc7565b92915050565b600082825260208201905092915050565b7f416d6f756e74206d7573742062652067726561746572207468616e207a65726f600082015250565b6000611038602083610ff1565b915061104382611002565b602082019050919050565b600060208201905081810360008301526110678161102b565b9050919050565b7f4e487b7100000000000000000000000000000000000000000000000000000000600052601160045260246000fd5b60006110a882610dac565b91506110b383610dac565b92508282026110c181610dac565b915082820484148315176110d8576110d761106e565b5b5092915050565b7f4e487b7100000000000000000000000000000000000000000000000000000000600052601260045260246000fd5b600061111982610dac565b915061112483610dac565b925082611134576111336110df565b5b828204905092915050565b7f496e73756666696369656e742062616c616e636520696e2074686520636f6e7460008201527f7261637400000000000000000000000000000000000000000000000000000000602082015250565b600061119b602483610ff1565b91506111a68261113f565b604082019050919050565b600060208201905081810360008301526111ca8161118e565b9050919050565b60006060820190506111e66000830186610ea1565b6111f36020830185610ea1565b6112006040830184610e0f565b949350505050565b61121181610e39565b811461121c57600080fd5b50565b60008151905061122e81611208565b92915050565b60006020828403121561124a57611249610da7565b5b60006112588482850161121f565b91505092915050565b60006040820190506112766000830185610e0f565b6112836020830184610e0f565b9392505050565b7f5061796d656e7420697320726571756972656400000000000000000000000000600082015250565b60006112c0601383610ff1565b91506112cb8261128a565b602082019050919050565b600060208201905081810360008301526112ef816112b3565b9050919050565b60008151905061130581610db6565b92915050565b60006020828403121561132157611320610da7565b5b600061132f848285016112f6565b91505092915050565b7f496e73756666696369656e7420746f6b656e7320617661696c61626c6520666f60008201527f722073616c650000000000000000000000000000000000000000000000000000602082015250565b6000611394602683610ff1565b915061139f82611338565b604082019050919050565b600060208201905081810360008301526113c381611387565b9050919050565b60006113d582610dac565b91506113e083610dac565b92508282019050808211156113f8576113f761106e565b5b92915050565b7f506861736520746f6b656e206361702065786365656465640000000000000000600082015250565b6000611434601883610ff1565b915061143f826113fe565b602082019050919050565b6000602082019050818103600083015261146381611427565b9050919050565b600061147582610dac565b91507fffffffffffffffffffffffffffffffffffffffffffffffffffffffffffffffff82036114a7576114a661106e565b5b60018201905091905056fea26469706673582212207b2beeb401e29eca0e10cfea4c609dfc05fd9d6ff4d5c0391ba68ea195b253d264736f6c63430008180033",
  "linkReferences": {},
  "deployedLinkReferences": {}
}